:020000040800F2
:1000000000000320459F0008F9400008094100084E
:10001000214100082941000831410008000000008A
:10002000000000000000000000000000394100084E
:1000300047410008000000005541000863410008E6
:10004000999F0008999F0008999F00086F41000838
:10005000999F0008999F0008FF4100080D42000881
:10006000999F0008999F0008F1410008999F000896
:10007000999F0008999F00087D410008999F0008FA
:10008000999F0008999F0008999F0008999F000870
:10009000999F0008999F0008999F00083142000825
:1000A000999F0008999F0008999F0008999F000850
:1000B000999F0008999F0008999F0008999F000840
:1000C000999F0008999F00081D420008999F000809
:1000D00091410008A5410008999F0008999F0008D8
:1000E000999F0008999F0008999F0008999F000810
:1000F000B9410008C5410008D1410008999F000896
:10010000999F0008999F0008999F0008999F0008EF
:10011000999F0008999F0008999F0008999F0008DF
:10012000999F0008999F0008DD410008999F0008E9
:0C013000999F0008999F0008999F000803
:1001400010B5054C237833B9044B13B10448AFF311
:1001500000800123237010BDF00400200000000087
:10016000600E030808B5034B1BB103490348AFF306
:10017000008008BD00000000F4040020600E0308A9
:1001800010F8012B11F8013B012A28BF9A42F7D041
:10019000D01A7047000000000000000000000000BE
:1001A00001F0FF01102A2BDB10F0070F08D010F828
:1001B000013B013A8B422DD010F0070F42B3F6D12C
:1001C000F0B441EA012141EA014122F007047FF045
:1001D00000070023F0E80256083C85EA010586EA9C
:1001E000010685FA47F5A3FA87F586FA47F6A5FAD8
:1001F00087F68EB9EED1F0BC01F0FF0102F00702E4
:1002000032B110F8013B013A83EA010313B1F8D18E
:100210000020704701387047002D06BF354603386F
:10022000073815F0010F07D1013015F4807F02BFA8
:10023000013015F4C03F0130F0BC0138704700BFF9
:10024000034613F8012B002AFBD1181A0138704716
:1002500081F0004102E000BF83F0004330B54FEA77
:1002600041044FEA430594EA050F08BF90EA020FE4
:100270001FBF54EA000C55EA020C7FEA645C7FEA77
:10028000655C00F0E2804FEA5454D4EB5555B8BF9A
:100290006D420CDD2C4480EA020281EA030382EA0B
:1002A000000083EA010180EA020281EA0303362D9D
:1002B00088BF30BD11F0004F4FEA01314FF4801C70
:1002C0004CEA113102D0404261EB410113F0004F82
:1002D0004FEA03334CEA133302D0524263EB430339
:1002E00094EA050F00F0A780A4F10104D5F1200ED7
:1002F0000DDB02FA0EFC22FA05F2801841F1000132
:1003000003FA0EF2801843FA05F359410EE0A5F105
:1003100020050EF1200E012A03FA0EFC28BF4CF036
:10032000020C43FA05F3C01851EBE37101F00045EC
:1003300007D54FF0000EDCF1000C7EEB00006EEBF9
:100340000101B1F5801F1BD3B1F5001F0CD3490883
:100350005FEA30004FEA3C0C04F101044FEA4452DA
:1003600012F5800F80F09A80BCF1004F08BF5FEA61
:10037000500C50F1000041EB045141EA050130BD41
:100380005FEA4C0C404141EB0101013C28BFB1F553
:10039000801FE9D291F0000F04BF01460020B1FA9E
:1003A00081F308BF2033A3F10B03B3F120020CDA71
:1003B0000C3208DD02F1140CC2F10C0201FA0CF04F
:1003C00021FA02F10CE002F11402D8BFC2F1200CB4
:1003D00001FA02F120FA0CFCDCBF41EA0C0190406A
:1003E000E41AA2BF01EB0451294330BD6FEA0404B3
:1003F0001F3C1CDA0C340EDC04F11404C4F120029E
:1004000020FA04F001FA02F340EA030021FA04F3AF
:1004100045EA030130BDC4F10C04C4F1200220FA06
:1004200002F001FA04F340EA0300294630BD21FA44
:1004300004F0294630BD94F0000F83F4801306BF0A
:1004400081F480110134013D4EE77FEA645C18BFFE
:100450007FEA655C29D094EA050F08BF90EA020F95
:1004600005D054EA000C04BF1946104630BD91EA8D
:10047000030F1EBF0021002030BD5FEA545C05D190
:100480004000494128BF41F0004130BD14F58004CF
:100490003CBF01F5801130BD01F0004545F0FE4143
:1004A00041F470014FF0000030BD7FEA645C1ABF78
:1004B000194610467FEA655C1CBF0B46024650EAAF
:1004C000013406BF52EA033591EA030F41F40021DB
:1004D00030BD00BF90F0000F04BF0021704730B561
:1004E0004FF4806404F132044FF000054FF0000136
:1004F00050E700BF90F0000F04BF0021704730B5F7
:100500004FF4806404F1320410F0004548BF4042CB
:100510004FF000013EE700BF42004FEAE2014FEA20
:1005200031014FEA02701FBF12F07F4393F07F4FFB
:1005300081F06051704732F07F4208BF704793F0FE
:100540007F4F04BF41F40021704730B54FF4607411
:1005500001F0004521F000411CE700BF50EA010214
:1005600008BF704730B54FF000050AE050EA0102BD
:1005700008BF704730B511F0004502D5404261EB2D
:1005800041014FF4806404F132045FEA915C3FF46E
:10059000D8AE4FF003025FEADC0C18BF03325FEA0B
:1005A000DC0C18BF033202EBDC02C2F1200300FABC
:1005B00003FC20FA02F001FA03FE40EA0E0021FAE1
:1005C00002F11444BDE600BF70B54FF0FF0C4CF4CF
:1005D000E06C1CEA11541DBF1CEA135594EA0C0F81
:1005E00095EA0C0F00F0DEF82C4481EA030621EABC
:1005F0004C5123EA4C5350EA013518BF52EA0335F7
:1006000041F4801143F4801338D0A0FB02CE4FF0A8
:100610000005E1FB02E506F00042E0FB03E54FF0D8
:100620000006E1FB03569CF0000F18BF4EF0010ED0
:10063000A4F1FF04B6F5007F64F5407404D25FEACC
:100640004E0E6D4146EB060642EAC62141EA55517F
:100650004FEAC52040EA5E504FEACE2EB4F1FD0CC1
:1006600088BFBCF5E06F1ED8BEF1004F08BF5FEA3F
:10067000500E50F1000041EB045170BD06F00046F1
:1006800046EA010140EA020081EA0301B4EB5C049E
:10069000C2BFD4EB0C0541EA045170BD41F4801196
:1006A0004FF0000E013C00F3AB8014F1360FDEBFBB
:1006B000002001F0004170BDC4F10004203C35DA97
:1006C0000C341BDC04F11404C4F1200500FA05F31A
:1006D00020FA04F001FA05F240EA020001F00042BB
:1006E00021F0004110EBD37021FA04F642EB060131
:1006F0005EEA430E08BF20EAD37070BDC4F10C045B
:10070000C4F1200500FA04F320FA05F001FA04F21E
:1007100040EA020001F0004110EBD37041F100010A
:100720005EEA430E08BF20EAD37070BDC4F1200515
:1007300000FA05F24EEA020E20FA04F301FA05F27D
:1007400043EA020321FA04F001F0004121FA04F225
:1007500020EA020000EBD3705EEA430E08BF20EAF5
:10076000D37070BD94F0000F0FD101F0004640002F
:1007700041EB010111F4801F08BF013CF7D041EAB1
:10078000060195F0000F18BF704703F000465200B5
:1007900043EB030313F4801F08BF013DF7D043EA86
:1007A0000603704794EA0C0F0CEA135518BF95EA3C
:1007B0000C0F0CD050EA410618BF52EA4306D1D1C3
:1007C00081EA030101F000414FF0000070BD50EAE2
:1007D000410606BF1046194652EA430619D094EA6C
:1007E0000C0F02D150EA013613D195EA0C0F05D156
:1007F00052EA03361CBF104619460AD181EA0301AA
:1008000001F0004141F0FE4141F470014FF0000061
:1008100070BD41F0FE4141F4780170BD70B54FF0FC
:10082000FF0C4CF4E06C1CEA11541DBF1CEA13557C
:1008300094EA0C0F95EA0C0F00F0A7F8A4EB05045E
:1008400081EA030E52EA03354FEA013100F0888055
:100850004FEA03334FF0805545EA131343EA12631E
:100860004FEA022245EA111545EA10654FEA0026D3
:100870000EF000419D4208BF964244F1FD0404F58C
:10088000407402D25B084FEA3202B61A65EB0305E8
:100890005B084FEA32024FF480104FF4002CB6EBA5
:1008A000020E75EB030E22BFB61A754640EA0C0025
:1008B0005B084FEA3202B6EB020E75EB030E22BF65
:1008C000B61A754640EA5C005B084FEA3202B6EBA6
:1008D000020E75EB030E22BFB61A754640EA9C0065
:1008E0005B084FEA3202B6EB020E75EB030E22BF35
:1008F000B61A754640EADC0055EA060E18D04FEAF3
:10090000051545EA16754FEA06164FEAC30343EA92
:1009100052734FEAC2025FEA1C1CC0D111F4801F5F
:100920000BD141EA00014FF000004FF0004CB6E758
:1009300011F4801F04BF01430020B4F1FD0C88BFF7
:10094000BCF5E06F3FF6AFAEB5EB030C04BFB6EB02
:10095000020C5FEA500C50F1000041EB045170BDF5
:100960000EF0004E4EEA113114EB5C04C2BFD4EB22
:100970000C0541EA045170BD41F480114FF0000EA6
:10098000013C90E645EA060E8DE60CEA135594EA22
:100990000C0F08BF95EA0C0F3FF43BAF94EA0C0F25
:1009A0000AD150EA01347FF434AF95EA0C0F7FF49A
:1009B00025AF104619462CE795EA0C0F06D152EAEE
:1009C00003353FF4FDAE1046194622E750EA4106D2
:1009D00018BF52EA43067FF4C5AE50EA41047FF4E3
:1009E0000DAF52EA43057FF4EBAE12E74FF0FF3C48
:1009F00006E000BF4FF0010C02E000BF4FF0010C19
:100A00004DF804CD4FEA410C7FEA6C5C4FEA430C91
:100A100018BF7FEA6C5C1BD001B050EA410C0CBFE0
:100A200052EA430C91EA030F02BF90EA020F002042
:100A3000704710F1000F91EA030F58BF994208BFA9
:100A400090422CBFD8176FEAE37040F00100704766
:100A50004FEA410C7FEA6C5C02D150EA013C07D1BD
:100A60004FEA430C7FEA6C5CD6D152EA033CD3D008
:100A70005DF8040B704700BF8446104662468C4602
:100A80001946634600E000BF01B5FFF7B7FF002835
:100A900048BF10F1000F01BD4DF808EDFFF7F4FF5E
:100AA0000CBF012000205DF808FB00BF4DF808EDE9
:100AB000FFF7EAFF34BF012000205DF808FB00BF0C
:100AC0004DF808EDFFF7E0FF94BF012000205DF82E
:100AD00008FB00BF4DF808EDFFF7CEFF94BF0120E3
:100AE00000205DF808FB00BF4DF808EDFFF7C4FFDC
:100AF00034BF012000205DF808FB00BF4FEA410C25
:100B00007FEA6C5C02D150EA013C0AD14FEA430C07
:100B10007FEA6C5C02D152EA033C02D14FF0000044
:100B200070474FF0010070474FEA410212F5001282
:100B300015D211D56FF47873B3EB625212D94FEA24
:100B4000C12343F0004343EA505311F0004F23FA0E
:100B500002F018BF404270474FF00000704750EA63
:100B6000013005D111F0004008BF6FF00040704720
:100B70004FF00000704700BF4FEA4102B2F1E0437E
:100B800024BFB3F5001CDCF1FE5C0DD901F0004C74
:100B90004FEAC0024CEA5070B2F1004F40EB8300C4
:100BA00008BF20F00100704711F0804F21D113F1F0
:100BB0003872BCBF01F00040704741F480114FEA29
:100BC0005252C2F11802C2F1200C10FA0CF320FAB2
:100BD00002F018BF40F001004FEAC1234FEAD323CF
:100BE00003FA0CFC40EA0C0023FA02F34FEA430339
:100BF000CCE77FEA625307D150EA01331EBF4FF0C2
:100C0000FE4040F44000704701F0004040F0FE40DC
:100C100040F40000704700BF53B94AB9002908BF2B
:100C200000281CBF4FF0FF314FF0FF3000F06AB9D1
:100C3000ADF1080C6DE904CE00F006F8DDF804E033
:100C4000DDE9022304B070472DE9F047089D0C460A
:100C5000002B4ED194468C458646B2FA82F262D978
:100C60004AB1C2F12003914020FA03F30CFA02FCCE
:100C7000194300FA02FE4FEA1C471FFA8CF6B1FB3B
:100C8000F7F44FEA1E4307FB141143EA014304FB48
:100C900006F199420AD91CEB030304F1FF3080F0FE
:100CA0001281994240F20F81023C6344591A1FFAA3
:100CB0008EF3B1FBF7F007FB101143EA014300FB91
:100CC00006F69E420AD91CEB030300F1FF3180F0C7
:100CD000FC809E4240F2F980634402389B1B40EA4C
:100CE000044000211DB1D3400022C5E90032BDE817
:100CF000F0878B4205D90DB1C5E9000100210846F6
:100D0000F5E7B3FA83F1002946D1A34202D390421A
:100D1000C0F0F080861A64EB03030120002DE6D0BA
:100D2000C5E90063E3E7002A40F09080A1EB0C04E2
:100D30004FEA1C481FFA8CF70121B4FBF8F64FEA82
:100D40001E4308FB164443EA044307FB06F098429F
:100D500008D91CEB030306F1FF3402D2984200F2DB
:100D6000CD8026461C1A1FFA8EF3B4FBF8F008FB60
:100D7000104443EA044300FB07F79F4208D91CEBE9
:100D8000030300F1FF3402D29F4200F2B0802046FC
:100D9000DB1B40EA0640A5E7C1F120068B4022FAA2
:100DA00006F71F4320FA06FC04FA01F343EA0C039A
:100DB000F44000FA01F8380C4FEA1349B4FBF0FE96
:100DC0001FFA87FC00FB1E4449EA04440EFB0CF9A1
:100DD000A14502FA01F20AD93C190EF1FF3A80F05E
:100DE0008480A14540F28180AEF1020E3C44A4EB28
:100DF00009041FFA83F9B4FBF0F300FB134449EA3A
:100E0000044403FB0CFCA44507D93C1903F1FF3053
:100E100067D2A44565D9023B3C4443EA0E40A0FB9F
:100E20000293A4EB0C049C42CE469C4651D34ED078
:100E300055B1B8EB0E0364EB0C0404FA06F6CB4094
:100E40001E43CC40C5E90064002150E7C2F12003F5
:100E500020FA03F10CFA02FC24FA03F394400C4349
:100E60004FEA1C4800FA02FE1FFA8CF7B3FBF8F0B9
:100E700008FB1031230C43EA014300FB07F19942C0
:100E800008D91CEB030300F1FF362CD299422AD972
:100E9000023863445B1AA4B2B3FBF8F108FB1133C8
:100EA00044EA034401FB07F3A34208D91CEB040402
:100EB00001F1FF3613D2A34211D902396444E41A76
:100EC00041EA004139E70446F0E6084606E7C8452E
:100ED000AED2B9EB020E63EB070C0138A8E731463E
:100EE000EDE7034699E73046D4E7D6467FE763440B
:100EF00002384DE70646234608460FE7023E6344A4
:100F000030E700BF704700BF80B400AF00BF054BA3
:100F10005B78DBB2002BFAD000BF00BFBD465DF8A6
:100F2000047B7047DC42002080B400AF00BF054B5B
:100F30001B78DBB2002BFAD000BF00BFBD465DF8C6
:100F4000047B7047DC42002080B584B000AF78603D
:100F500039607B68002B04D008202BF06BFC034623
:100F6000FB60FB687A681A60FB683A685A60FB6845
:100F700018461037BD4680BD80B483B000AF78609E
:100F80000B467B8013463B807B68002B09D03B8857
:100F9000002B06D07B88002B03D07A883B889A42AE
:100FA00001D9012300E0002318460C37BD465DF847
:100FB000047B704780B584B000AFF860B96011461B
:100FC0001A460B46FB801346BB80BA88FB8819463D
:100FD000B868FFF7D1FF0346002B01D007231CE0C0
:100FE000104B00225A70FB681B68FA88B9681846D3
:100FF0000CF094FD0346002B01D008230DE00122E4
:10100000012109480AF03CFA642001F00CFA0022A0
:10101000012105480AF034FA002318461037BD466E
:1010200080BD00BFDC4200200008004880B586B0CB
:1010300000AFF860B96011461A460B46FB801346B4
:10104000BB80BA88FB881946B868FFF795FF03464E
:10105000002B01D007231EE0114B00221A70FB6801
:101060001B68FA88B96818460CF0ECFD0346FB755E
:10107000FB7D002B01D008230DE00122012109484E
:101080000AF0FEF9642001F0CEF9002201210548A2
:101090000AF0F6F9002318461837BD4680BD00BF98
:1010A000DC4200200008004880B582B000AF7860C4
:1010B0007868FFF7C5F803469AB240F6B833796806
:1010C00003480CF09CFC00BF0837BD4680BD00BF44
:1010D0009045002080B485B000AF78600B467B80DF
:1010E0000023FB6018E0FB687A6813441B78602BD0
:1010F0000FD9FB687A6813441B787A2B09D8FB68F0
:101100007A6813441A78FB6879680B44203AD2B2A3
:101110001A70FB680133FB607B88FA689A42E2DB55
:1011200000BF00BF1437BD465DF8047B7047000068
:1011300080B485B000AF03463960FB711346BB80B5
:10114000FB799AB2BB8813449BB2104A12781344BD
:101150009BB20F4A12781344FB810023BB600AE064
:10116000BB683A6813441B781A46FB891344FB8119
:10117000BB680133BB60BB88BA689A42F0DBFB896D
:1011800018461437BD465DF8047B70477400002094
:101190007500002080B584B000AFB96011461A46D2
:1011A0000346FB730B46BB811346FB80BA89FB7B6E
:1011B000B9681846FFF7BCFF03461A46FB889342FE
:1011C0000CBF01230023DBB218461037BD4680BD9B
:1011D00080B584B000AFF8600B467A607B81114A1D
:1011E0007B681360104B18687B897A89F968FFF770
:1011F000E1FE03461A460D4B1A700C4B1B78002B70
:1012000009D00B4B18680823084A062100F048F95A
:10121000064B1B7802E0FFF777FE002318461037D5
:10122000BD4680BDE042002004440020F843002079
:101230000844002080B584B000AFF8600B467A60A7
:101240007B81114A7B681360104B18687B897A890F
:10125000F968FFF7EBFE03461A460D4B1A700C4B6C
:101260001B78002B09D00B4B18680823084A06216D
:1012700000F016F9064B1B7802E0FFF755FE00233D
:1012800018461037BD4680BDE442002004440020CB
:10129000F84300200844002080B586B000AFB96054
:1012A0007B600346FB731346BB81BB8907339BB24C
:1012B000BB82BB891946B868FFF70CFFFB7BBA8974
:1012C000B9681846FFF734FF03467B827A6801212C
:1012D0002848FFF77DFF0346FB75FB7D002B01D0FF
:1012E000FB7D43E007F10F037A6801211846FFF701
:1012F0006FFF0346FB75FB7D002B01D0FB7D35E0C6
:1013000007F114037A6802211846FFF761FF0346CC
:10131000FB75FB7D002B01D0FB7D27E0BB897A6844
:101320001946B868FFF754FF0346FB75FB7D002B99
:1013300001D0FB7D1AE007F112037A6802211846FA
:10134000FFF746FF0346FB75FB7D002B01D0FB7DBD
:101350000CE07A6801210848FFF73AFF0346FB7565
:10136000FB7D002B01D0FB7D00E0002318461837E1
:10137000BD4680BD740000207500002080B584B09B
:1013800000AF78607A6801212848FFF753FF0346D1
:10139000FB73FB7B002B01D0FB7B43E07A680121D0
:1013A0002348FFF747FF0346FB73FB7B002B01D06D
:1013B000FB7B37E07A6802211E48FFF73BFF0346BC
:1013C000FB73FB7B002B01D0FB7B2BE01A4B1B88B4
:1013D0007A6819461948FFF72DFF0346FB73FB7B1C
:1013E000002B01D0FB7B1DE07A6802211448FFF737
:1013F00021FF0346FB73FB7B002B01D0FB7B11E03D
:101400007A6801210F48FFF715FF0346FB73FB7B4A
:10141000002B01D0FB7B05E07B68002B01D07B68B3
:101420009847002318461037BD4680BDE84200208B
:10143000E9420020EE430020F0430020EC4200206F
:10144000EC430020EA42002080B584B000AF786011
:1014500039603B68002B1DD07B681B781A463B68BF
:101460001B7818460D491346DB001344034407F16B
:101470000802DB000B4493E8030082E80300FB68EA
:10148000002B04D0FB683A685268104698473A7AB5
:101490007B681A7000BF1037BD4680BD7800002001
:1014A00080B586B000AFF8607A603B600B46FB7297
:1014B00008202BF0BFF903467B617B69FA7A1A702A
:1014C0007B68002B18D03B68002B15D038682BF0B8
:1014D000B1F903461A467B695A607B695B68002B49
:1014E00002D178692BF0AEF97B695B683A6879685C
:1014F00018462CF00AFA02E07B6900225A600822A2
:101500007969F86800F01AFA78692BF09BF900BF46
:101510001837BD4680BD80B584B000AF786078686C
:1015200000F044FAF860FB6818461037BD4680BDED
:1015300080B582B000AF78607B68002B07D07B68F5
:101540005B6818462BF07EF978682BF07BF900BFBA
:101550000837BD4680BD000080B582B000AF78601E
:101560000448FFF7A1FD044B00221A6000BF0837B2
:10157000BD4680BDF80E0308F443002080B582B05C
:1015800000AF78601448FFF78FFD7B681B68134A33
:101590005360134B00221A70124B00221A704FF442
:1015A0008072002110482CF0EDF8104B00221A70C8
:1015B0000F4B00221A800F4B00221A800E4B002284
:1015C0001A800E4B1868002300220121FFF768FFE4
:1015D00000BF0837BD4680BD080F0308F843002050
:1015E000E8420020E9420020EC420020EA420020CC
:1015F000EC430020EE430020F0430020084400208C
:1016000080B584B000AF78600C48FFF74DFD7B6873
:10161000FB60F868FEF714FE03469AB20023F968EF
:101620000120FFF739FE064B186800230022022133
:10163000FFF736FF00BF1037BD4680BD180F030807
:101640000844002080B582B000AF78600848FFF7FA
:101650002BFD0848FFF792FE074B18680023002275
:101660000321FFF71DFF00BF0837BD4680BD00BF47
:101670002C0F0308211700080844002080B582B011
:1016800000AF78600848FFF70FFD0848FFF70CFD32
:101690000748FFF709FD0021102018F0A1FF00BF47
:1016A0000837BD4680BD00BF3C0F0308A44A002098
:1016B000580F030880B59CB000AF78607B68FB666C
:1016C000FB6E1B781A4607F10803124918462BF0E7
:1016D0000BFF07F108031846FFF7E6FC0E4B1B68EB
:1016E000032B13D00C4B1B6801330B4A1360FB6EAA
:1016F0001B78013B072B08D8084B1868FB6E1A1D96
:1017000004230021FFF7CCFE00E000BF00BF7037CC
:10171000BD4680BD5C0F0308F44300200844002050
:1017200080B500AF364B1B78062B60D801A252F86B
:1017300023F000BF5117000865170008751700084F
:10174000891700089F170008BF170008D317000863
:101750002C4B1A782C4B1B789A424AD1284B0122E9
:101760001A7046E0294B1A78294B1A70244B022232
:101770001A7043E0274B1B88073B9AB2264B1A800E
:101780001F4B03221A7039E0234B1B881A4623494A
:1017900023482CF020F81A4B04221A702EE01C4B20
:1017A00018781D4B1A881F4B1B881D49FFF7F2FC48
:1017B0000346002B1FD0124B05221A701BE01A4B58
:1017C0001A781A4B1B789A4217D10D4B06221A70C1
:1017D00013E00B4B00221A700F4B1A88144B1A801F
:1017E000134B1B881A460E4B0021995406E000BF8C
:1017F00004E000BF02E000BF00E000BF00BF80BD0A
:101800000044002074000020E8420020E94200204B
:10181000F2430020EE430020F0430020EC42002081
:10182000A44A0020EC43002075000020EA4200207A
:10183000A44B002080B582B000AF0346FB80FB883C
:10184000202B06D1054B1868002300220821FFF742
:1018500027FE00BF0837BD4680BD00BF08440020FA
:1018600080B500AF00F054F803460B4A1360002126
:101870000A48FFF769FB0346094A1360094A002139
:101880004FF4806018F08AFE00214FF4806018F059
:10189000A7FE00BF80BD00BF08440020FC4400201C
:1018A00004440020A918000880B582B000AF154B91
:1018B0001B68002B04D100214FF4806018F090FECB
:1018C000114B1B68184600F09CF80346002B0FD103
:1018D0000D4B1B681846FFF71EFE78607B68002BD7
:1018E00006D079680948FFF7AFFD7868FFF720FE5A
:1018F00000214FF4806018F073FE00BF0837BD462A
:1019000080BD00BFE4470020084400200C440020B4
:1019100080B582B000AF0C202AF08CFF03467B60BC
:101920007B6800221A607B6800225A607B68002274
:101930009A607B6818460837BD4680BD80B586B082
:1019400000AFF860B9607A6008202AF073FF0346A0
:101950007B6178682AF06EFF03461A467B691A603D
:101960007B691B687A68B96818462BF0CEFF7B69E3
:1019700000225A60FB685B68002B07D1FB687A691C
:101980005A60FB685A68FB681A6006E0FB685B688F
:101990007A695A60FB687A695A60FB689B685A1CCE
:1019A000FB689A6000BF1837BD4680BD80B584B023
:1019B00000AF7860786800F024F80346002B01D06F
:1019C00000231AE07B681B68FB60FB681B68BB6038
:1019D0007B681B685A687B681A607B681B68002BF1
:1019E00002D17B6800225A60F8682AF02BFF7B68DE
:1019F0009B685A1E7B689A60BB6818461037BD46C4
:101A000080BD80B483B000AF78607B681B68002B1A
:101A10000CBF01230023DBB218460C37BD465DF82E
:101A2000047B704780B483B000AF7860064BD3F876
:101A3000902005497B681343C1F8903000BF0C37F4
:101A4000BD465DF8047B70470008005880B485B03F
:101A500000AF78604FF0B043DA6C4FF0B0417B6874
:101A60001343CB644FF0B043DA6C7B681340FB60E8
:101A7000FB6800BF1437BD465DF8047B704780B437
:101A800085B000AF78604FF0B043D3F84C214FF0F1
:101A9000B0417B681343C1F84C314FF0B043D3F8E9
:101AA0004C217B681340FB60FB6800BF1437BD46C8
:101AB0005DF8047B704780B500AF08F087FC08F044
:101AC0008BFC4FF48030FFF7ADFF18F053FB00F0B4
:101AD00021F800F0C1F800BF80BD0000B0B588B0AB
:101AE00000AF0B4B3C1D1D460FCD0FC495E8070002
:101AF00003C422800234130C237018F077FA3B1DC4
:101B0000184617F0F0FC00BF2037BD46B0BD00BF3F
:101B1000700F030880B588B000AF3B1D00221A602B
:101B20005A609A60DA601A610023BB8300237B83CA
:101B300000233B830023FB7736E0FB7F434ADB0037
:101B400013449B79002B2CD0FB7F404A52F8333052
:101B50003F4A93421BD03E4A934221D8B3F1904F63
:101B600003D03C4A934209D01AE0FB7F374ADB009E
:101B700013449A88BB8B1343BB8312E0FB7F334A29
:101B8000DB0013449A887B8B13437B8309E0FB7F44
:101B90002E4ADB0013449A883B8B13433B8300E0BF
:101BA00000BFFB7F0133FB77FB7F252BC5D90023CB
:101BB000FB600123BB6003233B61BB8B002B14D074
:101BC000BB8B7B600120FFF741FF0120FFF757FF30
:101BD0003B1D19464FF0904009F0CAFABB8B00221A
:101BE00019464FF0904009F04BFC7B8B002B12D034
:101BF0007B8B7B600220FFF729FF0220FFF73FFF6E
:101C00003B1D1946134809F0B3FA7B8B0022194695
:101C1000104809F035FC3B8B002B13D03B8B7B60CD
:101C20000420FFF713FF0420FFF729FF3B1D19468F
:101C3000074809F09DFA3B8B00221946044809F039
:101C40001FFC00BF00BF2037BD4680BDA451030864
:101C5000000800480004004880B400AF00BFBD4643
:101C60005DF8047B704780B500AF002001F06DFC8B
:101C700000BF80BD80B584B000AFF8600B467A60CD
:101C80007B817A897B68F968002001F093FC00BFB2
:101C90001037BD4680BD000080B483B000AF7860CF
:101CA000064BD3F8902005497B681343C1F8903068
:101CB00000BF0C37BD465DF8047B70470008005834
:101CC00080B483B000AF7860074BD3F8803023F046
:101CD000070205497B681343C1F8803000BF0C3709
:101CE000BD465DF8047B70470004005880B483B0A3
:101CF00000AF78604FF0B0430A4AC3F89C204FF021
:101D0000B043D3F89C3023F47C527B681B024FF025
:101D1000B0411343C1F89C3000BF0C37BD465DF89D
:101D2000047B7047FECAFECA80B483B000AF7860FF
:101D30004FF0B0439B6823F400424FF0B0417B6802
:101D400013438B6000BF0C37BD465DF8047B7047C2
:101D500080B400AF4FF0B043D3F890304FF0B042B2
:101D600043F48033C2F8903000BFBD465DF8047B79
:101D7000704780B400AF4FF0B043D3F890304FF0CD
:101D8000B04223F48033C2F8903000BFBD465DF806
:101D9000047B704780B400AF4FF0B043D3F8943069
:101DA00003F08063B3F1806F01D1012300E00023D1
:101DB0001846BD465DF8047B704780B400AF4FF015
:101DC000B043D3F8943003F08053B3F1805F01D176
:101DD000012300E000231846BD465DF8047B7047F0
:101DE00080B485B000AF78604FF0B0431A6D4FF00B
:101DF000B0417B6813430B654FF0B0431A6D7B68AD
:101E00001340FB60FB6800BF1437BD465DF8047BE0
:101E10007047000080B400AF044B1B68C3F30B0392
:101E20001846BD465DF8047B704700BF002004E003
:101E300080B400AF044B1B681B0C9BB21846BD4618
:101E40005DF8047B704700BF002004E080B483B0DD
:101E500000AF786039607B685A683B681B041A439E
:101E60007B685A6000BF0C37BD465DF8047B704745
:101E700080B483B000AF786039607B685A683B6893
:101E80001A437B685A6000BF0C37BD465DF8047B7F
:101E9000704780B483B000AF786039607B685A695E
:101EA0003B681B041A437B685A6100BF0C37BD4670
:101EB0005DF8047B704780B483B000AF7860396010
:101EC0007B685A693B681A437B685A6100BF0C37CC
:101ED000BD465DF8047B704780B483B000AF786086
:101EE00039607B683A689A6000BF0C37BD465DF880
:101EF000047B704780B483B000AF786039607B6842
:101F00003A689A6100BF0C37BD465DF8047B7047A4
:101F100080B400AF054B1B69044A23F0040313612E
:101F200000BFBD465DF8047B704700BF00ED00E0D8
:101F300080B483B000AF78607B68FF225A6200BF34
:101F40000C37BD465DF8047B704780B483B000AFAA
:101F500078607B68CA225A627B6853225A6200BF4B
:101F60000C37BD465DF8047B704780B483B000AF8A
:101F7000786039607B689B6823F007023B681A43EE
:101F80007B689A6000BF0C37BD465DF8047B7047E4
:101F900080B500AF044B4FF400421A6100F054F8D2
:101FA00000F094F800BF80BD0040005880B582B0BA
:101FB00000AF194BD3F880301B0303F47F2303F1E8
:101FC00000637B6000F096F800F0AEF81349002043
:101FD00001F050F8FFF76FFD0121012018F0B2F970
:101FE00000F004FA00F00FFA7B68A3F500531A46DC
:101FF0000B4B1A607B68A3F540531A46094B1A60D5
:102000007B68A3F580431A46074B1A6000F09AF8E4
:1020100000BF0837BD4680BD00400058F84600208C
:1020200034480020384800203C48002080B400AFED
:1020300000BFBD465DF8047B704780B500AF5020FF
:10204000FFF72AFE00BF80BD80B500AF00F004F8A6
:1020500000F01AF800BF80BD80B500AFFFF79AFE10
:102060000346002B0DD0FFF7A8FE0346002B08D136
:1020700009F0E0FA09F0DEFAFFF76AFEFFF779FEF1
:1020800000BF00BF80BD000080B500AF4FF48010DE
:10209000FFF7A6FE3F210C48FFF71EFF3F210A482D
:1020A000FFF728FF3F210848FFF7D0FE3F210648F1
:1020B000FFF7EFFE3F210448FFF7DAFE3F21024819
:1020C000FFF7F9FE00BF80BD000C005880B582B05C
:1020D00000AF002018F0CCF878607B68002B05D0AA
:1020E0007B689B791846FFF701FE00BF00BF0837E9
:1020F000BD4680BD80B500AFFFF798FFFFF79DFF9D
:1021000000F002F800BF80BD80B500AF0548FFF7C2
:102110001CFF00210348FFF728FF0248FFF708FFD4
:1021200000BF80BD0028004080B500AF4FF40040E4
:10213000FFF7FAFD18F0C4F80420FFF7C1FD00BF57
:1021400080BD000080B588B000AF17F099FD114A3E
:1021500000214FF4006018F021FA0F4B3B600F4B49
:102160007B603B4619460E4817F04CFC0D4BBB609C
:102170000D4BFB600D4B3B6140F23C537B6107F123
:102180000803184617F0BEFE17F074FD00BF203795
:10219000BD4680BD3D9A010834070320B1210008E7
:1021A000C92100084C09032040080320F80103203E
:1021B00080B483B000AF0346FB7100BF0C37BD464F
:1021C0005DF8047B7047000080B588B000AF786090
:1021D0007B685B680B33FB61FB691B889BB2A3F5D3
:1021E0001243072B60D801A252F823F00D220008F9
:1021F0004F2200085D220008A92200087922000869
:102200008922000891220008A122000807F10C038E
:10221000184617F0ADF93B7B19467B7B1A46BB7B12
:1022200024482BF0F1F83B7C194623482BF0ECF8BE
:10223000BB7D1946FB7D1A463B7E20482BF0E4F817
:102240001F482BF0E1F8786800F070F82DE01D4889
:102250002BF0DAF8786800F043F826E01A482BF003
:102260003BF9FB6902331968FB6902335B681A4664
:1022700016482BF0C9F818E0FB6902331B681946B1
:1022800013482BF0C1F810E012482BF0BDF80CE019
:10229000FB6902331B6819460F482BF0B5F804E0C0
:1022A0000E482BF0B1F800E000BF00BF2037BD465C
:1022B00080BD00BF8C0F0308B00F0308CC0F0308CC
:1022C000E40F03080410030828100308781003081B
:1022D000A0100308DC100308001103083C110308D8
:1022E00080B584B000AF78607B685B680B33FB60BF
:1022F000FB680233BB60BB681B78194608482BF0AB
:1023000083F8BB681B78002B03D106482BF0E4F858
:1023100003E005482BF0E0F800BF1037BD4680BD54
:102320006011030890110308CC11030880B58AB02E
:1023300000AF786007F1080300221A605A609A60C3
:10234000DA6000237B6200233B627B685B680B33AF
:10235000FB61FB690233BB61BB691B78002B28D191
:102360001D482BF0B9F8FFF7B9FB0F233B727F2311
:10237000BB72FFF75DFD7862796A18482BF044F86C
:102380007B6A9BB2BB82FFF745FD3862396A14480D
:102390002BF03AF83B6A9BB2FB8207F10803184620
:1023A00017F0D1F802F01AF80021012017F0CAFF47
:1023B0000EE0BB691B78012B06D10A482BF024F8EC
:1023C0007B6800221A7003E007482BF01DF800BF5D
:1023D0002837BD4680BD00BF041203082012030841
:1023E00044120308641203089812030880B500AF72
:1023F000002007F0EBFD012007F0E8FD022007F0C8
:10240000E5FD00BF80BD80B500AF0121002007F0D1
:102410004BFE0121012007F047FE0121022007F0B9
:1024200043FE00BF80BD80B584B000AF786007F088
:10243000A9FFB8607B68FB60FB68B3F1FF3F0AD07F
:1024400007F0B8FF03461A46FB681344FB6002E03E
:10245000FFF75EFD30BF07F095FF0246BB68D31A59
:10246000FA689A42F4D800BF00BF1037BD4680BD5D
:1024700080B500AF4FF0FF3017F094FF00BF80BD74
:1024800080B400AF00BFBD465DF8047B704780B5E7
:1024900082B000AF786039604FF0FF3017F082FFF4
:1024A00000BF0837BD4680BD80B582B000AF786000
:1024B00000214FF4006018F093F800BF0837BD46C4
:1024C00080BD80B582B000AF7860022018F0F4F8CB
:1024D00000BF0837BD4680BD80B582B000AF7860D0
:1024E000022018F009F900BF0837BD4680BD000082
:1024F00080B400AF074B1B6903F40023B3F5002F32
:1025000001D1012300E000231846BD465DF8047B9D
:10251000704700BF0040005880B483B000AF7860BF
:1025200039607B683A68203253F82230054A93427A
:1025300001D0012300E0002318460C37BD465DF8AA
:10254000047B70470004008080B485B000AFF86061
:10255000B9607A607B6843F48061FB68BA6843F8CD
:10256000221000BF1437BD465DF8047B704780B46D
:1025700083B000AF786039607B683A6853F82230E6
:10258000002B01D0012300E0002318460C37BD4684
:102590005DF8047B7047000080B586B000AF7860BE
:1025A00039600023FB7300BF02211D48FFF7B4FF11
:1025B0000346002BF8D108F047FC012016F0AAFFD3
:1025C00000237B610AE07A687B691344184600F0B7
:1025D00071F80346FB737B6901337B617A693B6861
:1025E0009A4202D2FB7B002BEDD0FB7B002B05D067
:1025F0003A687B69D31A01333B610BE0002016F087
:1026000089FF08F043FC002202210548FFF79CFFE8
:1026100000233B613B6918461837BD4680BD00BFAB
:102620000014005880B588B000AFF860B9607A60D7
:102630000023FB7500BF02211D48FFF76DFF034615
:10264000002BF8D108F000FC0023FB6111E0FB69CE
:10265000DA00FB68D118FB69DB00BA681344D3E9E0
:102660000023084600F042F80346FB75FB6901337E
:10267000FB61FA697B689A4202D2FB7D002BE6D0AF
:10268000FB7D002B05D07A68FB69D31A0133BB614F
:1026900008E008F0FBFB002202210548FFF754FF89
:1026A0000023BB61BB6918462037BD4680BD00BF13
:1026B0000014005880B584B000AF78600023BB6080
:1026C00002E0BB680133BB60BB68222BF9D94FF035
:1026D00000024FF000037968002000F01BF8034669
:1026E000FB73FB7B18461037BD4680BD80B586B0B6
:1026F00000AFF860C7E90023D7E90023F96801209B
:1027000000F008F80346FB75FB7D18461837BD46F8
:1027100080BD000080B58EB000AFB960C7E900236E
:102720000346FB73012387F8363002237B610123C4
:10273000FB61BB68BB6100BFFFF7DAFE0346002BFD
:10274000FAD1EFF31083BB62BB6A3B6372B600BF82
:1027500006213648FFF70BFF034687F82F3097F81E
:102760002F30002B21D107213048FFF7D5FE03463B
:1027700087F8373097F83730002B16D1FB7B002BCA
:1027800008D107F1200207F114031146184608F09A
:102790002BFC05E0D7E90023B968012008F010FB05
:1027A000002207212148FFF7CFFE3B6B7B627B6A4B
:1027B00083F3108800BF97F82F30002B06D000203D
:1027C00000F038F8034687F8363009E097F83730DC
:1027D000002B05D0012000F02DF8034687F8363095
:1027E00097F83730002B03D197F82F30002B03D008
:1027F00097F83630002B9ED100BF0D4B1B6903F4B8
:102800008023B3F5802FF8D097F83630002B03D013
:10281000002387F8353002E0012387F8353097F838
:10282000353018463837BD4680BD00BF001400580B
:102830000040005880B483B000AF0346FB71002312
:1028400018460C37BD465DF8047B704780B483B0F2
:1028500000AF7860064BD3F8802005497B681343AE
:10286000C1F8803000BF0C37BD465DF8047B70476F
:102870000008005880B483B000AF7860054B1A6838
:1028800004497B6813430B6000BF0C37BD465DF8FD
:10289000047B70470008005880B483B000AF0D4B34
:1028A0009B6A9BB27B600B4B9B6A9BB23B6005E0D3
:1028B0003B687B60074B9B6A9BB23B607A683B68D6
:1028C0009A42F5D13B6818460C37BD465DF8047B4B
:1028D000704700BF0028004080B485B000AF0346B9
:1028E0000A46FB711346BB71BA791D4913465B005A
:1028F0001344DB000B4415331B78FB73FB7B062B67
:1029000009D0FA7B164913465B001344DB000B44E5
:102910001433FA791A70FA79114913465B0013449B
:10292000DB000B441533FA7B1A70FA790C49134615
:102930005B001344DB000B441433BA791A70BA7984
:10294000074913465B001344DB000B441533FA7947
:102950001A7000BF1437BD465DF8047B704700BF96
:102960001844002080B485B000AF03460A46FB71CE
:102970001346BB71294B1B78DBB2BA799A4232D02D
:10298000BA79274913465B001344DB000B44143328
:102990001B78FB73FA7B224913465B001344DB0070
:1029A0000B441533FA791A70FA791D4913465B0006
:1029B0001344DB000B441533BA791A70FA791849BD
:1029C00013465B001344DB000B441433FA7B1A708C
:1029D000BA79134913465B001344DB000B441433EC
:1029E000FA791A7014E0FA790D4913465B00134422
:1029F000DB000B441533BA791A70BA7908491346CB
:102A00005B001344DB000B441433FA791A7000BFE7
:102A10001437BD465DF8047B704700BFA844002012
:102A20001844002080B584B000AF0346FB714E4BC4
:102A30001B78DBB2062B18D14B4B1B78DAB24B4B11
:102A40001A70494AFB791370FA79494913465B00B9
:102A50001344DB000B44153306221A70454B4FF02C
:102A6000FF321A600023FB8178E000F009F9034689
:102A7000FB81FA793E4913465B001344DB000B44AB
:102A800008331968FB89FA791944394813465B0001
:102A90001344DB00034408331960FA7934491346C0
:102AA0005B001344DB000B4408331B68BB602E4BF8
:102AB0001B78DBB219462E4A0B465B000B44DB0049
:102AC000134408331B68BA689A4237D3264B1B78E5
:102AD0007B737A7B264913465B001344DB000B446F
:102AE00015331B783B7313E07A7B214913465B0057
:102AF0001344DB000B4415331B787B737A7B1C4932
:102B000013465B001344DB000B4415331B783B7307
:102B10003B7B062B0BD03A7B154913465B001344D5
:102B2000DB000B4408331B68BA689A42DCD27A7B1C
:102B3000FB7911461846FFF7CFFE0FE00A4B1B78D2
:102B4000DAB2FB7911461846FFF70CFF064B1B78EB
:102B5000DAB2064B1A70044AFB791370FB891846E7
:102B60001037BD4680BD00BFA8440020A944002006
:102B700018440020AC44002080B485B000AF034668
:102B80000A46FB711346BB71394B1B78DBB2FA79ED
:102B90009A4211D1364B1B78DAB2364B1A70FA7959
:102BA000354913465B001344DB000B4415331B7897
:102BB000DAB22F4B1A703EE0FA792F4913465B00C8
:102BC0001344DB000B4414331B78FB73FA792A4956
:102BD00013465B001344DB000B4415331B78BB73B7
:102BE000F979FA7B24480B465B000B44DB00034475
:102BF00015331B78D8B2204913465B001344DB0021
:102C00000B44153302461A70BB7B062B13D0F9799F
:102C1000BA7B19480B465B000B44DB0003441433BA
:102C20001B78D8B2144913465B001344DB000B44F5
:102C3000143302461A70FA790F4913465B001344A5
:102C4000DB000B440C3301221A70094B1B78DBB2FA
:102C5000062B07D1BB79002B04D1084B4FF0FF3274
:102C60001A6000BF00BF1437BD465DF8047B704793
:102C7000A8440020A944002018440020AC440020AF
:102C800080B582B000AF1A4B1B68B3F1FF3F26D06E
:102C9000FFF702FE7860164B1B687A689A4205D8E7
:102CA000134B1A687B68D31A7B600AE0114B1B88B0
:102CB0001A467B68D31A3B600D4B1B683A68134475
:102CC0007B600D4B1B781A467B6802FB03F37B602D
:102CD0000A4B1B781A467B68D3407B6001E00023D7
:102CE0007B607B689BB218460837BD4680BD00BF3D
:102CF000AC440020B4440020B2440020B144002081
:102D000080B582B000AF0346FB80FB88002B08D162
:102D1000FFF7C2FD0346214A1360032007F0DFFCE2
:102D200039E0FB88012B03D81D4B1B78012B02D007
:102D3000FB88013BFB8000BF1A4B1B68DB6803F07C
:102D40000403002BF8D0174B1B68DB68DAB2154B75
:102D50001B6862F49062DA60134B4FF40022DA6071
:102D6000032007F0CAFC114B5B691B0C1B04FA889B
:102D70000E4913434B61FFF78FFD0346074A13606B
:102D8000084B1B689A68074B1B6842F480629A6084
:102D9000AFF3008000BF0837BD4680BDAC440020C3
:102DA000B1440020F84600200008005800280040E8
:102DB00080B584B000AF454B9B6803F48063B3F5E6
:102DC000806F07D100BF424B1B68DB6803F0040330
:102DD000002BF8D13E4B1B689A683D4B1B6822F4D0
:102DE00080629A603B4B1B78FB73FA7B3A4913462F
:102DF0005B001344DB000B4408331B68BB60FFF728
:102E00003FFF0346FB80FB88BA689A4205D2002345
:102E1000BB81324B01221A704DE0FB88304A128888
:102E200092B213441A46BB68934206D92C4B1B88B6
:102E3000BB812A4B00221A703DE0BB689AB2FB8826
:102E4000D31ABB81254B01221A7034E0FA7B224948
:102E500013465B001344DB000B4408331A68FB88FD
:102E60009A420AD2FA7B1C4913465B001344DB00EA
:102E70000B44083300221A6013E0FA7B164913460C
:102E80005B001344DB000B4408331968FB88FA7BB2
:102E9000C91A114813465B001344DB00034408338E
:102EA0001960FA7B0C4913465B001344DB000B44AA
:102EB00015331B78FB73FB7B062BC7D1BB891846E8
:102EC000FFF71EFF00BF1037BD4680BD0028004041
:102ED000F8460020A844002018440020B0440020F8
:102EE000B644002080B58AB000AFEFF310837B6159
:102EF0007B697B6272B600BF594B1B68CA225A625B
:102F0000574B1B6853225A62554B1B689A68544BA7
:102F10001B6822F480629A60524B1B7887F823303A
:102F200097F82320504913465B001344DB000B4401
:102F30000C331B78DBB2022B6ED197F823204A4961
:102F400013465B001344DB000B441B68FB6197F8DE
:102F50002320454913465B001344DB000B44103328
:102F60001B68BB61414B1B78DBB2002B4CD097F840
:102F700023203D4913465B001344DB000B440D3313
:102F80001B78DBB2012B24D197F82330012118469E
:102F9000FFF7F2FD7B6A3B613B6983F3108800BF5A
:102FA00097F82320304913465B001344DB000B44A1
:102FB00004331A6897F823301146184600F032FAA5
:102FC000274B1B68CA225A62254B1B6853225A6240
:102FD00012E07B6AFB60FB6883F3108800BF97F800
:102FE0002330184600F09AF91D4B1B68CA225A621A
:102FF0001B4B1B6853225A6297F82330FA69194613
:10300000B86900F095FA22E0FFF7D2FE7B6ABB6058
:10301000BB6883F310881AE000BF114B1B68DB68A4
:1030200003F00403002BF8D00D4B1B68DB68DAB209
:103030000B4B1B6862F49062DA600D4B4FF4002278
:10304000DA607B6A7B607B6883F3108800BF044B87
:103050001B68FF225A6200BF2837BD4680BD00BFF3
:10306000F8460020A844002018440020B044002066
:103070000008005880B588B000AF03463960FB7186
:103080005E4B1B68CA225A625C4B1B6853225A6211
:103090005B4B9B685A4A43F020039360584B9B68F4
:1030A000DBB203F00703DBB2C3F10403DAB2554B22
:1030B0001A70534B1B6903F4FE034FF4FE023A618E
:1030C0003A6992FAA2F2FA60FA687A617A69002A99
:1030D00001D1202203E07A69B2FA82F2D2B2D3405F
:1030E000DBB20133DAB2484B1A70454B1B699BB215
:1030F000C3F30E039BB201339AB2444B1A80434B85
:103100001B88013B404A127802FB03F3A3F5A0732E
:103110003C4A1278D340BB61BB694FF6FE729342C2
:1031200004D93B4B4FF6FF721A8003E0BB699AB299
:10313000374B1A804FF40020FFF79CFB4FF4002020
:10314000FFF784FBFB79002B3DD1324B01221A7033
:10315000314B4FF0FF321A600023FB770CE0FA7F0F
:103160002E4913465B001344DB000B440C33002252
:103170001A70FB7F0133FB77FB7F052BEFD9284BC0
:1031800006221A701D4B1B689A681C4B1B6822F4A0
:1031900080629A60194B1B68DB68DAB2174B1B68B8
:1031A00062F49062DA601F4B4FF40022DA60032071
:1031B00007F0A3FA114B1B689A68104B1B6842F486
:1031C00080429A6009E00D4B1B68DB6803F4806362
:1031D000002B02D0032007F082FA084B1B68FF2265
:1031E0005A6200220321032007F037FA032007F078
:1031F0004EFA00BF2037BD4680BD00BFF846002014
:1032000000280040B1440020B2440020B444002013
:10321000B6440020B0440020AC44002018440020F4
:10322000A84400200008005880B48BB000AFF860BC
:10323000B9603B601346FB71002387F82630EFF33B
:103240001083FB61FB693B6272B600BF04E097F834
:103250002630013387F8263097F82630052B0CD816
:1032600097F826202C4913465B001344DB000B44DF
:103270000C331B78DBB2002BE9D197F82630062BF4
:1032800038D097F82620244913465B001344DB000E
:103290000B440C3301221A703B6ABB61BB6983F398
:1032A000108800BF97F826201B4913465B00134483
:1032B000DB000B441033FA681A6097F82620164991
:1032C00013465B001344DB000B440D33FA791A708C
:1032D00097F82620104913465B001344DB000B448B
:1032E0003A681A60BB6897F826201A70002387F89E
:1032F000273008E03B6A7B617B6983F3108800BF5D
:10330000012387F8273097F8273018462C37BD4619
:103310005DF8047B704700BF1844002080B586B07C
:1033200000AF0346FB71EFF31083FB60FB687B612A
:1033300072B600BF032007F0B8F9344B1B68CA22ED
:103340005A62324B1B6853225A62FA79304913464B
:103350005B001344DB000B440C331B78DBB2022B05
:1033600042D1FB7900211846FFF706FC294B1B7858
:10337000FB74FB7C062B2FD1274B9B6803F48063E7
:10338000B3F5806F07D100BF204B1B68DB6803F0EB
:103390000403002BF8D11D4B1B689A681B4B1B685C
:1033A00022F480629A6000BF184B1B68DB6803F050
:1033B0000403002BF8D0154B1B68DB68DAB2134B03
:1033C0001B6862F49062DA60144B4FF40022DA60FA
:1033D000032007F092F907E0114B1B78DBB2FA7C6F
:1033E0009A4201D0FFF7E4FC084B1B68FF225A62A7
:1033F000032007F04CF97B69BB60BB6883F310883E
:1034000000BF00BF1837BD4680BD00BFF846002092
:1034100018440020A844002000280040000800585C
:10342000A944002080B586B000AF03463960FB7127
:10343000FA793B4913465B001344DB000B440C3321
:103440001B78DBB2022B03D1FB791846FFF766FF2E
:10345000EFF31083FB60FB687B6172B600BF032053
:1034600007F023F92F4B1B68CA225A622D4B1B68A9
:1034700053225A62FA792A4913465B001344DB004F
:103480000B440C3302221A70FA79254913465B006B
:103490001344DB000B4408333A681A60FA79204978
:1034A00013465B001344DB000B4404333A681A6094
:1034B000FB791846FFF7B6FA03467B821A4B1B7856
:1034C0007B741A4B1B78DBB27A7C9A4202D0FFF7EE
:1034D0006FFC13E0FA79124913465B001344DB00DA
:1034E0000B44083319687B8AFA79C91A0C481346C9
:1034F0005B001344DB00034408331960094B1B686D
:10350000FF225A62032007F0C2F87B69BB60BB68E8
:1035100083F3108800BF00BF1837BD4680BD00BFD1
:1035200018440020F8460020A8440020A9440020A8
:1035300080B584B000AFF8600B467A60FB727B68A0
:10354000984700BF1037BD4680BD80B582B000AF40
:103550000346FB71FB79002B02D100F01BFA00E05F
:1035600000BF00BF0837BD4680BD000080B584B0F5
:1035700000AFB9607B600346FB731346BB81FB7BE6
:10358000002B0CD1084A7B681360084B084A1A606C
:10359000BB891A46B96805480AF054FB00E000BF31
:1035A00000BF1037BD4680BDB844002090450020C4
:1035B0000038014080B586B000AFB9607B6003463B
:1035C000FB731346BB810023FB750023BB75FB7B9C
:1035D000002B0ED1174A7B681360174B174A1A60ED
:1035E000BB891A46B96814480AF078FB0346FB7594
:1035F00000E000BFFB7D032B16D801A252F823F098
:1036000011360008173600081D360008233600085A
:103610000023BB7509E00123BB7506E00223BB75DF
:1036200003E00323BB7500E000BFBB7D18461837DD
:10363000BD4680BDBC4400209045002000380140BC
:1036400080B582B000AF78607B681B68104A9342F7
:103650000AD0104A934212D10F4B1B68002B10D096
:103660000D4B1B6898470CE00C4B01221A700C4B59
:103670001B68002B07D00A4B1B68984703E000BF6C
:1036800002E000BF00E000BF00BF0837BD4680BDBC
:103690000080004000380140B8440020DC42002097
:1036A000E442002080B582B000AF78607B681B6880
:1036B000104A93420AD0104A934212D10F4B1B6812
:1036C000002B10D00D4B1B6898470CE00C4B0122CF
:1036D0005A700C4B1B68002B07D00A4B1B6898478D
:1036E00003E000BF02E000BF00E000BF00BF0837FA
:1036F000BD4680BD0080004000380140BC44002031
:10370000DC420020E042002080B483B000AF78604B
:103710004FF0B043D3F8903023F018024FF0B0418F
:103720007B681343C1F8903000BF0C37BD465DF88D
:10373000047B704780B485B000AF78604FF0B04331
:103740009A6C4FF0B0417B6813438B644FF0B043E9
:103750009A6C7B681340FB60FB6800BF1437BD4662
:103760005DF8047B704780B485B000AF78604FF09F
:10377000B043DA6C4FF0B0417B681343CB644FF039
:10378000B043DA6C7B681340FB60FB6800BF143702
:10379000BD465DF8047B704780B500AF06F084FD40
:1037A000FEF7F6FB00F018F800F074F800F092F85D
:1037B00000F0AEF900F08EF900F03AF900F056F999
:1037C00000F03EF900F028FA00F098F8FEF7EEFB62
:1037D000FEF74EFEFCE7000080B59AB000AF07F19F
:1037E000200348220021184629F0CCFF3B1D00226F
:1037F0001A605A609A60DA601A615A619A6107F039
:1038000019FF0020FFF780FF214B1B6823F4C063E2
:103810001F4A43F4007313601D4B1B6803F4C0631D
:103820003B603B6847233B624FF480337B6201235C
:10383000BB624FF48073FB620123BB6440233B6394
:103840000023FB6407F12003184608F087FA0346BB
:10385000002B01D000F018FA6F237B600223BB60BD
:103860000023FB6000233B6100237B610023BB61DD
:103870000023FB613B1D0121184608F0E3FD0346D0
:10388000002B01D000F000FA00BF6837BD4680BDB4
:103890000004005880B594B000AF3B465022002190
:1038A000184629F06FFF4FF440533B604FF48043BC
:1038B0007B640223BB641023FB643B46184609F07B
:1038C000FEF90346002B01D000F0DEF900BF5037AF
:1038D000BD4680BD80B500AF064B074A1A6005485B
:1038E00007F022FE0346002B01D000F0CDF900BF07
:1038F00080BD00BFC0440020000C005880B500AF60
:10390000224B234A1A60214B4FF4E1325A601F4B7D
:1039100000229A601D4B0022DA601C4B00221A61C3
:103920001A4B0C225A61194B00229A61174B002244
:103930001A62164B00225A62144B00229A62134BF1
:1039400000225A6611480AF00AF80346002B01D0FB
:1039500000F09AF900210D480CF05CFB0346002BA7
:1039600001D000F091F9002108480CF091FB0346CA
:10397000002B01D000F088F904480CF012FB03463C
:10398000002B01D000F080F900BF80BDFC44002076
:103990000080004080B500AF234B244A1A60224BC0
:1039A0004FF4E1325A60204B00229A601E4B0022F5
:1039B000DA601D4B00221A611B4B0C225A611A4B14
:1039C00000229A61184B4FF40042DA61164B002234
:1039D0001A62154B00225A62134B00229A62124857
:1039E00009F0BDFF0346002B01D000F04DF9002186
:1039F0000D480CF00FFB0346002B01D000F044F9FA
:103A00004FF0206108480CF043FB0346002B01D027
:103A100000F03AF904480CF089FA0346002B01D073
:103A200000F032F900BF80BD904500200038014011
:103A300080B400AF00BFBD465DF8047B7047000056
:103A400080B500AF074B084A1A60064B00225A6047
:103A5000044809F0BBFB0346002B01D000F014F929
:103A600000BF80BDE44600200010005880B500AFC4
:103A7000164B174A1A60154B00225A60134B0F223F
:103A80009A60124B47F6FF72DA60104B00221A61FF
:103A90000E4B00229A610D4B0022DA610B4B002283
:103AA0005A610A4809F0C8FB0346002B01D000F018
:103AB000EBF800220021054809F0BEFC0346002B6C
:103AC00001D000F0E1F800BF80BD00BFF846002043
:103AD0000028004080B500AF0420FFF72BFE012036
:103AE000FFF728FE0220FFF725FE00220F210E20FF
:103AF00006F0B3FD0E2006F0CAFD00220F213A2089
:103B000006F0ABFD3A2006F0C2FD00BF80BD00000C
:103B100080B586B000AF3B1D00221A605A609A60E3
:103B2000DA601A610420FFF71EFE0120FFF71BFE7A
:103B30000220FFF718FE0820FFF715FE00220121E2
:103B4000324807F09DFC002201214FF0904007F021
:103B500097FC002223212E4807F092FC01237B6072
:103B60000123BB600223FB6000233B613B1D194620
:103B7000264807F0FDFA01237B600123BB60022386
:103B8000FB6000233B613B1D19464FF0904007F05E
:103B9000EFFA20237B604FF40413BB600023FB602B
:103BA0003B1D19464FF0904007F0E2FA10237B606E
:103BB0000023BB600023FB603B1D1946134807F040
:103BC000D7FA23237B600123BB600023FB60002323
:103BD0003B613B1D19460E4807F0CAFA03237B6080
:103BE0000023BB600023FB603B1D1946094807F01A
:103BF000BFFA00220121172006F02FFD172006F042
:103C000046FD00BF1837BD4680BD00BF0008004814
:103C100000040048000C004880B500AF184B194A5A
:103C20001A60174B00225A60154B00229A60144B01
:103C30004FF4E062DA60124B00221A61104B00224E
:103C40005A610F4B00229A610D4B00221A620C4BF5
:103C500000225A620A4B00229A62094B0722DA625A
:103C6000074B00221A63064B00225A63044809F0EE
:103C70009FFC0346002B01D000F006F800BF80BD7A
:103C80001C4700200030014080B500AF022006F044
:103C9000D7F900BF80BD80B400AF4FF0B043D3F878
:103CA00090304FF0B04243F40043C2F8903000BF70
:103CB000BD465DF8047B704780B485B000AF786086
:103CC0004FF0B043DA6C4FF0B0417B681343CB64E4
:103CD0004FF0B043DA6C7B681340FB60FB6800BFB9
:103CE0001437BD465DF8047B704780B485B000AFE3
:103CF00078604FF0B0431A6D4FF0B0417B681343CA
:103D00000B654FF0B0431A6D7B681340FB60FB6896
:103D100000BF1437BD465DF8047B704780B485B0A2
:103D200000AF78604FF0B0439A6D4FF0B0417B68C0
:103D300013438B654FF0B0439A6D7B681340FB6073
:103D4000FB6800BF1437BD465DF8047B704780B444
:103D500085B000AF78604FF0B043DA6D4FF0B041FE
:103D60007B681343CB654FF0B043DA6D7B6813403B
:103D7000FB60FB6800BF1437BD465DF8047B7047ED
:103D800080B485B000AF78604FF0B0431A6E4FF04A
:103D9000B0417B6813430B664FF0B0431A6E7B68EB
:103DA0001340FB60FB6800BF1437BD465DF8047B21
:103DB000704780B500AF4FF40020FFF796FF002258
:103DC00000212E2006F049FC2E2006F060FC052084
:103DD00006F038FC00BF80BD80B582B000AF7860CF
:103DE0007B681B680D4A934213D14FF48010FFF794
:103DF0007CFF002200212C2006F02FFC2C2006F056
:103E000046FC002200212D2006F027FC2D2006F084
:103E10003EFC00BF0837BD4680BD00BF000C005807
:103E200080B5A0B000AF786007F16C0300221A6083
:103E30005A609A60DA601A6107F10C03502200217F
:103E4000184629F09FFC7B681B68514A934240D179
:103E50000223FB600023BB6207F10C03184608F045
:103E60002EFF0346002B01D0FFF70EFF0120FFF7C6
:103E70006EFF0420FFF720FF0120FFF71DFF022344
:103E8000FB6602233B6700237B670023BB67082395
:103E9000FB6707F16C0319463E4807F069F90823F0
:103EA000FB6602233B6700237B670023BB67082375
:103EB000FB6707F16C0319464FF0904007F058F983
:103EC00000220021252006F0C8FB252006F0DFFB9C
:103ED0005AE07B681B68304A934255D10123FB604E
:103EE00000237B6207F10C03184608F0E8FE034646
:103EF000002B01D0FFF7C8FE4FF48040FFF740FFD2
:103F00000220FFF7D9FEC023FB6602233B67002394
:103F10007B670323BB670723FB6707F16C03194625
:103F20001E4807F025F91E4B1E4A1A601C4B0F2233
:103F30005A601B4B10229A60194B0022DA60184B12
:103F400080221A61164B00225A61154B00229A6199
:103F5000134B0022DA61124B00221A62104806F05D
:103F6000DBFB0346002B01D0FFF78EFE7B680C4A7B
:103F7000DA670B4A7B68936200220021242006F056
:103F80006CFB242006F083FB00BF8037BD4680BD5C
:103F9000008000400008004800380140000400484C
:103FA000844600204404024080B596B000AF78609B
:103FB00007F1080350220021184629F0E3FB7B6833
:103FC0001B680D4A934213D14FF40073BB604FF04E
:103FD00080533B6407F10803184608F070FE03465F
:103FE000002B01D0FFF750FE4FF48020FFF77DFE3D
:103FF00000BF5837BD4680BD0010005880B596B050
:1040000000AF786007F1080350220021184629F01C
:10401000B9FB7B681B68124A93421DD14FF40063C1
:10402000BB604FF48073BB6407F10803184608F0C7
:1040300046FE0346002B01D0FFF726FEFFF72BFEBE
:104040004FF48060FFF76AFE00220021032006F093
:1040500004FB032006F01BFB00BF5837BD4680BDA4
:104060000028004080B588B000AF786007F10C03ED
:1040700000221A605A609A60DA601A617B681B68D5
:104080001C4A934231D14FF48050FFF779FE012052
:10409000FFF712FE48F28203FB6002233B6100231C
:1040A0007B610023BB610523FB6107F10C0319460B
:1040B0004FF0904007F05CF84023FB6002233B6127
:1040C00002237B610023BB610523FB6107F10C0325
:1040D00019464FF0904007F04BF8002200212220B3
:1040E00006F0BBFA222006F0D2FA00BF2037BD4608
:1040F00080BD00BF0030014080B400AF00BFBD46AE
:104100005DF8047B7047000080B500AF022005F029
:1041100097FF024829F0E0F900BFFDE7CC12030841
:1041200080B400AF00BFFDE780B400AF00BFFDE783
:1041300080B400AF00BFFDE780B400AF00BFBD4654
:104140005DF8047B704780B400AF00BFBD465DF8EA
:10415000047B704780B400AF00BFBD465DF8047BB0
:10416000704780B500AF06F0F9F800BF80BD80B59C
:1041700000AFFEF7B7FE00BF80BD000080B500AF06
:10418000024806F0AAFC00BF80BD00BF2446002004
:1041900080B500AF024809F021FE00BF80BD00BF1E
:1041A0009045002080B500AF024809F017FE00BF1F
:1041B00080BD00BFFC44002080B500AF05F078FD55
:1041C00000BF80BD80B500AF05F0A8FD00BF80BD79
:1041D00080B500AF07F084F900BF80BD80B500AFA7
:1041E000024806F07AFC00BF80BD00BF8446002074
:1041F00080B500AF102007F05BF900BF80BD80B52F
:1042000000AF012007F054F900BF80BD80B500AFBA
:10421000022007F04DF900BF80BD000080B500AF5F
:10422000024809F069FA00BF80BD00BF1C470020AA
:1042300080B500AF202007F03BF900BF80BD80B4FF
:1042400000AF01231846BD465DF8047B704780B57A
:1042500082B000AF7860396029F02AFB034616224D
:104260001A604FF0FF3318460837BD4680BD80B551
:1042700082B000AF78604FF0FF317868FFF7E7FF5A
:1042800000BFFDE780B586B000AFF860B9607A6026
:1042900000237B610AE0AFF300800146BB685A1C33
:1042A000BA60CAB21A707B6901337B617A697B6834
:1042B0009A42F0DB7B6818461837BD4680BD80B453
:1042C00083B000AF78604FF0FF3318460C37BD461F
:1042D0005DF8047B704780B483B000AF78603960CC
:1042E0003B684FF400525A60002318460C37BD4615
:1042F0005DF8047B704780B483B000AF7860012321
:1043000018460C37BD465DF8047B704780B485B015
:1043100000AFF860B9607A60002318461437BD46D4
:104320005DF8047B7047000080B586B000AF786010
:10433000144A154BD31A7B617B693B61134B1B6895
:10434000002B02D1114B124A1A60104B1A687B687D
:1043500013443A699A4207D229F0AAFA03460C227A
:104360001A604FF0FF3309E0084B1B68FB60074BF6
:104370001A687B681344054A1360FB6818461837AF
:10438000BD4680BD000003200010000080470020D3
:10439000D085002080B400AF034B1B681846BD4693
:1043A0005DF8047B704700BF8075FF1F80B400AFCD
:1043B000034B1B68DBB21846BD465DF8047B7047B3
:1043C0008475FF1F80B400AF034B1B681B0A18469F
:1043D000BD465DF8047B70478475FF1FB0B596B08D
:1043E00004AF3A4B3C1D1D460FCD0FC40FCD0FC47B
:1043F0000FCD0FC495E8070003C4228000F080F8B9
:104400000121022015F09EFF0121022015F06AFF14
:104410002F4A00214FF4007016F0C0F83B1D1846DB
:1044200015F04AF8034687F8473097F84730002BD5
:1044300008D097F847301946264828F0E5FFFFF7DF
:1044400023FC02E0244828F0DFFF922387F846305F
:1044500000F06CF838643A6C0621002014F0FCFB84
:10446000034687F8463097F84630002B06D097F879
:1044700046301946194828F0C7FF21E0184829F0AE
:104480002BF83B6C05331B7818463B6C04331B78C8
:104490001C463B6C03331B781D463B6C02331B7878
:1044A0001A463B6C01331B7819463B6C1B78029310
:1044B000019100922B46224601460A4828F0A4FFAB
:1044C00013F0D8F800BF4837BD46B0BD201403082C
:1044D00005970108DC120308141303083C130308B2
:1044E00098130308E413030880B582B000AF786026
:1044F00078681EF029FE012318460837BD4680BDA6
:1045000080B582B000AF064B3B60064B7B603B46FC
:104510001946054815F0DAF800BF0837BD4680BDDA
:104520002800032033460008FB45000880B586B00C
:1045300000AFFFF72FFF38613B69B3F1FF3F23D096
:10454000FFF740FFB860FFF731FF78603B69DAB2F0
:10455000164B1A703B691B0ADAB2144B5A707B680F
:10456000DAB2124B9A70BB68DAB2104BDA70BB68E1
:104570001B0ADAB20D4B1A71BB681B0CDAB20B4B7B
:104580005A710A4B7B610BE0002015F071FEF86058
:10459000FB68002B02D0FB687B6101E0044B7B6170
:1045A0007B6918461837BD4680BD00BF8447002090
:1045B000D452030880B582B000AF786000214FF478
:1045C000007016F00DF800BF0837BD4680BD80B5FD
:1045D00082B000AF7860012016F06EF800BF083797
:1045E000BD4680BD80B582B000AF7860012016F076
:1045F00083F800BF0837BD4680BD80B584B000AFEA
:1046000078607B68FB60FB685B680833184613F0D2
:1046100069F80346FB72FB7A002B03D0FB6801228A
:104620001A7003E0FB6800221A7000BF1037BD4605
:1046300080BD80B584B000AF0346FB71FB79002BD1
:1046400002D0012B07D00DE040F2FF73FB60F86849
:1046500015F0F2FF06E040F2FF73FB60F86816F019
:104660000BF800BF00BF1037BD4680BD80B584B0D9
:1046700000AF78607B681B8819467B685B881A46A8
:10468000164828F0C1FE7B685B7B1946144828F069
:10469000BBFE7B685B7B002B1CD1124828F0B4FE6C
:1046A0000023FB730EE07B689B681B7819460E485D
:1046B00028F0AAFE7B689B685A1C7B689A60FB7B8B
:1046C0000133FB737B681B7BFA7B9A42EBD3074871
:1046D00028F002FF00BF1037BD4680BD5C14030800
:1046E0009C140308B0140308BC140308C414030882
:1046F00080B582B000AF78607B681B8819467B6804
:104700005B881A46064828F07FFE7B685B7B19466B
:10471000044828F079FE00BF0837BD4680BD00BFC1
:10472000C81403089C14030880B584B000AF7860F7
:104730007B681B881946174828F066FE7B689B7AC1
:104740001946154828F060FE7B689B7A002B1DD126
:10475000124828F0C1FE0023FB730EE07B685B6803
:104760001B8819460E4828F04FFE7B685B689A1C30
:104770007B685A60FB7B0133FB73FB7B9AB27B68DF
:104780001B899A42EAD3074828F0A6FE00BF1037DB
:10479000BD4680BD0C1503089C140308341503089E
:1047A000BC140308C414030880B584B000AF78605B
:1047B0007B681B8819467B685B881A46184828F076
:1047C00023FE7B685B7B1946164828F01DFE7B683C
:1047D0005B7B002B1FD1144828F016FE0023FB73CF
:1047E0000EE07B689B681B781946104828F00CFE89
:1047F0007B689B685A1C7B689A60FB7B0133FB7368
:104800007B681B7BFA7B9A42EBD3094828F064FE55
:10481000084828F061FE00BF1037BD4680BD00BFCC
:104820004C1503089C14030890150308BC140308D6
:10483000C4140308A415030880B584B000AF7860E1
:104840007B681B881946174828F0DEFD7B685B7B78
:104850001946154828F0D8FD7B685B7B002B1CD1DE
:10486000124828F0D1FD0023FB730EE07B685B68E3
:104870001B7819460E4828F0C7FD7B685B685A1CF8
:104880007B685A60FB7B0133FB737B681B7BFA7B85
:104890009A42EBD3074828F01FFE00BF1037BD46F1
:1048A00080BD00BFDC1503089C1403080C16030828
:1048B000BC140308C414030880B582B000AF78604C
:1048C0007B681B881946064828F09EFD7B685B7B49
:1048D0001946044828F098FD00BF0837BD4680BD42
:1048E000181603089C14030880B584B000AF7860E4
:1048F0007B689B791946124828F086FD114828F0FC
:10490000EBFD0023FB730EE07B681B681B881946D8
:104910000D4828F079FD7B681B689A1C7B681A603B
:10492000FB7B0133FB73FB7B9AB27B689B889A42CB
:10493000EAD3064828F0D0FD00BF1037BD4680BD41
:104940009C14030848160308BC140308C414030885
:1049500080B584B000AF78607B681B881946184822
:1049600028F052FD7B685B7B1946164828F04CFD09
:104970007B685B7B002B1FD1134828F045FD00238B
:10498000FB730EE07B685B681B7819460F4828F0C4
:104990003BFD7B685B685A1C7B685A60FB7B01337C
:1049A000FB737B681B7BFA7B9A42EBD3084828F0A9
:1049B00093FD084828F090FD00BF1037BD4680BD2C
:1049C000601603089C14030890160308BC1403081F
:1049D000C4140308A416030880B584B002AF78603D
:1049E0007B681B7819467B685A687B685B88184629
:1049F0007B681B7A00930346034828F005FD00BF3F
:104A00000837BD4680BD00BFDC16030880B584B002
:104A100002AF78607B681B7819467B685A687B68B0
:104A20005B8818467B681B7A00930346034828F08E
:104A3000EBFC00BF0837BD4680BD00BF441703082C
:104A400080B582B000AF78607B689B7A19461048C9
:104A500028F0DAFC7B68DB7A002B0AD07B681B78B5
:104A600019467B685A687B681B890A4828F0CCFC89
:104A700009E07B681B7819467B685A687B681B894C
:104A8000054828F0C1FC00BF0837BD4680BD00BF07
:104A90009C140308B01703080C18030880B582B0F3
:104AA00000AF78607B689B7A1946174828F0ACFC09
:104AB0007B68DB7A002B0AD07B681B7819467B6801
:104AC0005A687B681B89114828F09EFC17E07B68B8
:104AD0001B7B002B09D07B681B7819467B685B68C1
:104AE0001A460B4828F090FC09E07B681B781946B1
:104AF0007B685A687B681B89064828F085FC00BFE4
:104B00000837BD4680BD00BF9C1403086018030829
:104B1000C41803080C19030880B582B000AF786090
:104B20007B689B7A1946104828F06EFC7B68DB7A1C
:104B3000002B0AD07B681B7819467B685A687B6813
:104B40001B890A4828F060FC09E07B681B7819463D
:104B50007B685A687B681B89054828F055FC00BFB4
:104B60000837BD4680BD00BF9C14030864190308C4
:104B7000C419030880B582B000AF78607B685968BB
:104B80007B681B781A46074828F03EFC7B685B6808
:104B9000B3F5885F02D1786812F096FC00BF083741
:104BA000BD4680BD1C1A0308F0B589B006AF786019
:104BB0007B685B7C1946144828F026FC7B681B7BCD
:104BC0001E467B681B789C467B685A687B685B89BD
:104BD00019467B689B7B18467B68DB7B1C467B68A1
:104BE0001B7C1D467B685B7B0493039502940190BC
:104BF0000091134662463146044828F005FC00BF88
:104C00000C37BD46F0BD00BF9C140308601A0308B2
:104C100080B582B000AF0346FB71FB79012B0AD14E
:104C200000F012F8064B01221A7003F0EDFA034669
:104C30001A46044B1A8000BF0837BD4680BD00BF2E
:104C40008A470020A449002080B500AF054B002210
:104C50001A70054B00221A700CF0B4FB00231846A2
:104C600080BD00BF8A4700208B47002080B500AF81
:104C700000F004F80023184680BD000080B582B023
:104C800000AF0023FB714D4B1B78072B01D1FB7943
:104C900090E04A4B1B78002B01D1FB798AE0484B0E
:104CA0001B780F2B01D1022384E0444B1B78012B8E
:104CB0000BD1444828F0A8FB434828F0A5FB3F4B04
:104CC00002221A700CF03EFB73E03C4B1B78022B67
:104CD0001CD105F057FB38603C4B5B683A68D31A2F
:104CE000B3F5FA6F01D2FB7964E0354B1B78062BE4
:104CF00009D1374828F088FB304B03221A70304B1B
:104D000000221A7055E000F06DF852E02B4B1B7832
:104D1000032B10D12A4B1B78082B09D12D4828F0E2
:104D200073FB264B04221A70254B00221A7040E0B8
:104D300000F098F83DE0214B1B78042B10D1204B5C
:104D40001B780A2B09D1244828F05EFB1B4B052257
:104D50001A701B4B00221A702BE000F0CDF828E0EF
:104D6000164B1B78052B10D1154B1B780C2B09D13A
:104D70001A4828F049FB114B06221A70104B0022EA
:104D80001A7016E000F0C2F913E00C4B1B78062BEA
:104D90000FD10B4B1B780E2B09D1084B07221A7031
:104DA000074B00221A700E4828F096FB01E000F035
:104DB000C1FAFB7918460837BD4680BD8A470020F6
:104DC0008B470020641B0308841B0308A4490020B0
:104DD000A01B0308D01B0308141C0308581C03085D
:104DE000A41C030880B582B000AF0023FB711C4BEC
:104DF0001B78052B14D0052B2ADC002B02D0042BAA
:104E000014D025E00CF09EFA03F0FEF90346BB80B7
:104E1000BB8818460BF08CFD114B04221A701AE067
:104E20000CF0D0FA0E4B06221A7014E00CF096FA31
:104E30000346BB71BB79022B03D1094B0F221A70B9
:104E400008E0BB79012B05D1054B00221A7001E067
:104E500000BF00E000BFFB7918460837BD4680BDA3
:104E60008B47002080B584B000AF0023FB73002384
:104E7000BB8100237B8103F0BDF978601D4B1B785B
:104E8000072B16D0072B2CDC002B02D0042B16D0BE
:104E900027E00CF057FA03F0B7F903463B807A8914
:104EA000B98938887B680BF0DFFE124B04221A7038
:104EB0001AE00CF087FA0F4B08221A7014E00CF07D
:104EC0004DFA0346FB70FB78022B03D1094B0F22EE
:104ED0001A7008E0FB78012B05D1064B00221A70EE
:104EE00001E000BF00E000BFFB7B18461037BD4665
:104EF00080BD00BF8B47002080B584B000AF002389
:104F0000FB8100237B737C4B1B78092B00F2E9802B
:104F100001A252F823F000BF414F0008534F000890
:104F2000A14F0008DB4F0008BF500008E350000805
:104F3000E3500008E3500008E35000080350000865
:104F40006E4B00221A706E4B00221A706D4B0022BD
:104F50001A706A4B1B78184600F07CFD03463B73C1
:104F60003B7B002B18D0654B1B783A7B6449184675
:104F700000F01AFD03461A46634B1A60624B1B6829
:104F80004FF6FF72934203D05B4B03221A70ADE0E1
:104F9000594B02221A70A9E0574B02221A70A5E061
:104FA000564B1B78184600F069FD0346FB72FB7AEE
:104FB000002B0ED0514B1B78524A127811461846DE
:104FC00000F02EFD0346504A13604B4B03221A702B
:104FD0008CE0494B09221A7088E0484B1B78184630
:104FE0000BF0ECFD0346FB80434B04221A700CF0DF
:104FF000A9F9454B1A68F989FB8818460CF09AF80C
:1050000074E00CF0DFF93D4B1B78184600F022FDF0
:1050100003463B73394B1B78184600F02FFD0346BF
:10502000FB72374B1B783A7B9A4209D9344B1B7879
:105030000133DAB2324B1A70324B00221A700AE096
:10504000304B1B78FA7A9A4205D92E4B1B780133E4
:10505000DAB22C4B1A702A4B1B783A7B9A4203D94E
:10506000254B01221A703EE0264B1B78FA7A9A42B1
:1050700003D9214B02221A7035E0204B1B780133F3
:10508000DAB21E4B1A700BF0AFFD0346BB721B4B1E
:105090001B78BA7A9A4203D8174B0A221A7022E078
:1050A000164B1B78BA7A9A421DD9154B00221A70FA
:1050B000144B00221A70104B01221A7013E00CF0EE
:1050C0004DF903467B727B7A022B03D10A4B0F22E8
:1050D0001A700AE07B7A012B07D1074B03221A7062
:1050E00003E000BF02E000BF00E000BF7B7B18468A
:1050F0001037BD4680BD00BF8B4700208C47002085
:105100008D4700208E4700209047002080B582B058
:1051100000AF4FF44043FB8000237B717F4B1B7833
:105120000B2B00F2F18001A252F823F05D51000830
:105130006F510008AF510008E9510008E55200081E
:1051400009530008095300080953000809530008CF
:10515000095300080953000817520008704B002239
:105160001A70704B00221A706F4B00221A706C4B31
:105170001B78184600F01AFD03463B71684B1B78FC
:105180003A796849184600F0E3FC03461A46674B33
:105190001A60664B1B684FF6FF72934203D05F4B59
:1051A00003221A70B5E05D4B02221A70B1E05C4B2D
:1051B0001B78184600F062FC0346FB70FB78002B5E
:1051C0000ED0574B1B78584A12781146184600F0FB
:1051D000D3FC0346554A1360504B03221A7098E0E3
:1051E0004E4B0B221A7094E04D4B1B7818460BF077
:1051F000E5FC03461A464E4B1A800CF0A3F8474BC9
:1052000004221A704A4B1B88484A1268F9881846CB
:105210000BF0F1FE7DE00CF0D5F8414B1B78184601
:1052200000F0C4FC03463B713D4B1B78184600F070
:10523000D1FC0346FB703A4B1B7818460BF0BEFCC2
:1052400003461A463A4B1A80364B1B783A799A42F3
:1052500009D9344B1B780133DAB2324B1A70324B16
:1052600000221A700AE0304B1B78FA789A4205D96E
:105270002D4B1B780133DAB22B4B1A70294B1B785C
:105280003A799A4203D9254B01221A703EE0264B07
:105290001B78FA789A4203D9204B02221A7035E023
:1052A0001F4B1B780133DAB21D4B1A700BF09CFCBC
:1052B0000346BB701A4B1B78BA789A4203D1174B3E
:1052C0000C221A7022E0164B1B78BA789A421DD92C
:1052D000124B01221A70134B00221A70124B00223B
:1052E0001A7013E00CF03AF803467B707B78022BBF
:1052F00003D10A4B0F221A700AE07B78012B07D1E9
:10530000064B03221A7003E000BF02E000BF00E07A
:1053100000BF7B7918460837BD4680BD8B4700200B
:10532000944700209547002096470020984700208A
:105330009C47002090B58BB006AF4FF44043FB81F3
:105340000023BB810023FB720823BB7200237B7206
:1053500000233B720023FB710023BB71874B1B783A
:105360000D2B00F2008101A252F823F0A553000892
:10537000B7530008F753000831540008435500089C
:10538000675500086755000867550008675500080D
:1053900067550008675500086755000867550008FD
:1053A00075540008764B00221A70764B00221A7052
:1053B000754B00221A70724B1B78184600F0A0FB48
:1053C00003467B716E4B1B787A796E49184600F064
:1053D00069FB03461A466D4B1A606C4B1B684FF60F
:1053E000FF72934203D0654B03221A70C0E0634BF7
:1053F00002221A70BCE0624B1B78184600F03EFB9C
:1054000003463B713B79002B0ED05D4B1B785E4A07
:1054100012781146184600F059FB03465B4A1360A8
:10542000564B03221A70A3E0544B0D221A709FE0D2
:10543000534B1B7818460BF0C1FB03461A46544BDE
:105440001A800BF07FFF4D4B04221A70504B1888C6
:105450004E4B1B68FC7ABA89F9890493FB79039354
:105460003B7A02937B7A0193BB7A009323460BF03D
:1054700087FC7DE00BF0A6FF414B1B78184600F03F
:105480003FFB03467B713E4B1B78184600F04CFBFC
:1054900003463B713A4B1B7818460BF08FFB0346D3
:1054A0001A463B4B1A80374B1B787A799A4209D9B6
:1054B000344B1B780133DAB2324B1A70324B002274
:1054C0001A700AE0304B1B783A799A4205D92E4B74
:1054D0001B780133DAB22C4B1A702A4B1B787A797D
:1054E0009A4203D9254B01221A703EE0264B1B78C5
:1054F0003A799A4203D9214B02221A7035E0204BA7
:105500001B780133DAB21E4B1A700BF06DFB0346A9
:10551000FB701B4B1B78FA789A4203D1174B0E2273
:105520001A7022E0164B1B78FA789A421DD9134B59
:1055300001221A70134B00221A70134B00221A70AA
:1055400013E00BF00BFF0346BB70BB78022B03D1BB
:105550000A4B0F221A700AE0BB78012B07D1074BC8
:1055600003221A7003E000BF02E000BF00E000BFAA
:10557000BB7918461437BD4690BD00BF8B4700204D
:105580009E4700209F470020A0470020A4470020FE
:10559000A847002090B58DB006AF4FF440437B8202
:1055A00000233B820023FB730823BB7300237B7320
:1055B00000233B730023FB7200237B600023BB7539
:1055C0000023FB757EE000237B753AE01BF070FA48
:1055D00003467B80FB7D9AB27B8813447B80FA7DF7
:1055E000797D3D481346DB009B1A0B4430F813309D
:1055F0007B607B684FF6FF72934226D07B681BB2BC
:105600001A464FF6F0731340002B17D0FC7B3A8AF2
:10561000798A78887B680493FB7A03933B7B0293B7
:105620007B7B0193BB7B009323460BF0A9FB0346D6
:10563000BB75BB7D002B01D0BB7D48E07B7D01337A
:105640007B757B7D062BC1D900E000BF00233B7535
:1056500030E01BF02DFA03467B80FB7D9AB27B88FD
:1056600013447B80FA7D3B7D1C495200134451F862
:1056700023307B607B684FF6FF7293421ED0FC7B29
:105680003A8A798A78887B680493FB7A03933B7B18
:1056900002937B7B0193BB7B009323460BF070FB53
:1056A0000346BB75BB7D002B01D0BB7D0FE03B7D6E
:1056B00001333B753B7D012BCBD900E000BFFB7D67
:1056C0000133FB75FB7D002B3FF47DAFBB7D18469E
:1056D0001C37BD4690BD00BF2473002034730020EA
:1056E00080B584B000AF0023BB604FF44043FB8023
:1056F0000023BB730023FB7368E000237B732FE060
:105700001BF0D6F90346BB80FB7B9AB2BB881344DF
:10571000BB80FA7B797B31481346DB009B1A0B4434
:1057200030F81330BB60BB684FF6FF7293421BD05A
:10573000BB681BB21A464FF6F0731340002B0CD017
:10574000F988BB88BA6818460BF055FC0346BB7352
:10575000BB7B002B01D0BB7B3CE07B7B01337B73AD
:105760007B7B062BCCD900E000BF00233B7325E0F8
:105770001BF09EF90346BB80FB7B9AB2BB881344A7
:10578000BB80FA7B3B7B16495200134451F823300F
:10579000BB60BB684FF6FF72934213D0F988BB8899
:1057A000BA6818460BF027FC0346BB73BB7B002B83
:1057B00001D0BB7B0EE03B7B01333B733B7B012B7A
:1057C000D6D900E000BFFB7B0133FB73FB7B002BD2
:1057D00093D0BB7B18461037BD4680BD2473002094
:1057E0003473002080B584B000AF0023BB60002379
:1057F000FB800023BB730023FB800023FB7368E066
:1058000000237B732FE01BF053F90346BB80FB7B27
:105810009AB2BB881344BB80FA7B797B314813462C
:10582000DB009B1A0B4430F81330BB60BB684FF6AB
:10583000FF7293421BD0BB681BB21A464FF6F0733F
:105840001340002B0CD0F988BB88BA6818460BF0BF
:1058500071FC0346BB73BB7B002B01D0BB7B3CE0E0
:105860007B7B01337B737B7B062BCCD900E000BFB5
:1058700000233B7325E01BF01BF90346BB80FB7B39
:105880009AB2BB881344BB80FA7B3B7B164952001B
:10589000134451F82330BB60BB684FF6FF7293424C
:1058A00013D0F988BB88BA6818460BF043FC03464E
:1058B000BB73BB7B002B01D0BB7B0EE03B7B01337A
:1058C0003B733B7B012BD6D900E000BFFB7B013350
:1058D000FB73FB7B002B93D0BB7B18461037BD4678
:1058E00080BD00BF247300203473002080B483B0D7
:1058F00000AF0346FB71044B05221A7000BF0C3742
:10590000BD465DF8047B70478B47002080B483B0B0
:1059100000AF0346FB71044B07221A7000BF0C371F
:10592000BD465DF8047B70478B47002080B483B090
:1059300000AF0346FB71044B09221A7000BF0C37FD
:10594000BD465DF8047B70478B47002080B483B070
:1059500000AF0346FB71044B0B221A7000BF0C37DB
:10596000BD465DF8047B70478B47002080B483B050
:1059700000AF0346FB71044B0D221A7000BF0C37B9
:10598000BD465DF8047B70478B47002080B500AFB3
:10599000034827F0A1FD034B10221A7000BF80BD01
:1059A000C01C03088B47002080B485B000AF0346BD
:1059B0003960FB711346BB713B681B783B733B7BC3
:1059C0007B731BE0FA797B7B144912011A44530064
:1059D0000B44187953000B445B791B020343FB8192
:1059E000B7F90E301A464FF6F0731340002B0AD168
:1059F0004FF6FF73FB817B7B01337B737A7BBB7933
:105A00009A42DFD300E000BF3B687A7B1A70FB89C3
:105A100018461437BD465DF8047B70478449002062
:105A200080B483B000AF03460A46FB711346BB71D6
:105A3000FA79BB790649D200134406339B000B4424
:105A40005B6818460C37BD465DF8047B704700BFA5
:105A50008449002080B483B000AF0346FB71FB791A
:105A6000054A5B01134402331B7818460C37BD46C8
:105A70005DF8047B704700BF8449002080B483B088
:105A800000AF0346FB71FB79054A5B011344033306
:105A90001B7818460C37BD465DF8047B704700BF85
:105AA0008449002080B582B000AF03463960FB71A5
:105AB0001346BB71BA79FB7939681846FFF774FF52
:105AC000034618460837BD4680BD000080B483B049
:105AD00000AF03460A46FB711346BB71FA79BB79E6
