:020000040800F2
:1000000000000220511C0008710900087309000853
:100010007509000877090008790900080000000048
:100020000000000000000000000000007B09000844
:100030007D090008000000007F0900088109000810
:10004000A11C0008A11C0008A11C0008A11C00089C
:10005000A11C0008A11C0008A11C0008A11C00088C
:10006000A11C0008A11C0008A11C0008A11C00087C
:10007000A11C0008A11C0008A11C0008A11C00086C
:10008000A11C0008A11C0008A11C0008A11C00085C
:10009000A11C0008A11C0008A11C0008A11C00084C
:1000A000A11C0008A11C0008A11C0008A11C00083C
:1000B000A11C0008A11C0008A11C0008A11C00082C
:1000C000A11C0008A11C0008A11C0008A11C00081C
:1000D000A11C0008A11C0008A11C0008A11C00080C
:1000E000A11C0008A11C000800000000A11C0008C1
:1000F000A11C0008A11C0008A11C0008A11C0008EC
:10010000A11C0008A11C0008A11C0008A11C0008DB
:10011000A11C0008A11C0008A11C0008A11C0008CB
:10012000A11C0008A11C0008A11C0008A11C0008BB
:10013000A11C0008A11C0008A11C0008A11C0008AB
:1001400000000000000000000000000000000000AF
:10015000A11C0008A11C0008A11C0008A11C00088B
:10016000A11C0008A11C0008A11C0008A11C00087B
:10017000A11C0008A11C0008A11C0008A11C00086B
:10018000A11C0008A11C0008A11C0008A11C00085B
:10019000A11C0008A11C0008A11C0008A11C00084B
:1001A000A11C0008A11C0008A11C0008A11C00083B
:1001B000A11C0008A11C0008A11C0008A11C00082B
:1001C000A11C0008A11C0008A11C0008A11C00081B
:1001D000A11C0008A11C0008A11C0008A11C00080B
:1001E000A11C0008A11C0008A11C0008A11C0008FB
:1001F000A11C0008A11C0008A11C0008A11C0008EB
:10020000A11C0008A11C0008A11C0008A11C0008DA
:10021000A11C0008A11C0008A11C0008A11C0008CA
:10022000A11C0008A11C0008A11C0008000000007F
:10023000A11C0008A11C000800000000A11C00086F
:10024000A11C0008A11C0008A11C0008A11C00089A
:10025000A11C0008A11C0008A11C0008A11C00088A
:10026000A11C0008A11C0008A11C0008A11C00087A
:10027000A11C0008A11C0008A11C0008000000002F
:10028000A11C0008A11C0008A11C0008000000001F
:1002900000000000A11C000810B5054C237833B9FC
:1002A000044B13B10448AFF300800123237010BD49
:1002B0003C04002000000000081E000808B5034BA5
:1002C0001BB103490348AFF3008008BD00000000E4
:1002D00040040020081E000880B59CB0BFF34F8F7B
:1002E000BFF36F8F684B0021C3F85012BFF34F8FDD
:1002F000BFF36F8F5A6942F400325A61BFF34F8FD8
:10030000BFF36F8FC3F88410BFF34F8FD3F88020F3
:1003100043F6E076C2F3C904C2F34E32A507520198
:1003200002EA060C284621464CEA0007013900F192
:100330004040C3F860724F1CF6D1203A12F1200FF2
:10034000EED1BFF34F8F5A6942F480325A61BFF346
:100350004F8FBFF36F8F00F079FB022000F016FD86
:1003600000230093494BDA6A22F00102DA62DB6A69
:1003700003F001030093464B9A6942F440429A61AC
:100380009A6902F440420092009A9A699404FCD55A
:100390004FF480334FF0010E0520A02102220424E7
:1003A00008251692189217941995CDE909E30023B0
:1003B000CDE9140109A80C9310931B931A93CDE96E
:1003C000122201F005F800B1FEE703234FF03F0CC5
:1003D0004FF480622146CDE901C34023CDE90305F6
:1003E00001A8CDE90533CDE9072301F00DFB00B1EC
:1003F000FEE700F0BBF900B1FEE7BFF34F8FBFF39C
:100400006F8F214B5A6922F400325A61C3F85002AF
:10041000BFF34F8FBFF36F8FC3F88400BFF34F8FCD
:100420005A6922F480325A61BFF34F8FD3F880208B
:1004300043F6E076C2F3C904C2F34E32A507520177
:1004400002EA060C284621464CEA0007013900F171
:100450004040C3F874724F1CF6D1203A12F1200FBD
:10046000EED1BFF34F8FBFF36F8F0A4B00221A609C
:10047000094B0A4A1B6813604FF01042126882F35E
:1004800008889847FEE700BF00ED00E00004005830
:100490000048025810E000E00400009058040020DA
:1004A0007B4B2DE9F04FD3F8D42091B0794D09243E
:1004B00042F480420026784F0BA9C3F8D420284686
:1004C000D3F8D4204FF040084FF00A0BDFF8D0A14A
:1004D00002F480424FF400790092009ADA6F42F4FD
:1004E0008042DA67DA6F22F48042DA67D3F8E020DC
:1004F00042F02002C3F8E020D3F8E02002F020020E
:100500000192019AD3F8E02042F00802C3F8E020FB
:10051000D3F8E02002F008020292029AD3F8E02019
:1005200042F02002C3F8E020D3F8E02002F02002DD
:100530000392039AD3F8E02042F02002C3F8E020AF
:10054000D3F8E02002F020020492049AD3F8E020CD
:1005500042F02002C3F8E020D3F8E02002F02002AD
:100560000592059AD3F8E02042F04002C3F8E0205B
:10057000D3F8E02002F040020692069AD3F8E02079
:1005800042F08002C3F8E020D3F8E02002F08002BD
:100590000792079AD3F8E02042F08002C3F8E020E7
:1005A000D3F8E02002F080020892089AD3F8E02005
:1005B00042F04002C3F8E020D3F8E02002F040020D
:1005C0000992099AD3F8E02042F04002C3F8E020F3
:1005D0004FF48062D3F8E03003F040030A930A9BA3
:1005E0000223CDE90B230323CDE90D630F9400F023
:1005F000DBFA01230BA93846CDF82C800D93CDF8FA
:100600003CB000F0D1FA4FF400630BA923480B93E0
:100610000D960F9400F0C8FA04230BA950460F94CE
:100620000B9300F0C1FA0BA92846CDF82C90CDF819
:100630003CB000F0B9FA08230BA950460F940B9375
:1006400000F0B2FA80230BA928460F940B9300F018
:10065000ABFA0BA93846CDF82C9000F0A5FA0BA9FF
:100660002846CDF82C8000F09FFA4FF480430BA968
:1006700038460B9300F098FA32460F215C2000F0C8
:100680003DFA5C2000F06CFA11B0BDE8F08F00BFBD
:10069000004402580014025800180258000C025876
:1006A000001C025800B54FF4407395B04FF04072F3
:1006B00011480C9305230F920222069300230B92FC
:1006C00006A913930093049303926A46CDE90D3370
:1006D000CDE91133102302934FF48003059340F2C8
:1006E0000113019341F2883300F0D9FD003018BFA7
:1006F000012015B05DF804FB5C04002000B54FF448
:10070000407395B041F2883217480C93062306A92E
:1007100006930023CDE90D330F930B931393CDE98B
:10072000113300F0BCFCE8B940F2022302224FF47E
:10073000800104900C48CDE900331023CDE902324A
:1007400005236A46CDE905134FF0407306A90F93C0
:1007500041F2883300F0A3FD003018BF012015B02E
:100760005DF804FB0120FAE75C0400202DE9F0436A
:100770007D4C9DB07D4B2046236000F074FC074605
:1007800008B10124ECE0FFF78BFE01250323C4E947
:1007900001351023E3604FF0006393FAA3F3B3FA3B
:1007A00083F34FF440762046E761013B2361402309
:1007B000C4E90567236200F0F7FB0028E1D14FF49C
:1007C00080774FF06609099041F2883205906946BA
:1007D0000D900697CDF80090CDE90700CDE90B000C
:1007E000204600F05CFC0028CBD14FF0990841F284
:1007F000883269462046CDF8008000F050FC002881
:10080000BFD141F28832694620460696CDF8009065
:1008100000F045FC0028B4D141F2883269462046F8
:10082000CDF8008000F03BFC0028AAD135231790BA
:10083000139041F288321B900EA914970E93CDE9C4
:100840001500CDE91900204600F029FC002898D1B8
:10085000FFF728FF002894D1B723149617900E9322
:1008600013901B90CDE91500CDE91900FFF746FF65
:10087000002886D141F288320EA9204600F00FFCF4
:1008800000287FF47EAFFFF70DFF00287FF479AFDB
:1008900085234FF440764FF04075ADF800000E937D
:1008A0000223139041F288320EA914961795CDE9D0
:1008B0001500CDE91830CDE91A002B4800F0EFFB08
:1008C00000287FF45EAF41F288326946264800F086
:1008D00085FC00287FF455AFFFF710FF0446002881
:1008E0007FF44FAF812341F288320EA91E480E9348
:1008F000BDF8003023F0F0031B051B0D43F400434B
:1009000043F08003ADF8003000F0C9FB00287FF40D
:1009100038AF41F288326946134800F003FC0028E2
:100920007FF42FAFED236A460EA90F480E934FF4C4
:1009300040631B9415934FF4405314961193052371
:10094000CDE9164513934FF000454FF08043CDE9B4
:100950000044CDE9195300F0F7FC002818BF01242A
:1009600020461DB0BDE8F0835C040020005000521A
:100970007047FEE7FEE7FEE7FEE770477047704707
:1009800000F092B81849194810B5D1F8883043F4EE
:100990007003C1F88830164B1A6842F001021A60E1
:1009A00000221A611C68204018609A61DA611A629C
:1009B0009A62DA621A635A639A63DA631A645A644F
:1009C000186820F4802018601A660A4B1B681B0CFC
:1009D0001B04B3F1005F02D2074B01221A604FF0F3
:1009E00000638B6010BD00BF00ED00E07FEDF6EA14
:1009F000004402580010005C08810051704700005C
:100A000038B50F4B0546187808B9012038BD4FF4AA
:100A10007A730C4AB3FBF0F31068B0FBF3F000F00C
:100A2000ADF804460028F0D10F2DEED80246294635
:100A30004FF0FF3000F062F8034B20461D60E5E701
:100A400008000020000000200C00002010B503204A
:100A500000F042F800F03CFF0F49104A8B69C3F3E5
:100A60000323D35C03F01F03D8400D4B18608B6940
:100A700003F00F03D35C03F01F03D840094B186049
:100A80000F20FFF7BDFF044618B9FFF7B7FF204658
:100A900010BD0124FBE700BF00440258201E0008DF
:100AA0000000002004000020034A044B11681B785A
:100AB0000B441360704700BFA8040020080000200A
:100AC000014B1868704700BFA8040020014B18684C
:100AD000000C70470010005C074A0002D36800F465
:100AE000E06023F4E0631B041B0C43F0BF6343F49A
:100AF00000330343D360704700ED00E0164B70B540
:100B0000DC684FF0FF36C4F30224C4F10705231D4F
:100B1000042D28BF0425062B06FA05F38CBF033CE1
:100B20000024002821EA030303FA04F306FA04F47C
:100B300022EA040443EA04034FEA0313DBB206DBB0
:100B400000F1604000F5614080F8003370BD00F0B6
:100B50000F00024A1354F9E700ED00E014ED00E045
:100B6000002808DB4209012300F01F0003FA00F00F
:100B7000014B43F82200704700E100E00138B0F17A
:100B8000807F0AD2064BF021064A5860002082F886
:100B90002310072298601A6070470120704700BF39
:100BA00010E000E000ED00E04FF0B04C00232DE934
:100BB000F74F724EE246DFF8D0B10A6832FA03F41A
:100BC00002D103B0BDE8F08F4FF0010E0EFA03FE24
:100BD0001EEA020200F0BD804C6824F01004022CD2
:100BE00014D14FEAD30803F007090F2500EB88085A
:100BF0004FEA8909D8F8204005FA09F524EA0505E5
:100C00000C6904FA09F42C43C8F820404FEA430861
:100C10004FF003094C6809FA08F9056804F0030469
:100C20006FEA090904FA08F409EA05052C4304608F
:100C30004D6825F01005013D012D11D88468CD685F
:100C400009EA040405FA08F525438560446824EAA6
:100C50000E0E4C68C4F300149C4044EA0E04446039
:100C6000C46809EA04098C6804FA08F444EA09042F
:100C7000C4604C68E4006CD5414D03F0030E4FF0A6
:100C80000F08D5F8F4404FEA8E0E44F00204C5F880
:100C9000F440D5F8F44023F0030505F1B04504F025
:100CA000020405F580650194019C08FA0EF4D5F85C
:100CB000089029EA0408334CA0424CD004F5806423
:100CC000A0424AD004F58064A04248D0584548D09C
:100CD00004F50064A04246D004F58064A04244D0EC
:100CE00004F58064A04242D004F58064A04240D064
:100CF00004F58064A0423ED004F58064A0420CBF9D
:100D000009240A2404FA0EF444EA0804AC60D5432A
:100D10004F683468FF034CBF14432C4034604F6865
:100D20007468BF034CBF14432C4074604F68DCF8F8
:100D30000040FF024CBF14432C40CAF800404F68EB
:100D4000DAF80440BF0254BF05EA04022243CCF89B
:100D50000420013331E70024D4E70124D2E7022440
:100D6000D0E70324CEE70424CCE70524CAE7062411
:100D7000C8E70724C6E70824C4E700BF800000587E
:100D80000044025800000258000C025838B5104CBC
:100D9000E36813F0040FE36805D103F00703181AA2
:100DA00018BF012038BD23F007031843E060FFF7A8
:100DB00087FE054663689B0401D50020F2E7FFF734
:100DC0007FFE401BB0F57A7FF4D90120EAE700BF2F
:100DD000004802584B6A2DE9F04733B1B2F1406F39
:100DE00003D08B6A0468013B23618B690C6A002B7A
:100DF00067D00568002C35D08B68EB61CC694B6AF5
:100E000005688F69D1F820C0D1F83480D1F810E09E
:100E10000E68D1E90BA9A4B144EA0A04144344EAD8
:100E2000090444EA08042343CC6843EA0E0343EA76
:100E30000C0323433B434C69334343EA84436B61D4
:100E40002AE04AEA0904144344EA0804234343EA33
:100E50000E0343EA0C033B4333434E6943EA8646A1
:100E60006E612CE04E69CC69D1F80090B604D1F8DF
:100E700024804F6BD1E90BECACB11C43CB6814431D
:100E800044EA090444EA080444EA0E0444EA0C046F
:100E90003C431C4334436C61B2F1406F0FD0036894
:100EA0004A689A610BE043EA0903134343EA0803E3
:100EB00043EA0E0343EA0C033B4333436B61BDE853
:100EC000F08744B303688C68DC61CC69D1F8248076
:100ED00005688E69D1F820C04B6BD1F810E0D1E9DC
:100EE0000B796CB13C43144344EA09042343CC68B6
:100EF00043EA080343EA0E0343EA0C0323439AE759
:100F000047EA09042243134343EA080343EA0E0372
:100F100043EA0C03A0E7CD694B6A7DB12B43CD6A50
:100F2000046813432B430D6B2B434D6B2B43CD6850
:100F30002B434D6943EA85436361ADE7002BBED087
:100F4000CC6A0068234313430A6B13434A6B134371
:100F50004A6943EA82434361B1E72DE9F041069DC6
:100F600004460F461646984621688A683A4214BFDE
:100F700001220022B24201D1002011E06B1CF4D00A
:100F8000FFF79EFDA0EB0800A84201D8002DEBD191
:100F90000423012084F84130636C43F0010363644F
:100FA000BDE8F0817047000037B50446FFF788FDC3
:100FB0000546002C4FD094F84030012B4DD0012332
:100FC00084F8403094F8412002F0FF033AB984F8E5
:100FD00040302046FFF7E6FF41F28833A3642068E3
:100FE000A1680268013922F4706242EA01222021DC
:100FF00002600022A36C204600932B46FFF7ADFF52
:1010000020BB2168E569E3680A682B43256A22F062
:101010007F422B43656822F0D00243EA0563134305
:101020000B602168D4E905324D681343226943EA15
:1010300002430B4A2A4013434B602268136843F073
:10104000010313600123606484F84130002384F8B5
:10105000403003B030BD0120FBE70220F9E700BFBC
:10106000FEF8E0FF704710B50446A0B190F840309C
:10107000012B12D00268012380F84030136823F05E
:1010800001031360FFF7EEFF0020606484F8410065
:1010900084F8400010BD0120FCE70220FAE72DE9AA
:1010A000F34704468A469146FFF70AFD94F840301C
:1010B0008046012B34D00123022784F8403094F875
:1010C0004160F6B29E4229D100220346CDF800903D
:1010D00020216264204684F84170FFF73EFF0546F8
:1010E000A8B9024651462046FFF774FEDAF82430CC
:1010F0005BB9CDF800904346324639462046FFF7AB
:101100002CFF054618B92368DF6084F8416000238E
:1011100084F84030284602B0BDE8F0873D46F6E747
:101120000225F7E72DE9F341044688461746FFF705
:10113000C7FC94F840300646012B4DD001232568AA
:1011400084F8403094F84100C0B2984242D1002364
:101150006364B8F1000F38D0122384F841302B6952
:101160000133E3622B69C4F824800133A3626B6905
:1011700023F040636B61E36A9BB900973346012219
:1011800002212046FFF7E9FE10B923680222DA6047
:10119000012384F84130002384F8403002B0BDE8D8
:1011A000F08100973346012204212046FFF7D5FE47
:1011B0000028EDD1636A1B7885F82030636A01331B
:1011C0006362E36A013BE362D5E7636C43F00803C3
:1011D0006364E0E70220DEE70220DFE72DE9F34168
:1011E000044617468846FFF76BFC25680646AA6941
:1011F00094F84030012B50D0012384F8403094F80B
:101200004100C0B2984246D100236364B8F1000F98
:101210003CD0222384F841302B690133A3632B692E
:10122000C4F83080013363636B6923F0406343F09B
:1012300080636B6123689A61A36B9BB90097334607
:10124000012202212046FFF788FE10B923680222FE
:10125000DA60012384F84130002384F8403002B082
:10126000BDE8F08100973346012206212046FFF7B2
:1012700074FE0028EDD195F82020236B1A70236BA3
:1012800001332363A36B013BA363D5E7636C43F096
:1012900008036364E0E70220DEE70220DFE72DE9D0
:1012A000F7430446984689461646FFF709FC94F82A
:1012B00040300746012B45D0012384F8403094F894
:1012C0004150EDB29D423BD142230022CDF8008037
:1012D0002021626484F8413003462046FFF73DFE3A
:1012E00040BB2368204632689A62236872685A625B
:1012F0002368B268DA62216833690A6843F48003BC
:1013000022F4400213434FF000620B604946F36839
:10131000C9F82830FFF75EFDCDF800803B462A462D
:1013200008212046FFF719FE20B923680822DA6059
:1013300084F84150002384F8403003B0BDE8F083C6
:101340000220F7E70220F8E7F7B5044617460E46F5
:10135000FFF7B6FB94F840200346012A36D001225D
:1013600084F8402094F84120012A2DD100228221C6
:101370002046626484F84110A16C00912021FFF79F
:10138000ECFD0546D0B922687968136823F008039C
:101390000B4313607B68082B0AD123683A681A63F1
:1013A00010222368DA602268136843F48013136004
:1013B0004FF0406231462046FFF70CFD002384F8D1
:1013C0004030284603B0F0BD0225F7E70225F8E7D4
:1013D000F8B5044608B9012090E00368DD075ED443
:1013E0002368980700F1AC802368DA0623D5AB4B5D
:1013F0001A69996A02F03802082A07D0182A40F0C0
:10140000008101F00302012A40F0FB801B68DB052C
:1014100002D5E369802BDED1FFF758FB41F20303CD
:101420009E4A9842216A00F2E580536823F0F8430F
:1014300043EA816353602368190700F11B81236825
:101440009A0600F1408123685D0722D5944D2B68F0
:1014500043F480732B60FFF733FB06462B68DA05F5
:1014600040F15681A2688D4B012A40F058811A6FD5
:1014700042F001021A67A368002B00F06781FFF7B2
:101480001FFB864D064641F288372B6F9B0740F1C4
:101490005681606A002840F0698100202EE07F4B71
:1014A0001A69996A02F03802102A05D0182A0AD15E
:1014B00001F00302022A06D11B68990390D56368E4
:1014C000002B8DD187E76268744BB2F5803F16D14F
:1014D0001A6842F480321A6063680BB3FFF7F0FABF
:1014E0006E4D064641F288372B689A033FF578AF78
:1014F000FFF7E6FA801BB842F6D90320F8BD3AB9E7
:101500001A6822F480321A601A6822F48022E2E714
:10151000B2F5A02F1A68F4D142F480221A60D7E7FE
:10152000FFF7CEFA5D4D064641F288372B689B03E4
:101530007FF556AFFFF7C4FA801BB842F6D9DCE757
:10154000564B1A69996A12F0380203D0182A1BD137
:101550008E0719D11B685D0703D5E368002B3FF4A4
:101560003AAFFFF7B3FA41F203034C4A98422169BC
:10157000536895BF23F47C3323F0FE4343EA0133E1
:1015800043EA016353602FE7444DE2682B680AB3D6
:1015900023F0190313432B60FFF792FA06462B68DA
:1015A000580711D5FFF792FA41F2030322699842D6
:1015B0006B6895BF23F47C3323F0FE4343EA023388
:1015C00043EA02636B600FE7FFF77AFA801B022899
:1015D000E5D992E723F001032B60FFF771FA064685
:1015E0002B6859077FF500AFFFF76AFA801B0228C6
:1015F000F6D982E7D36823F07C5343EA0163D360D2
:1016000019E7E369254D23B32B6843F080032B6072
:10161000FFF756FA06462B68DF050DD5FFF756FA99
:1016200041F20303226A98420CD86B6823F0F84316
:1016300043EA82636B60FEE6FFF742FA801B0228F2
:10164000E9D95AE7EB6823F07C5343EA0263EB6085
:10165000F1E62B6823F080032B60FFF731FA064692
:101660002B68D8057FF5E7AEFFF72AFA801B022822
:10167000F6D942E76369094DA3B16B6F43F00103EB
:101680006B67FFF71DFA06466B6F9B073FF5D7AEFA
:10169000FFF716FA801B0228F6D92EE700440258FD
:1016A000004802586B6F23F001036B67FFF708FADD
:1016B00006466B6F9F077FF5C2AEFFF701FA801BEE
:1016C0000228F6D919E7A369804D83B12B6843F44A
:1016D00080532B60FFF7F4F906462B6898043FF51A
:1016E000B2AEFFF7EDF9801B0228F6D905E72B68AB
:1016F00023F480532B60FFF7E3F906462B68990427
:101700007FF5A1AEFFF7DCF9801B0228F6D9F4E6DD
:10171000FFF7D6F9801B64287FF6A0AEEDE63AB954
:101720001A6F22F001021A671A6F22F00402A1E672
:10173000052A1A6FF5D142F004021A6797E6FFF7FF
:10174000BFF9801BB8427FF6A0AED6E6FFF7B8F926
:101750005E4D064641F288372B6F98077FF599AEAC
:10176000FFF7AEF9801BB842F6D9C6E6574D2B6994
:1017700003F03803182B7AD02B68022823F08073EB
:101780002B6067D1FFF79CF906462B6899015BD463
:10179000AB6AA26A23F47C7323F003031343E26A67
:1017A00043EA0213AB62636BA26B013B013A5B023B
:1017B00012049BB202F4FE021343226B013AC2F3FD
:1017C00008021343E26B013A120602F0FE42134391
:1017D0002B63EB6A23F00103EB626B6BA26C23F4C7
:1017E0007F4323F0F80343EAC2036B63EB6A226C86
:1017F00023F00C031343EB62EB6A626C23F00203E9
:10180000324C1343EB62EB6A43F48033EB62EB6AD6
:1018100043F40033EB62EB6A43F48023EB62EB6A40
:1018200043F00103EB622B6843F080732B60FFF7FA
:1018300047F9054623689A013FF52FAEFFF740F9B7
:10184000401B0228F6D958E6FFF73AF9801B022818
:101850009BD952E6FFF734F904462B689B017FF5CC
:101860001CAEFFF72DF9001B0228F6D945E601282A
:10187000AA6A2B6B3FF442AE02F00301A06A8142D8
:101880007FF4A9ADC2F30512E16A8A427FF4A3ADE9
:10189000226BC3F30801013A91427FF49CAD626B65
:1018A000C3F34621013A91427FF495ADA26BC3F395
:1018B0000641013A91427FF48EADE06BC3F30663BB
:1018C0000138181A18BF012018E600BF004402585A
:1018D000464B10B51A6902F03802102A00F08480D5
:1018E000182A0CD00AB1424810BD1A68414812F0BB
:1018F000200FF9D01B68C3F3C103D840F4E7996AFD
:10190000986ADA6AC0F305105C6B0028ECD007EE29
:10191000900A02F00102C4F3CC00B7EE006AF8EEC0
:10192000E76A424307EE902A01F00302012AFAEE29
:10193000E97A02D00FD3022A48D01B6BC3F3080305
:1019400007EE103AB8EEC77A77EE277A77EE867A06
:101950009FED296A37E01A68920627D51968254A4B
:10196000C1F3C1011B6BCA40C3F3080307EE102A81
:10197000F8EEC75A85EEA67A06EE903AF8EEE66AD9
:1019800076EEA77A77EE867A184B67EE877A1B6B2E
:10199000C3F34623013307EE103AF8EEC76A87EE29
:1019A000A67AFCEEC77A17EE900A9DE71B6BC3F38D
:1019B000080307EE103AB8EEC77A77EE277A77EE8B
:1019C000867A9FED0E6A86EE267ADDE71B6BC3F3FF
:1019D000080307EE103AB8EEC77A77EE277A77EE6B
:1019E000867A9FED076AEEE706487DE700440258D5
:1019F00000093D000090D0030024744A0024744C78
:101A000020BCBE4B40787D012DE9F0410D460446D7
:101A100010B90120BDE8F081884A136803F00F0374
:101A20008B42C0F0928023685E0700F19A802368A1
:101A300018070BD5824A6069D16901F070018842AC
:101A400004D9D36923F070030343D3612368D90613
:101A50000BD57B4AA069D16901F4E061884204D9C1
:101A6000D36923F4E0630343D36123689A060BD55B
:101A7000734AE069116A01F07001884204D9136A5F
:101A800023F070030343136223689B070BD56C4A52
:101A9000E068916901F00F01884204D9936923F04D
:101AA0000F03034393612368DF0768D423689E070D
:101AB00000F19B80614A136803F00F03AB4200F210
:101AC000A2802368580700F1AA80236819070BD564
:101AD0005B4A6069D16901F07001884204D2D36920
:101AE00023F070030343D3612368DA060BD5544A0D
:101AF000A069D16901F4E061884204D2D36923F47A
:101B0000E0630343D36123689B060BD54C4AE0692D
:101B1000116A01F07001884204D2136A23F0700345
:101B200003431362FFF7D4FE454B464A9B69C3F358
:101B30000323D35C03F01F03D840434B1860434B8F
:101B4000BDE8F0411868FEF75BBF136823F00F0390
:101B50000B431360136803F00F038B427FF459AFFC
:101B600061E7374A2069916901F0700188427FF688
:101B70005EAF936923F070030343936157E7304BE3
:101B8000A1689A6922F470620A439A6161681A68CE
:101B900002291DD112F4003F3FF43BAF1A6941F214
:101BA0008838274E22F007020A431A61FEF788FFA1
:101BB00007463369626803F03803B3EBC20F3FF4A2
:101BC00075AFFEF77DFFC01B4045F2D9032021E72A
:101BD000032902D112F0007FDEE7012902D112F4BD
:101BE000807FD9E712F0040FD6E7154AE0689169C3
:101BF00001F00F018842BFF45DAF936923F00F033A
:101C00000343936156E7136823F00F032B431360DC
:101C1000136803F00F03AB427FF4FBAE51E7084AB1
:101C20002069916901F070018842BFF44EAF936959
:101C300023F070030343936147E700BF0020005285
:101C400000440258201E0008000000200C00002064
:101C5000DFF834D0002103E00C4B5B5843500431D3
:101C60000B480C4B42189A42F6D30B4A02E0002371
:101C700042F8043B094B9A42F9D3FEF783FE00F089
:101C800011F8FEF729FB704700000220401E0008F3
:101C9000000000203C0400203C040020D004002070
:101CA000FEE7000070B50D4E0D4D761BB61006D048
:101CB0000024013455F8043B9847A642F9D1094E57
:101CC000094D761B00F0A0F8B61006D000240134B0
:101CD00055F8043B9847A642F9D170BD341E000860
:101CE000341E00083C1E0008341E0008024B13B1CD
:101CF000024800F005B87047000000000D1D000804
:101D0000002301461A46184600F01EB838B50A4CA2
:101D10000A4D641BA4100AD004F18043013B05EB7B
:101D20008305013C55F804399847002CF9D1BDE8EA
:101D3000384000F06FB800BF401E00083C1E00088D
:101D4000704700BF704700BF2DE9F8432B4D064692
:101D5000286898460F469146FFF7F2FF284B1C680B
:101D6000D4F84831002B3DD05A681F2A0DDC02F10F
:101D7000010C16BB0232C3F804C0286843F8227075
:101D8000FFF7E0FF0020BDE8F8831E4B7BB34FF464
:101D9000C870AFF30080034648B3D4F8482100214F
:101DA000C0E900214FF0010CC4F848010A46C0F810
:101DB0008811C0F88C11002EDCD003EB82010124C5
:101DC000C1F88890D3F8880194402043022EC3F8CC
:101DD0008801C1F80881CDD1D3F88C110C43C3F828
:101DE0008C41C7E704F5A673C4F84831BCE72868FE
:101DF000FFF7A8FF4FF0FF30C5E700BF3804002011
:101E0000301E000800000000F8B500BFF8BC08BC98
:101E10009E467047F8B500BFF8BC08BC9E467047A8
:101E20000000000001020304010203040607080980
:101E300010000020ED1C0008BD02000899020008F7
:101E40000090D0030090D0030100000010000000BB
:101E500000000000FC02002064030020CC030020EE
:101E60000000000000000000000000000000000072
:101E70000000000000000000000000000000000062
:101E80000000000000000000000000000000000052
:101E90000000000000000000000000000000000042
:101EA0000000000000000000000000000000000032
:101EB0000000000000000000000000000000000022
:101EC0000000000000000000000000000000000012
:101ED0000000000000000000000000000000000002
:101EE00000000000000000000000000000000000F2
:101EF00000000000000000000100000000000000E1
:101F00000E33CDAB34126DE6ECDE05000B000000A5
:101F100000000000000000000000000000000000C1
:101F200000000000000000000000000000000000B1
:101F300000000000000000000000000000000000A1
:101F40000000000000000000000000000000000091
:0C2270000000000000000000AC04002092
:0200000490006A
:1000000000000824990A0090017B00900F7B00906B
:10001000177B00901F7B0090277B00900000000062
:10002000000000000000000000000000B1EB0190A3
:100030002F7B00900000000001EE0190C1DD0190D7
:10004000E90A0090E90A0090E90A0090E90A0090A4
:10005000E90A0090E90A0090E90A0090E90A009094
:10006000E90A0090E90A0090E90A0090E90A009084
:10007000E90A0090E90A0090E90A0090E90A009074
:10008000E90A0090E90A0090E90A0090E90A009064
:10009000E90A0090E90A0090E90A0090E90A009054
:1000A000E90A0090E90A0090E90A0090E90A009044
:1000B0003D7B0090E90A0090E90A0090E90A00906F
:1000C000E90A0090E90A0090E90A0090E90A009024
:1000D000E90A0090517B0090E90A0090E90A00903B
:1000E000657B0090E90A009000000000E90A00909A
:1000F000E90A0090E90A0090E90A0090E90A0090F4
:10010000E90A0090E90A0090E90A0090E90A0090E3
:10011000E90A0090E90A0090757B0090E90A0090D6
:10012000E90A0090E90A0090E90A0090E90A0090C3
:10013000E90A0090E90A0090E90A0090E90A0090B3
:1001400000000000000000000000000000000000AF
:10015000E90A0090E90A0090E90A0090E90A009093
:10016000E90A0090E90A0090E90A0090E90A009083
:10017000E90A0090E90A0090E90A0090E90A009073
:10018000E90A0090E90A0090E90A0090E90A009063
:10019000E90A0090E90A0090E90A0090E90A009053
:1001A000897B0090E90A00909D7B0090E90A00900D
:1001B000E90A0090E90A0090E90A0090E90A009033
:1001C000E90A0090E90A0090E90A0090E90A009023
:1001D000E90A0090E90A0090E90A0090E90A009013
:1001E000E90A0090E90A0090E90A0090E90A009003
:1001F000E90A0090E90A0090E90A0090E90A0090F3
:10020000E90A0090E90A0090E90A0090E90A0090E2
:10021000E90A0090E90A0090E90A0090E90A0090D2
:10022000E90A0090B17B0090C57B009000000000BF
:10023000E90A0090E90A009000000000E90A009035
:10024000E90A0090E90A0090E90A0090E90A0090A2
:10025000E90A0090E90A0090E90A0090E90A009092
:10026000E90A0090E90A0090E90A0090E90A009082
:10027000E90A0090E90A0090E90A009000000000F5
:10028000E90A0090E90A0090E90A009000000000E5
:0802900000000000E90A0090E3
:1002A00010B5054C237833B9044B13B10448AFF3B0
:1002B00000800123237010BD7C0400240000000096
:1002C00070DE039008B5034B1BB103490348AFF33D
:1002D000008008BD000000008004002470DE039050
:1002E000034613F8012B002AFBD1181A0138704776
:1002F00001F0FF01102A2BDB10F0070F08D010F8D7
:10030000013B013A8B422DD010F0070F42B3F6D1DA
:10031000F0B441EA012141EA014122F007047FF0F3
:1003200000070023F0E80256083C85EA010586EA4A
:10033000010685FA47F5A3FA87F586FA47F6A5FA86
:1003400087F68EB9EED1F0BC01F0FF0102F0070292
:1003500032B110F8013B013A83EA010313B1F8D13D
:100360000020704701387047002D06BF354603381E
:10037000073815F0010F07D1013015F4807F02BF57
:10038000013015F4C03F0130F0BC0138704700BFA8
:1003900081F0004102E000BF83F0004330B54FEA36
:1003A00041044FEA430594EA050F08BF90EA020FA3
:1003B0001FBF54EA000C55EA020C7FEA645C7FEA36
:1003C000655C00F0E2804FEA5454D4EB5555B8BF59
:1003D0006D420CDD2C4480EA020281EA030382EACA
:1003E000000083EA010180EA020281EA0303362D5C
:1003F00088BF30BD11F0004F4FEA01314FF4801C2F
:100400004CEA113102D0404261EB410113F0004F40
:100410004FEA03334CEA133302D0524263EB4303F7
:1004200094EA050F00F0A780A4F10104D5F1200E95
:100430000DDB02FA0EFC22FA05F2801841F10001F0
:1004400003FA0EF2801843FA05F359410EE0A5F1C4
:1004500020050EF1200E012A03FA0EFC28BF4CF0F5
:10046000020C43FA05F3C01851EBE37101F00045AB
:1004700007D54FF0000EDCF1000C7EEB00006EEBB8
:100480000101B1F5801F1BD3B1F5001F0CD3490842
:100490005FEA30004FEA3C0C04F101044FEA445299
:1004A00012F5800F80F09A80BCF1004F08BF5FEA20
:1004B000500C50F1000041EB045141EA050130BD00
:1004C0005FEA4C0C404141EB0101013C28BFB1F512
:1004D000801FE9D291F0000F04BF01460020B1FA5D
:1004E00081F308BF2033A3F10B03B3F120020CDA30
:1004F0000C3208DD02F1140CC2F10C0201FA0CF00E
:1005000021FA02F10CE002F11402D8BFC2F1200C72
:1005100001FA02F120FA0CFCDCBF41EA0C01904028
:10052000E41AA2BF01EB0451294330BD6FEA040471
:100530001F3C1CDA0C340EDC04F11404C4F120025C
:1005400020FA04F001FA02F340EA030021FA04F36E
:1005500045EA030130BDC4F10C04C4F1200220FAC5
:1005600002F001FA04F340EA0300294630BD21FA03
:1005700004F0294630BD94F0000F83F4801306BFC9
:1005800081F480110134013D4EE77FEA645C18BFBD
:100590007FEA655C29D094EA050F08BF90EA020F54
:1005A00005D054EA000C04BF1946104630BD91EA4C
:1005B000030F1EBF0021002030BD5FEA545C05D14F
:1005C0004000494128BF41F0004130BD14F580048E
:1005D0003CBF01F5801130BD01F0004545F0FE4102
:1005E00041F470014FF0000030BD7FEA645C1ABF37
:1005F000194610467FEA655C1CBF0B46024650EA6E
:10060000013406BF52EA033591EA030F41F4002199
:1006100030BD00BF90F0000F04BF0021704730B51F
:100620004FF4806404F132044FF000054FF00001F4
:1006300050E700BF90F0000F04BF0021704730B5B5
:100640004FF4806404F1320410F0004548BF40428A
:100650004FF000013EE700BF42004FEAE2014FEADF
:1006600031014FEA02701FBF12F07F4393F07F4FBA
:1006700081F06051704732F07F4208BF704793F0BD
:100680007F4F04BF41F40021704730B54FF46074D0
:1006900001F0004521F000411CE700BF50EA0102D3
:1006A00008BF704730B54FF000050AE050EA01027C
:1006B00008BF704730B511F0004502D5404261EBEC
:1006C00041014FF4806404F132045FEA915C3FF42D
:1006D000D8AE4FF003025FEADC0C18BF03325FEACA
:1006E000DC0C18BF033202EBDC02C2F1200300FA7B
:1006F00003FC20FA02F001FA03FE40EA0E0021FAA0
:1007000002F11444BDE600BF7BB972B90029BEBF37
:1007100000204FF0004106E008BF00281CBF6FF02A
:1007200000414FF0FF3000F0B5B9ADF1080C6DE9B4
:1007300004CE002909DB002B1ADB00F04DF8DDF8B0
:1007400004E0DDE9022304B07047404261EB41015F
:10075000002B1BDB00F040F8DDF804E0DDE90223AC
:1007600004B0404261EB4101524263EB43037047E6
:10077000524263EB430300F02FF8DDF804E0DDE9BB
:10078000022304B0404261EB41017047524263EBE7
:10079000430300F021F8DDF804E0DDE9022304B0B2
:1007A000524263EB4303704753B94AB9002908BF6B
:1007B00000281CBF4FF0FF314FF0FF3000F06AB946
:1007C000ADF1080C6DE904CE00F006F8DDF804E0A8
:1007D000DDE9022304B070472DE9F047089D0C467F
:1007E000002B4ED194468C458646B2FA82F262D9ED
:1007F0004AB1C2F12003914020FA03F30CFA02FC43
:10080000194300FA02FE4FEA1C471FFA8CF6B1FBAF
:10081000F7F44FEA1E4307FB141143EA014304FBBC
:1008200006F199420AD91CEB030304F1FF3080F072
:100830001281994240F20F81023C6344591A1FFA17
:100840008EF3B1FBF7F007FB101143EA014300FB05
:1008500006F69E420AD91CEB030300F1FF3180F03B
:10086000FC809E4240F2F980634402389B1B40EAC0
:10087000044000211DB1D3400022C5E90032BDE88B
:10088000F0878B4205D90DB1C5E90001002108466A
:10089000F5E7B3FA83F1002946D1A34202D390428F
:1008A000C0F0F080861A64EB03030120002DE6D02F
:1008B000C5E90063E3E7002A40F09080A1EB0C0457
:1008C0004FEA1C481FFA8CF70121B4FBF8F64FEAF7
:1008D0001E4308FB164443EA044307FB06F0984214
:1008E00008D91CEB030306F1FF3402D2984200F250
:1008F000CD8026461C1A1FFA8EF3B4FBF8F008FBD5
:10090000104443EA044300FB07F79F4208D91CEB5D
:10091000030300F1FF3402D29F4200F2B080204670
:10092000DB1B40EA0640A5E7C1F120068B4022FA16
:1009300006F71F4320FA06FC04FA01F343EA0C030E
:10094000F44000FA01F8380C4FEA1349B4FBF0FE0A
:100950001FFA87FC00FB1E4449EA04440EFB0CF915
:10096000A14502FA01F20AD93C190EF1FF3A80F0D2
:100970008480A14540F28180AEF1020E3C44A4EB9C
:1009800009041FFA83F9B4FBF0F300FB134449EAAE
:10099000044403FB0CFCA44507D93C1903F1FF30C8
:1009A00067D2A44565D9023B3C4443EA0E40A0FB14
:1009B0000293A4EB0C049C42CE469C4651D34ED0ED
:1009C00055B1B8EB0E0364EB0C0404FA06F6CB4009
:1009D0001E43CC40C5E90064002150E7C2F120036A
:1009E00020FA03F10CFA02FC24FA03F394400C43BE
:1009F0004FEA1C4800FA02FE1FFA8CF7B3FBF8F02E
:100A000008FB1031230C43EA014300FB07F1994234
:100A100008D91CEB030300F1FF362CD299422AD9E6
:100A2000023863445B1AA4B2B3FBF8F108FB11333C
:100A300044EA034401FB07F3A34208D91CEB040476
:100A400001F1FF3613D2A34211D902396444E41AEA
:100A500041EA004139E70446F0E6084606E7C845A2
:100A6000AED2B9EB020E63EB070C0138A8E73146B2
:100A7000EDE7034699E73046D4E7D6467FE763447F
:100A800002384DE70646234608460FE7023E634418
:100A900030E700BF704700BFDFF834D0002103E02B
:100AA0000C4B5B58435004310B480C4B42189A4294
:100AB000F6D30B4A02E0002342F8043B094B9A426A
:100AC000F9D311F087F83BF0D5FE05F09DFC704797
:100AD000000008244C350490000000247C0400240D
:100AE0007C0400247C550224FEE780B400AF00BFE4
:100AF000BD465DF8047B704780B400AF00BFBD46C3
:100B00005DF8047B704780B500AF03F05BFC03F039
:100B100027FC00BF80BD80B582B000AF786003F0D5
:100B200059FC00BF0837BD4680BD000080B483B0CB
:100B300000AF7860044A7B681A607B6818460C37FF
:100B4000BD465DF8047B70470C05049080B582B00B
:100B500000AF78607868FFF7E9FF0C2178683AF019
:100B6000CCFE7B6818460837BD4680BD80B584B092
:100B700000AF78600B46FB70FB78002B11D07B68D0
:100B80001B6810331B687868984702467B689B682F
:100B9000D31AFB607B685A68FB681A447B685A600A
:100BA00008E07B681B6810331B687868984702462A
:100BB0007B689A6000BF1037BD4680BD80B483B0AB
:100BC00000AF78607B685B6818460C37BD465DF8FF
:100BD000047B704780B483B000AF786039607B6875
:100BE0003A685A6000BF0C37BD465DF8047B704719
:100BF00080B483B000AF78600B4B1B680A4A43F0A7
:100C000080731360094B1A680849094B13430B6042
:100C1000084B1B68074A43F00103136000BF0C3701
:100C2000BD465DF8047B7047FCED00E0B01F00E0BE
:100C300055CEACC5001000E080B485B000AFF860C0
:100C4000B9607A603B607A68BB68D21A3B685B081F
:100C50001A443B68B2FBF3F318461437BD465DF8FF
:100C6000047B704780B483B000AF7860034B1B688F
:100C700018460C37BD465DF8047B7047041000E051
:100C800080B584B000AF78600B46FB70FB78002B1A
:100C900011D07B681B6810331B6878689847024640
:100CA0007B689B68D31AFB607B685A68FB681A44B0
:100CB0007B685A6008E07B681B6810331B687868A3
:100CC000984702467B689A6000BF1037BD4680BDDA
:100CD00080B582B000AF7860054A7B681A607B6897
:100CE0001846FFF723FF7B6818460837BD4680BDCE
:100CF000E404049080B582B000AF78607868FFF7B4
:100D0000E7FF0C2178683AF0F8FD7B681846083751
:100D1000BD4680BD80B483B000AF7860044A7B6874
:100D20001A607B6818460C37BD465DF8047B704737
:100D30004C05049080B582B000AF78607868FFF70A
:100D4000E9FF042178683AF0D8FD7B681846083737
:100D5000BD4680BD80B586B000AF786008233B619A
:100D600000237B614FF4F073BB604FF48873FB602A
:100D700007F108031946002010F00EFD00BF1837D8
:100D8000BD4680BD80B588B000AFF860B9607A60BC
:100D900007F1140300221A605A609A6007F11403E5
:100DA0001946002010F09EFD7B69002B09D0BB691D
:100DB0001A46BB681A60FB691A467B681A600123F1
:100DC00000E0002318462037BD4680BD80B582B0C4
:100DD00000AF7860054A7B681A607B681846FFF7A9
:100DE00099FF7B6818460837BD4680BD34050490DE
:100DF00080B582B000AF78607868FFF7E7FF042124
:100E000078683AF07AFD7B6818460837BD4680BDA1
:100E100080B582B000AF00237B600FE07B68DBB25F
:100E2000184600F0DFF80346002B04D0074A7B6821
:100E3000012142F823107B6801337B607B68042B1F
:100E4000ECDD00BF00BF0837BD4680BD980400241C
:100E500080B582B000AF0346FB71FB79032B39D814
:100E600001A252F823F000BF790E0090D30E00903B
:100E7000970E0090B50E0090FB79184A52F8233077
:100E8000002B0CBF01230023DBB21A4608211448B3
:100E900012F068FC1EE0FB79104A52F82330002B58
:100EA0000CBF01230023DBB21A4640210D4812F08B
:100EB00059FC0FE0FB79094A52F82330002B0CBF94
:100EC00001230023DBB21A464021074812F04AFCF6
:100ED00000E000BF00BF0837BD4680BD9804002475
:100EE00000180258000402580000025880B582B071
:100EF00000AF0346FB71FB79032B39D801A252F8EE
:100F000023F000BF150F00906F0F0090330F00907B
:100F1000510F0090FB79184A52F82330002B01D072
:100F2000012300E000231A460821144812F01AFC9D
:100F30001EE0FB79104A52F82330002B01D0012328
:100F400000E000231A4640210D4812F00BFC0FE090
:100F5000FB79094A52F82330002B01D0012300E02D
:100F600000231A464021074812F0FCFB00E000BFB6
:100F700000BF0837BD4680BD980400240018025801
:100F8000000402580000025880B582B000AF03464A
:100F9000FB71FB79032B1BD801A252F823F000BF91
:100FA000B10F0090CF0F0090BB0F0090C50F0090C5
:100FB0000821094812F0EFFB0AE04021074812F02F
:100FC000EAFB05E04021064812F0E5FB00E000BF27
:100FD00000BF0837BD4680BD001802580004025803
:100FE0000000025880B584B000AF0346FB710023B7
:100FF000FB73FB79032B20D801A252F823F000BF2A
:10100000111000903B1000901F1000902D100090C8
:1010100008210F4812F08EFB0346FB730DE04021C0
:101020000C4812F087FB0346FB7306E040210A4898
:1010300012F080FB0346FB7300BFFB7B012B0CBF50
:1010400001230023DBB218461037BD4680BD00BF28
:1010500000180258000402580000025880B483B0FF
:1010600000AF7860044A7B681A607B6818460C37CA
:10107000BD465DF8047B7047D023049080B582B0F4
:1010800000AF78607868FFF7E9FF7C2178683AF074
:1010900034FC7B6818460837BD4680BD80B400AF7D
:1010A000034B1B681846BD465DF8047B704700BFC4
:1010B0004449022480B483B000AF78600B46FB70D3
:1010C0007B68FA7883F878207B68012283F879209E
:1010D00000BF0C37BD465DF8047B704780B582B019
:1010E00000AF78600B467B8013463B800C4B1B881F
:1010F0007A889A4204D30B4B1B883A889A4205D2CD
:10110000094B0A4A9E210A483AF06EFF094A7B8839
:101110001380094A3B88138000BF0837BD4680BD55
:10112000384902243A49022488DE0390ECDE039019
:1011300030DF03903E4902244049022480B582B04A
:1011400000AF78607B6893F87A30002B09D07B6819
:101150005A687B685B681B681B68104698470346A3
:1011600000E0002318460837BD4680BD80B582B038
:1011700000AF7860786822F049FF7B681B68AC3369
:101180001B687868984700BF0837BD4680BD80B4AB
:1011900083B000AF78603960002318460C37BD4635
:1011A0005DF8047B7047000080B584B000AFF86044
:1011B000B9607A603B60BB68002B06D10F4B104AC8
:1011C00040F2D2210F483AF00FFFFB68BA68DA63A9
:1011D000FB687A681A647B68002B14BF0123002324
:1011E000DAB2094B1A70FB681B688C331B683968CC
:1011F000F868984700BF1037BD4680BD78DF039080
:10120000B0DF039030DF03904249022480B483B002
:1012100000AF786039607B683A685A643B68002B9D
:1012200014BF01230023DAB2034B1A7000BF0C373E
:10123000BD465DF8047B70474349022480B483B007
:1012400000AF786039607B683A681A6100BF0C377C
:10125000BD465DF8047B704780B483B000AF786012
:101260000B46FB707B68FA7883F8702000BF0C3760
:10127000BD465DF8047B704780B483B000AF7860F2
:10128000002318460C37BD465DF8047B704780B5D7
:1012900082B000AF78600B467B807B689B6B002B35
:1012A00004D07B689B6B7A881046984700BF08374C
:1012B000BD4680BD80B483B000AF78604FF6FF7349
:1012C00018460C37BD465DF8047B704780B582B088
:1012D00000AF78607B685A687B685B681B6818336E
:1012E0001B6810469847034618460837BD4680BD20
:1012F00080B485B000AF78607B6893F878207B6815
:1013000093F834309A4211D0144B1B78002B1ED125
:10131000134B1B88BB81134B1A88114B1A80114A3F
:10132000BB8913800D4B01221A7010E00B4B1B7808
:10133000002B0CD00A4B1B88FB810A4B1A88084BE8
:101340001A80084AFB891380044B00221A7000BFE0
:101350001437BD465DF8047B704700BF3C4902244A
:101360003A4902243849022480B582B000AF78603F
:101370007B68184622F0A8F800BF0837BD4680BD3C
:1013800080B582B000AF78607B68184622F0D4F94F
:1013900000BF0837BD4680BD80B582B000AF786021
:1013A000054A7B681A607B681846FFF757FE7B6822
:1013B00018460837BD4680BD3C0B049080B582B00E
:1013C00000AF78607868FFF7E7FF7C2178683AF033
:1013D00094FA7B6818460837BD4680BD80B582B058
:1013E00000AF78607B681846FFF7BEFF00BF083784
:1013F000BD4680BD80B582B000AF78607B6818467E
:1014000004F0A0F87A687B681B688C331B680C4971
:10141000104698477B687C331846FFF7E9FB7A68EB
:101420007B687C3319461046FFF708FF7B68012173
:101430001846FFF711FF00BF0837BD4680BD00BF4B
:10144000000000D080B582B000AF78607B681B6878
:1014500080331B68786898477B681B6878331B6803
:101460007868984701F004FD7A687B681B687033E0
:101470001B6810469847012204210C4812F072F9AB
:10148000012280210A4812F06DF901220121094848
:1014900012F068F901F0ECFC7A687B681B68703325
:1014A0001B681046984700BFF4E700BF00000258D1
:1014B000000C02580028025880B582B000AF786056
:1014C0007B68184604F0E6F8034618460837BD4620
:1014D00080BD80B582B000AF786039607B683968C4
:1014E000184604F0E5F800BF0837BD4680BD00008F
:1014F00080B586B000AF786039607B68396818467F
:1015000004F0ECF81F4B0022C3F88420BFF34F8F88
:1015100000BF1C4BD3F880307B617B695B0BC3F34E
:101520000E033B617B69DB08C3F30903FB603B6986
:101530005A0143F6E0731340FA68920711491343C6
:10154000C1F87432FB685A1EFA60002B14BF0123E5
:101550000023DBB2002BEAD13B695A1E3A61002B13
:1015600014BF01230023DBB2002BDBD1BFF34F8F6D
:1015700000BFBFF36F8F00BF00BF00BF1837BD466D
:1015800080BD00BF00ED00E080B582B000AF7860A4
:101590007B68184604F00AF800BF0837BD4680BDD6
:1015A00080B582B000AF78607B68184604F00EF812
:1015B00000BF0837BD4680BD80B582B000AF7860FF
:1015C0007B68184604F010F800BF0837BD4680BDA0
:1015D00080B582B000AF78607B68184604F012F8DE
:1015E00000BF0837BD4680BD80B582B000AF7860CF
:1015F0007B68002B07D0FFF751FD034601211846F9
:1016000022F01EFD06E0FFF749FD034600211846C3
:1016100022F016FD012318460837BD4680BD0000A4
:1016200080B582B000AF7860084A7B681A607B683A
:101630007C331846FFF74CFB7B681846FFF7ACFE7F
:101640007B6818460837BD4680BD00BF640504901E
:1016500080B582B000AF78607868FFF7E1FF88213D
:1016600078683AF04AF97B6818460837BD4680BD6D
:1016700080B483B000AF78607B6800221A607B681A
:1016800018460C37BD465DF8047B704780B483B0C4
:1016900000AF7860044A7B681A607B6818460C3794
:1016A000BD465DF8047B70478006049080B582B02B
:1016B00000AF78607868FFF7E9FF042178683AF0B6
:1016C0001CF97B6818460837BD4680BD80B483B0DE
:1016D00000AF78607B681B7A18460C37BD465DF812
:1016E000047B704780B483B000AF78607B685B692F
:1016F00018460C37BD465DF8047B704780B483B054
:1017000000AF78607B6893F8403018460C37BD46D0
:101710005DF8047B7047000080B483B000AF786050
:10172000044A7B681A607B6818460C37BD465DF832
:10173000047B70478006049080B582B000AF78606B
:101740007B681846FFF7E8FF204A7B681A607B68D1
:1017500000225A617B6800229A617B680022DA616C
:101760007B6800221A627B6800225A627B68002232
:101770009A627B680022DA627B6800221A637B68C7
:1017800000225A637B6800229A637B680022DA6336
:101790007B68002283F840207B6800221A617B6806
:1017A0000022DA607B6800225A607B6800229A601F
:1017B0000022002101201CF014FC0346044A13609F
:1017C0007B6818460837BD4680BD00BF3C060490C4
:1017D000DC60002480B586B000AFF860B9607A6044
:1017E0003B60FB681B6B002B08D0FB685A6BFB68E7
:1017F000DB6BB968CB1A13447B6104E0FB68DA6ADF
:10180000BB6813447B613A68796878693AF0EBFE0B
:10181000034618461837BD4680BD80B487B000AF78
:10182000786039607B681B6B002B24D07B68DB6B96
:101830003A68D31AFB607B685A6BFB6813441B78C9
:1018400019467B685A6BFB68013313441B781B02F3
:1018500041EA03027B68596BFB6802330B441B7837
:101860001B041A437B68596BFB6803330B441B78DA
:101870001B06134329E07B68DA6A3B6813447B61EB
:1018800000233B617B691B78DBB21A463B6913433B
:101890003B617B6901331B78DBB21B021A463B6953
:1018A00013433B617B6902331B78DBB21B041A468E
:1018B0003B6913433B617B6903331B78DBB21B0637
:1018C0001A463B6913433B613B6918461C37BD46CA
:1018D0005DF8047B704780B487B000AF78603960F2
:1018E0007B681B6B002B13D07B68DB6B3A68D31AC9
:1018F000FB607B685A6BFB6813441B7819467B6856
:101900005A6BFB68013313441B781B020B4317E02F
:101910007B68DA6A3B6813447B6100233B617B6927
:101920001B78DBB21A463B6913433B617B69013389
:101930001B78DBB21B021A463B6913433B613B69D0
:1019400018461C37BD465DF8047B704780B584B0EF
:1019500000AFF860B9607A60FB681B6B002B33D076
:10196000FB689B6B7A689A4209D9FB68092283F865
:101970004020194B194AAF2119483AF035FBFB6852
:101980001A6BFB681B6B1B680C331B68B96810462D
:101990009847FB68186BFB681B6B1B6810331B6850
:1019A000FA68516B7A689847034683F00103DBB20B
:1019B000002B03D0FB680D2283F84020FB68BA6837
:1019C000DA63FB685B6B03E0FB68DA6ABB681344AD
:1019D00018461037BD4680BD00E0039014E0039028
:1019E00058E0039080B58EB004AFF860B96011463E
:1019F0001A460B46FB801346BB80FB685B69002BD5
:101A000005D14E4B4E4AC1214E483AF0EDFAFB68E3
:101A10009B6908221946F868FFF798FFFB689B69E5
:101A20001946F868FFF757FF3862FB689B69023375
:101A30001946F868FFF74FFFF861FB689B690433AC
:101A40001946F868FFF7E9FEB86143F23003FB82FC
:101A500046F26433BB82FB689A69BB69134403F1A5
:101A60000802FB689B6A9A4255D23B6A43F23002F5
:101A7000934226D1FB6946F26432934221D1BB697D
:101A8000002B1ED0FB689B6903F10802FB689A617A
:101A9000FB689B69BA691946F868FFF757FF386118
:101AA0003B6B0293BB880193FB880093BB68BA69C8
:101AB0003969F86800F08EFAFB685B695A1CFB68AC
:101AC0005A61002387F82730FB689A69BB691A447A
:101AD000FB689A61BB69002B05D1FB689B6903F128
:101AE0000802FB689A61FB689B69013323F00102DD
:101AF000FB689A61FB689A69FB685B6A9A4214D139
:101B0000FB6801225A61FB681A6AFB689A6101232B
:101B100087F8273009E0FB6801225A61FB681A6ADE
:101B2000FB689A61012387F8273097F8273083F004
:101B30000103DBB218462837BD4680BDC4E00390E0
:101B400010E1039058E0039080B586B000AF786054
:101B50007B685B69002B05D1374B384AF521384843
:101B60003AF042FA7B689B69082219467868FFF7C9
:101B7000EDFE7B689B69043319467868FFF74DFEDC
:101B8000786143E07B689A697B69134403F108023A
:101B90007B689A617B689B69013323F001027B6853
:101BA0009A617B685B695A1C7B685A617B689B6998
:101BB000082219467868FFF7C9FE7B689B691946B9
:101BC0007868FFF788FE38617B689B6902331946A5
:101BD0007868FFF780FEF8607B689B6904331946DC
:101BE0007868FFF71AFE786143F230037B8146F292
:101BF00064333B813B6943F23002934206D1FB6878
:101C000046F26432934201D1012311E07B689A6964
:101C10007B69134403F108027B689B6A9A42B1D343
:101C20007B6801225A617B681A6A7B689A6100238B
:101C300018461837BD4680BDC4E003906CE10390A0
:101C400058E0039080B584B000AFF860B9607A6066
:101C5000FB68BA68DA62FB687A689A62FB680022FD
:101C60001A63F86800F034F800BF1037BD4680BD35
:101C700080B582B000AF786039607B683A681A63DB
:101C80007B680022DA623B681B6808331B6838688F
:101C9000984702467B689A62786800F019F800BF9E
:101CA0000837BD4680BD80B483B000AF78607B68E4
:101CB0001B6B002B03D17B68DB6A002B01D0012357
:101CC00000E0002318460C37BD465DF8047B7047E2
:101CD00080B58AB000AF78607B6800229A617B682B
:101CE000002283F84020482200217868FFF72EFE6A
:101CF0007B6899690423A54A7868FFF76BFD034662
:101D0000002B14BF01230023DBB2002B0AD07B6819
:101D1000032283F840209E4B9E4A40F23D119E488C
:101D20003AF062F97B689B6903F108027B689A616B
:101D30007B6899690423994A7868FFF74BFD03464D
:101D4000002B14BF01230023DBB2002B0AD07B68D9
:101D5000042283F84020924B8E4A40F245118E486F
:101D60003AF042F97B689B691A1D7B689A617B682F
:101D7000996904238B4A7868FFF72CFD0346002BF2
:101D800014BF01230023DBB2002B0AD07B6805229D
:101D900083F84020844B7F4A4FF4A6717E483AF086
:101DA00023F97B689B69043319467868FFF735FD92
:101DB000F8617B689B69BB61FB69002B06D17B4B9B
:101DC000744A4FF4A97174483AF00EF9012387F868
:101DD00027307B689B6908337B610423744A7969E7
:101DE0007868FFF7F7FC0346002B14BF012300239C
:101DF000DBB2002B06D07B68062283F8402000234C
:101E000087F827307B6904337B610423694A796949
:101E10007868FFF7DFFC0346002B14BF0123002383
:101E2000DBB2002B06D07B68072283F8402000231A
:101E300087F8273097F82730002B28D07B690833A4
:101E40007B6179697868FFF7E8FC03465A4AA2FB90
:101E500003239A097B685A607B69103319467868B6
:101E6000FFF7DBFC02467B689A607B6920331946EA
:101E70007868FFF7D2FC02467B68DA607B6924331E
:101E800019467868FFF7C9FC02467B681A61BA698F
:101E9000FB69134408333B620C22396A7868FFF708
:101EA00055FD11E03B6A043319467868FFF7B5FC2D
:101EB00003460833FB603A6AFB6813443B620C221A
:101EC000396A7868FFF742FD3B6A03F10801042391
:101ED0003A4A7868FFF77EFC0346002B0BD07B68FC
:101EE00093F84030002B06D17B689B6A3A6A9A428D
:101EF00001D2012300E00023002BD3D17B6893F8AB
:101F00004030002B04D07B680A2283F840205EE03A
:101F10003B6A03F10C027B689A613B6A0433194601
:101F20007868FFF77AFC02463B6A134403F1080223
:101F30007B685A623B6A043319467868FFF76DFC88
:101F4000034608333B613A6A3B6913443B6204220F
:101F5000396A7868FFF7FAFC0423194A396A786805
:101F6000FFF738FC0346002B0CBF01230023DBB234
:101F7000002B27D07B683A6ADA617B6801225A61BC
:101F80007B689A697B681A6221E000BFA0E1039038
:101F9000A8E10390C4E1039058E00390F4E10390BA
:101FA000FCE1039014E203901CE2039034E20390FE
:101FB00040E2039048E20390D34D621050E2039058
:101FC00058E203907B680B2283F8402000BF28373B
:101FD000BD4680BD80B584B000AFF860B9607A605E
:101FE0003B607B68002B64D03B68002B62D0334B96
:101FF00002221A61FB68DB68304A13602F4B1B68B2
:1020000003F00F03002B06D02C4B1B6823F00F03AB
:1020100010332A4A1360294B1A6913461B019B1A75
:102020005B011A46254B5A60244B1B681B09234A47
:10203000D360FB681B6903F00F03002B06D0FB681D
:102040001B6903F00F03C3F1100300E000231B4AD8
:1020500093603B687A68B968194800F0D5F9FB6865
:102060005B6C184A1360164800F056FC0346164A8B
:102070001360154B1B68022B0CBF01230023DBB23E
:10208000002B06D0114B1B684FF0FF3118461CF097
:1020900031F80D4B1B68012B14BF01230023DBB269
:1020A000002BE0D10A4B00221A600A4B00221A6072
:1020B00000E000BF1037BD4680BD00BFE8600024CF
:1020C00018A10024C8040024C0040024DC600024FB
:1020D000B8040024E460002480B58AB000AFF86042
:1020E000B9607A603B60FB689B6908221946F86812
:1020F000FFF72CFCFB689B6904331946F868FFF76F
:102100008CFB7862FB689B6908337A6A1946F86829
:10211000FFF71CFC3862754B02221A61FB68DB6812
:10212000724A1360714B1B6803F00F03002B06D03B
:102130006E4B1B6823F00F0310336C4A13606B4B1C
:102140001A6913461B019B1A5B011A46674B5A60BA
:10215000664B1B681B09654AD360BB68B3F9023044
:102160001A46624B5A61BB68FB61FB69B3F90230E6
:102170009AB2FB69B3F906309BB213449BB21BB20F
:102180001A46FB681B699A420DD2BB68BB61BB69EA
:10219000B3F902309AB2BB69B3F906309BB213446B
:1021A0009BB21BB201E0FB681B69504A9361BB689C
:1021B000B3F900301A464D4BDA61BB687B617B692D
:1021C000B3F900309AB27B69B3F904309BB213447F
:1021D0009BB21BB21A46FB68DB689A420DD2BB6801
:1021E0003B613B69B3F900309AB23B69B3F9043003
:1021F0009BB213449BB21BB201E0FB68DB683B4A15
:1022000013623A4BDB691B09384A5362374B1B6A2E
:102210000F331B09354A9362344B9A6A334B5B6A1E
:10222000D31A324AD362314BDB6903F00F032F4AD2
:1022300013632E4B5B6903F00F032C4A53632B4B44
:102240001B6A03F00F03002B06D0284B1B6A03F018
:102250000F03C3F1100300E00023244A9363234BD0
:102260009B6903F00F03002B06D0204B9B6903F002
:102270000F03C3F1100300E000231C4AD3637B6803
:102280007A6A396A1A4800F0BFF8FB685B6C194A31
:102290001360194A3B681360154800F03DFB034684
:1022A000164A1360154B1B68022B0CBF0123002339
:1022B000DBB2002B06D0124B1B684FF0FF311846E3
:1022C0001BF018FF0D4B1B68012B14BF01230023CB
:1022D000DBB2002BE0D10B4B00221A600A4B00222C
:1022E0001A60012318462837BD4680BDE8600024E7
:1022F00018A10024C8040024D4040024C00400242D
:10230000DC600024B8040024E460002480B584B0BC
:1023100000AFF860B9607A607B80034B034A40F2FB
:10232000F311034839F060FE60E2039064E2039029
:1023300058E0039080B584B000AF786039603B68A6
:10234000002B01D101233B607B681B682C331B6889
:102350007868984702463B6893428CBF012300236C
:10236000DBB2002B06D07B681B682C331B687868B7
:10237000984738607B68DA693B68013B1B0113446E
:102380000833FB601022F9687868FFF7DFFAFB6812
:10239000083319467868FFF740FA02467B681B6AE3
:1023A00013441A1F7B689A617B683A685A6100BFC0
:1023B0001037BD4680BD80B483B000AF78607B68C5
:1023C0009B6818460C37BD465DF8047B704780B4A7
:1023D00083B000AF78600B46FB7000BF0C37BD4682
:1023E0005DF8047B704790B482B000AF78603960CC
:1023F0003A687B68144604330FCB84E80F0000BFB3
:102400000837BD4690BC704780B588B002AFF86011
:10241000B9607A603B604D4A3B6813604C4B0022C8
:102420001A604C4B00221A604B4B00221A604B4B37
:1024300000221A60BB684A4A13604A4A7B681360EC
:10244000494B00221A60494B00221A6000237B612D
:1024500051E047497A691346DB009B1A9B000B4405
:1024600000221A7042497A691346DB009B1A9B00CE
:102470000B44083300221A603D497A691346DB0099
:102480009B1A9B000B440C3300221A6038497A696E
:102490001346DB009B1A9B000B44103300221A608A
:1024A00033497A691346DB009B1A9B000B441433B3
:1024B00000221A602E497A691346DB009B1A9B00A2
:1024C0000B44183300221A7029497A691346DB003D
:1024D0009B1A9B000B44193300221A7024497A6915
:1024E0001346DB009B1A9B000B441A3300221A7020
:1024F0007B6901337B617B69012BAAD91C4B0122CB
:102500005A761C4B5B6B002B02D0194B01221A76BA
:10251000114B1A6816491346DB009B1A9B000B44AB
:1025200004331968134BDA6813465B001344DB016C
:1025300000930B464FF45042B968F86812F0E3F884
:10254000002318461837BD4680BD00BFA8040024EC
:10255000BC040024E0600024CC040024AC0400246B
:10256000B4040024B0040024D8600024D004002463
:1025700004000024E860002480B485B000AF7860D7
:1025800039603B685B68012B2AD13B68DB6803F04C
:102590000F03002B07D03B68DB6823F00F0303F128
:1025A00010023B68DA603B689B6803F00F03002B66
:1025B00007D03B689B6823F00F0303F110023B68D0
:1025C0009A603B68DB681B09FB603B689B681B09E2
:1025D000BB60FB68BA6802FB03F3244A13603FE068
:1025E0003B685B68022B1BD13B68DB6803F00F0381
:1025F000002B07D03B68DB6823F00F0303F11002C8
:102600003B68DA603B689B6803F00703002B07D048
:102610003B689B6823F0070303F108023B689A605C
:102620003B685B68002B1BD13B68DB6803F007034A
:10263000002B07D03B68DB6823F0070303F1080297
:102640003B68DA603B689B6803F00703002B07D008
:102650003B689B6823F0070303F108023B689A601C
:1026600000BF1437BD465DF8047B7047C4040024E6
:1026700080B584B000AF78603960144B1A683B684D
:102680001344124A1360114B1A68114B1B689A428B
:1026900018D2104B1A683B6813440E4A13600C4B57
:1026A0001A680A4B1B68D31AFB600A4B1B68194651
:1026B000FB68B3F5504F28BF4FF450431A46786873
:1026C00012F0C7F900BF1037BD4680BDAC0400242E
:1026D000B0040024B404002480B584B000AFF860D6
:1026E000B9607A60764B1B681033754A1360754B7E
:1026F0001A68754B196875481346DB009B1A9B00D6
:10270000034414331960704B1A68714B1B6971498B
:10271000096801FB03F31B0113446B4A13606C4B04
:102720005A69674B1B689A422CBF01230023DBB216
:10273000002B14D0634B1A6864491346DB009B1AC4
:102740009B000B4404331968614BDA6813465B0045
:102750001344DB011A46F86812F08DF9ADE0594BCD
:102760001A685A491346DB009B1A9B000B4401224E
:102770001A70544B1A6855491346DB009B1A9B008C
:102780000B4408337A681A604E4B1A684F49134657
:10279000DB009B1A9B000B44103300221A604C4B49
:1027A0001B6B002B0AD0474B1A6848491346DB00C5
:1027B0009B1A9B000B44183301221A70444B9A69F0
:1027C0003F4B1B689A428CBF01230023DBB2002BD6
:1027D00046D03C4B1A683D491346DB009B1A9B00D0
:1027E0000B441A3300221A70364B1B680133354AEA
:1027F0001360344B1B68012B8CBF01230023DBB219
:10280000002B02D02F4B00221A602E4B1A682F4942
:102810001346DB009B1A9B000B441B78002B14BF54
:1028200001230023DBB2002B06D00221F86811F04F
:10283000CDFF294B01221A60224B1A682349134607
:10284000DB009B1A9B000B4404331968204BDA68A9
:1028500013465B001344DB011A46F86812F00BF9CB
:102860001B4B9A69164B1B689A4294BF01230023A5
:10287000DBB2002B11D0134B1A6814491346DB004E
:102880009B1A9B000B441A3301221A70134B01222E
:102890001A600221F86811F099FF114B1B68184665
:1028A000FEF714FF034683F00103DBB2002B04D0D4
:1028B0000C4B1B6818461BF06FFC1037BD4680BDE3
:1028C000D0040024CC040024A80400240400002424
:1028D000E8600024D4040024BC040024B8040024CC
:1028E000C8040024DC60002480B483B000AF7860AA
:1028F00072B600BF00BFFDE780B483B000AF786060
:10290000044B01221A6000BF0C37BD465DF8047B02
:10291000704700BFB804002480B582B000AF786073
:10292000344B1B68002B05D0334B1B68002B01D0A8
:10293000012300E00023002B0FD0786812F086F905
:102940000346042B0CBF01230023DBB2002B02D073
:10295000786812F0A3F8012347E0284B1B6818465B
:10296000FEF7B4FE034683F00103DBB2002B10D068
:10297000234B1A6823491346DB009B1A9B000B4428
:102980001B78012B05D11C4B1B68002B01D10123A7
:1029900000E00023002B08D0184B1A68174B1B6867
:1029A0001B6810331B6810469847174B1B68012B98
:1029B00010D1164B1A6813491346DB009B1A9B0073
:1029C0000B441B78002B05D10A4B1B68002B01D14F
:1029D000012300E00023002B06D00B4B00221A60DD
:1029E0000221786811F04AFF022318460837BD46D5
:1029F00080BD00BFB8040024E4600024C8040024A3
:102A0000E060002404000024BC040024CC04002462
:102A100080B487B000AF7860334BDA6A7B681B699B
:102A2000D31A1A01304B9B6BD31A7B617B6903F07D
:102A30000F03002B05D07B6903F00F03C3F11003D4
:102A400000E000233B61284B5A6A7B681B691A44EB
:102A500013465B001344DB01FB60234B5A6A7B681F
:102A60001B691344204A126902FB03F31B01BB607C
:102A70001D4BDA6A7B681A611C4B02225A637B6821
:102A80009B7E002B09D0184BDB6BC3F110027B69D6
:102A90001B04164913434B6405E07B691B04134A6E
:102AA00043F0100353647B685A69BB681A440F4BA8
:102AB000DA630E4A7B69C3F5F07313640B4A3B6912
:102AC00013610A4B0A4ADA617B685A68FB681A4448
:102AD000064BDA60054B074A1A6000BF1C37BD463B
:102AE0005DF8047B704700BFE860002400100052CE
:102AF0000B0009FF0102010080B582B000AF7860D1
:102B00007B680C331846FEF7B3FD7B681846083720
:102B1000BD4680BD80B592B000AF78607B681B6910
:102B2000002B02D1604B1B6B00E000237B647B68B1
:102B30001A695D4BDB6A013B9A4202D15A4B9B6B8F
:102B400000E000233B647B685B7E002B02D0564B89
:102B50005B6B00E00023FB637B689B7E002B02D055
:102B6000514BDB6B00E00023BB634F4B5A6A7B6821
:102B70001B691A4413465B001344DB017B634A4B19
:102B80005A6A7B681B691344474A126902FB03F1C6
:102B9000454B1B69FA6B03FB02F213461B019B1AA0
:102BA0005B000B441A01404B1B69796C01FB03F37A
:102BB00013443B633C4B1B697A6C03FB02F23A4BB8
:102BC0001B69F96B01FB03F31B011344FB627B6878
:102BD0001B695A1C7B681A61334B5B6B002B06D058
:102BE0007B685B7E83F00103DBB2002B02D07B6845
:102BF00000221A7607F108031846FFF77DFF01232C
:102C0000BB60FB6A294A1344FB607B6C9AB23B6C45
:102C10009BB213449BB2C3F110039BB2BB83FB6B0B
:102C20009AB2BB6B9BB213449BB2C3F110039BB22D
:102C3000FB8310233B844FF4F0737B847B685A69D9
:102C40003B6B1344BB61002387F82530002387F8D2
:102C50002630174B1A68164B1B681B6804331B6819
:102C600007F1080110469847124B02225A63114B94
:102C70004FF010125A640F4B0C4ADA630D4B0022CE
:102C80001A640C4B00221A610A4B0B4ADA617B680A
:102C90005A687B6B1A44074BDA60064B074A1A6086
:102CA00000BF4837BD4680BDE8600024D85E0024E0
:102CB000C8040024001000520B0009FF01020100AB
:102CC00080B582B000AF78607B681A69184BDB6A08
:102CD0009A4228D17B6800221A707B6800229A6091
:102CE0007B6800221A767B6800225A76114B1B689B
:102CF0000133104A13600F4B1B68012B8CBF01235B
:102D00000023DBB2002B02D00A4B00221A607B6842
:102D10009B7E002B02D0084B01221A60074B1B68D8
:102D200018461BF039FA00BF0837BD4680BD00BF0A
:102D3000E8600024E0600024E4600024DC600024FB
:102D400080B582B000AF7860054A7B681A607B6806
:102D50001846FEF79BFC7B6818460837BD4680BDC9
:102D60003C06049080B582B000AF78607868FFF7C9
:102D7000E7FF4821786838F0C0FD7B6818460837BF
:102D8000BD4680BD80B500AF0022012101201BF0AF
:102D900028F903460F4A13600E4B1B68002B05D120
:102DA0000D4B0E4A28210E4839F01EF9002204214D
:102DB00001201BF035FA03460A4A1360094B1B68D1
:102DC000002B05D1084B054A2C21054839F00CF998
:102DD00000BF80BD28610024C0E203900CE3039093
:102DE0003CE303902C610024A0E3039080B500AF86
:102DF000044B1B684FF0FF3118461BF07BF900BFF6
:102E000080BD00BF2861002480B500AF034B1B6864
:102E100018461BF0C1F900BF80BD00BF2861002427
:102E200080B500AF034B1B68002118461BF062F908
:102E300000BF80BD2861002480B500AF034B1B6834
:102E400018461BF0A9F900BF80BD00BF286100240F
:102E500080B500AF044B18680023002203491BF023
:102E600053FA00BF80BD00BF2C6100243C00002449
:102E700080B582B000AF094B1868391D00230022CD
:102E80001BF0A2FA054B1868391D4FF0FF330022E2
:102E90001BF09AFA00BF0837BD4680BD2C610024A4
:102EA00080B483B000AF0346FB80B7F90630002B37
:102EB0000BDBFB8803F01F020749B7F906305B09FB
:102EC000012000FA02F241F8232000BF0C37BD4672
:102ED0005DF8047B704700BF00E100E080B483B080
:102EE00000AF0346FB80B7F90630002B12DBFB88EE
:102EF00003F01F020A49B7F906305B09012000FA06
:102F000002F2203341F82320BFF34F8F00BFBFF3FD
:102F10006F8F00BF00BF0C37BD465DF8047B704764
:102F200000E100E080B483B000AF78607B681B688C
:102F300018460C37BD465DF8047B704780B483B0FB
:102F400000AF7860044A7B681A607B6818460C37CB
:102F5000BD465DF8047B70471007049080B582B0D1
:102F600000AF78607868FFF7E9FF0421786838F0EF
:102F7000C4FC7B6818460837BD4680BD80B582B06A
:102F800000AF78607B681B6844331B68786898479B
:102F900000BF0837BD4680BD80B483B000AF786005
:102FA000044A7B681A607B6818460C37BD465DF89A
:102FB000047B7047A824049080B582B000AF78608D
:102FC0007868FFF7E9FF0C21786838F096FC7B6899
:102FD00018460837BD4680BD80B483B000AF786026
:102FE0003960094A7B681A607B683A685A607B6876
:102FF00000221A727B6800225A727B6818460C37CE
:10300000BD465DF8047B7047A824049080B483B06B
:1030100000AF7860012318460C37BD465DF8047B8D
:103020007047000080B582B000AF78607B6893F88D
:10303000A03D83F00103DBB2002B29D07A687B68C6
:103040001B6828331B6810469847264B1A68264988
:103050001346DB009B1A9B000B441B78012B0CD101
:10306000224B1B68002B08D17B681B7A83F001037D
:10307000DBB2002B01D0012300E00023002B2DD078
:103080007B68012283F8A02D786800F0A5F825E080
:10309000786800F083F87B685A687B685B681B6817
:1030A0001B6810469847034683F00103DBB2002BF0
:1030B00006D07B685B7ADBB2002B01D0012300E0F5
:1030C0000023002B0AD07B68002283F8A02D7A68A9
:1030D0007B681B6824331B681046984700BF08377D
:1030E000BD4680BDE060002404000024E4600024AC
:1030F00080B582B000AF78607B685A687B685B6897
:103100001B681B6810469847034683F00103DBB237
:10311000002B0DD07B685B7ADBB2002B08D07B687C
:103120001B7A83F00103DBB2002B01D0012300E006
:103130000023002B0BD07B68002283F8A02D7A6837
:103140007B681B6824331B68104698471DE0114BB1
:103150001A6811491346DB009B1A9B000B441B782D
:10316000012B08D17B681B7A83F00103DBB2002BB3
:1031700001D0012300E00023002B06D07B68012250
:1031800083F8A02D786800F027F800BF0837BD4607
:1031900080BD00BFE06000240400002480B582B040
:1031A00000AF78607B681B7A002B0DD07B68002213
:1031B0001A72074B1A681346DB009B1A9B00054ADC
:1031C00013441846FFF77CFD00BF0837BD4680BD9D
:1031D000E06000240400002480B582B000AF786075
:1031E0007B6801221A72134B1A6813491346DB00DD
:1031F0009B1A9B000B4418331B78002B0BD00D4BF4
:103200001A681346DB009B1A9B000B4A13441846AE
:10321000FFF780FC0AE0074B1A681346DB009B1A95
:103220009B00054A13441846FFF7F2FB00BF08371E
:10323000BD4680BDE06000240400002480B582B05B
:1032400000AF78607B685A687B685B681B681433E2
:103250001B681046984700BF0837BD4680BD80B543
:1032600082B000AF7860FDF719FF03461846FFF7FC
:10327000E5FF00BF0837BD4680BD0000B0B582B095
:1032800000AF78607A687B680C3319461046FFF708
:10329000A3FE104A7B681A607B6803F10C007B6810
:1032A00020336022194621F01DF87B6820335F240B
:1032B0001D4604E02846FFF71FFC013C2435002C86
:1032C000F8DA7B68002283F8A02D7B68184608375F
:1032D000BD46B0BDC006049080B582B000AF786036
:1032E000094A7B681A605A20FFF7F8FD7B680C33A7
:1032F000184600F029FB7B681846FFF74DFE7B68F7
:1033000018460837BD4680BDC006049080B582B01F
:1033100000AF78607868FFF7DFFF40F6A451786867
:1033200038F0EBFA7B6818460837BD4680BD0000D0
:1033300080B584B000AF7860124BD3F8D430114A16
:1033400043F01003C2F8D4300E4BD3F8D43003F05E
:103350001003FB60FB680B4BDB6F0A4A43F0100362
:10336000D367084BDB6F074A23F01003D367064B84
:10337000064A1A625A20FFF793FD00BF1037BD4678
:1033800080BD00BF00440258B0A000245F3200900E
:1033900080B584B000AF78600B46FB700023FB6003
:1033A000FB780B2B26D801A252F823F0E9330090CA
:1033B000E3330090DD330090F5330090F533009057
:1033C000F5330090F5330090EF330090EF33009029
:1033D000EF330090EF330090EF3300900023FB6059
:1033E0000EE00123FB600BE00223FB6008E00523F5
:1033F000FB6005E0054B064A6621064838F0F4FDFF
:10340000FB6818461037BD4680BD00BFE4E303905B
:1034100000E403904CE4039080B584B000AF786082
:103420000B46FB700023FB60FB780A2B21D801A21E
:1034300052F823F06D3400906734009061340090AE
:1034400073340090733400907334009073340090A0
:1034500067340090673400906734009067340090C0
:103460000023FB600BE00123FB6008E00223FB600C
:1034700005E0054B054A8721054838F0B5FDFB6896
:1034800018461037BD4680BDE4E30390ACE40390DA
:103490004CE4039080B483B000AF786040F2EF3327
:1034A00018460C37BD465DF8047B704790B589B06F
:1034B00000AF786039603B685B7F19467868FFF73A
:1034C00067FFB8613B689B7F19467868FFF760FF2C
:1034D00078613B689B7F19467868FFF79DFF3861EC
:1034E0003B685B8B1A463B689B8AD21A934B1A64E3
:1034F0003B685B8B1A463B689B8AD21A8F4B9A615A
:103500003B681B8B1A463B689B8AD21A8B4B1A610D
:103510008A4A3B6953633B68DB8A1A463B689B8A4D
:103520001B041A43854B5A643B681A69834BDA6360
:103530003B685A68814BDA603B681B68B3F5007FD3
:1035400035D0B3F5007F00F2DD80B3F5807F14D075
:10355000B3F5807F00F2D680802B56D0802B00F20E
:10356000D180402B00F0BA80402B00F2CB80042B9E
:1035700037D0202B00F0B280C4E03B681B7F1A06D6
:103580006E496F4B1343CB613B680C336B4C184651
:10359000FFF7C8FC03462362684A7B6953623B68B5
:1035A0001A69664B5A61654B664A1A60C2E03B680D
:1035B0001B7F1A066149644B1343CB613B680C3394
:1035C0005E4C1846FFF7AEFC034623625B4A7B69FC
:1035D00053623B681A69594B5A61584B594A1A60F1
:1035E000A8E03B681B7F1A06BB691343534A43F4A8
:1035F0000033D361514A7B6953623B681A694F4B70
:103600005A614E4B4F4A1A6094E00123FB773B68A6
:103610009B68FB60FB681A1D484BDA623B681B7FA6
:103620001A06BB691343454A43F40033D361434A46
:103630007B6953623B681A69404B5A61FB681B887F
:10364000DBB2002B02D0012B0DD020E03B4BDA691E
:103650003E4B1340FA685288013A12021146374A2B
:103660000B43D3611AE03B681B7FFF2B01D1002382
:10367000FB77324BDA69354B1340FA685288013ACE
:10368000120213432D4A43F01003D36106E0304B7E
:10369000304A40F21111304838F0A6FC274BDB6964
:1036A000264A43F02003D36100BF244BDB6903F0BB
:1036B0002003002B14BF01230023DBB2002BF4D125
:1036C0001E4B10229A60FB7F002B03D01B4B1D4A20
:1036D0001A602FE0194B214A1A602BE03B681B7FD0
:1036E0001A06BB691343154A43F40033D361134AE6
:1036F0007B6953623B681A69104B5A610F4B114A40
:103700001A6017E03B681B7F1A06BB6913430B4A1C
:1037100043F40033D3613B685A7F3B689B7F9A42F6
:1037200003D0064B0D4A1A6003E0044B40F201221D
:103730001A6000BF00BF2437BD4690BD0010005284
:103740000A0002000102020009000200EF00FFFF70
:10375000F8E4039014E503904CE4039001020100A7
:1037600090B585B000AF786039603B689B7F1946A3
:103770007868FFF751FEF8603A4AFB6853633B688C
:10378000DB8A1A463B689B8A1B041A43354B5A64F2
:103790003B681A69334BDA633B685B8B1A463B68BC
:1037A0009B8AD21A2F4B1A643B681B68082B2DD1B9
:1037B0003B685B8B1A463B689B8AD21A294B9A61FD
:1037C0003B685B8B1A463B689B8AD21A254B1A6171
:1037D000244AFB6853623B681B7F1A062149224B2F
:1037E0001343CB613B680C331E4C1846FFF79AFB22
:1037F000034623623B681A691A4B5A613B681A698F
:10380000184BDA60174B194A1A6027E0154AFB6813
:10381000D361144B00221A613B680C331846FFF742
:1038200081FB03461B0A03F478443B680C331846BB
:10383000FFF778FB03465B0903F4FC631C433B681A
:103840000C331846FFF76EFB0346DB0803F01F033B
:10385000044A23439363034B054A1A6000BF14379D
:10386000BD4690BD00100052090001000102020097
:103870000102030080B400AF00BF094B1B6803F0D6
:103880000103002B14BF01230023DBB2002BF4D172
:10389000034B23229A6000BFBD465DF8047B70474E
:1038A0000010005280B485B000AFF860B9607A6053
:1038B000FB7000BF204B1B6803F00103002B14BFFB
:1038C00001230023DBB2002BF4D11B4B23229A608F
:1038D000194B02225A63BB681B04174A43F00103C9
:1038E0005364154AFB68D363FB78FF2B15D0124B4A
:1038F00002225A62FB781A060F49104B1343CB6120
:103900000D4A7B6813620C4AFB6853610A4AFB68E4
:10391000D360094B0A4A1A6008E0074B0222DA61B9
:10392000054ABB699363044B064A1A6000BF14370B
:10393000BD465DF8047B704700100052090001008D
:10394000010002000100030080B582B000AF786082
:10395000054A7B681A607B681846FFF7EFFA7B68B8
:1039600018460837BD4680BDF824049080B582B063
:1039700000AF78607868FFF7E7FF1421786837F0C8
:10398000BCFF7B6818460837BD4680BD80B483B055
:1039900000AF78607B6800221A807B6800225A8022
:1039A0007B6800229A807B680022DA807B68184658
:1039B0000C37BD465DF8047B7047000080B483B0CF
:1039C00000AF7860044A7B68136000BF0C37BD46C7
:1039D0005DF8047B704700BFA849022480B483B01F
:1039E00000AF7860044A7B681A607B6818460C3721
:1039F000BD465DF8047B70477009049080B582B0C5
:103A000000AF78607868FFF7E9FF0421786837F045
:103A100074FF7B6818460837BD4680BD80B485B00A
:103A200000AFF860B9607A603B600B4AFB681A60CF
:103A3000FB68BA685A60FB687A689A60FB683A6803
:103A4000DA60FB68BA691A61FB6818461437BD462C
:103A50005DF8047B704700BF6009049080B483B0B8
:103A600000AF7860044A7B681A607B6818460C37A0
:103A7000BD465DF8047B70476009049080B582B054
:103A800000AF78607868FFF7E9FF1421786837F0B5
:103A900034FF7B6818460837BD4680BD80B483B0CC
:103AA00000AF7860396000BF0C37BD465DF8047B1D
:103AB000704780B483B000AF7860396000BF0C37C6
:103AC000BD465DF8047B704780B483B000AF78607A
:103AD000396000BF0C37BD465DF8047B704780B489
:103AE00083B000AF78600B46FB7000BF0C37BD465B
:103AF0005DF8047B704780B483B000AF786000BF8E
:103B00000C37BD465DF8047B704780B483B000AFCE
:103B1000786000BF0C37BD465DF8047B704700003D
:103B200080B483B000AF7860044A7B681A607B6819
:103B300018460C37BD465DF8047B70473809049081
:103B400080B582B000AF78607868FFF7E9FF0421A4
:103B5000786837F0D2FE7B6818460837BD4680BDCE
:103B600080B483B000AF7860044A7B681A607B68D9
:103B700018460C37BD465DF8047B70472409049055
