:020000040800F2
:1000000000000320E56600081D3500082D350008B6
:10001000453500084D350008553500080000000042
:100020000000000000000000000000005D35000836
:100030006B3500080000000079350008873500089E
:1000400039670008396700083967000893350008E8
:100050003967000839670008233600083136000880
:100060003967000839670008153600083967000845
:100070003967000839670008A135000839670008AA
:1000800039670008396700083967000839670008D0
:1000900039670008396700083967000839670008C0
:1000A00039670008396700083967000839670008B0
:1000B00039670008396700083967000839670008A0
:1000C0003967000839670008396700083967000890
:1000D000B5350008C93500083967000839670008D8
:1000E0003967000839670008396700083967000870
:1000F000DD350008E9350008F535000839670008E6
:10010000396700083967000839670008396700084F
:10011000396700083967000839670008396700083F
:100120003967000839670008013600083967000898
:0C013000396700083967000839670008CB
:1001400010B5054C237833B9044B13B10448AFF311
:1001500000800123237010BD080300200000000070
:10016000C490020808B5034B1BB103490348AFF321
:10017000008008BD000000000C030020C4900208AD
:1001800010F8012B11F8013B012A28BF9A42F7D041
:10019000D01A7047000000000000000000000000BE
:1001A00001F0FF01102A2BDB10F0070F08D010F828
:1001B000013B013A8B422DD010F0070F42B3F6D12C
:1001C000F0B441EA012141EA014122F007047FF045
:1001D00000070023F0E80256083C85EA010586EA9C
:1001E000010685FA47F5A3FA87F586FA47F6A5FAD8
:1001F00087F68EB9EED1F0BC01F0FF0102F00702E4
:1002000032B110F8013B013A83EA010313B1F8D18E
:100210000020704701387047002D06BF354603386F
:10022000073815F0010F07D1013015F4807F02BFA8
:10023000013015F4C03F0130F0BC0138704700BFF9
:10024000034613F8012B002AFBD1181A0138704716
:1002500081F0004102E000BF83F0004330B54FEA77
:1002600041044FEA430594EA050F08BF90EA020FE4
:100270001FBF54EA000C55EA020C7FEA645C7FEA77
:10028000655C00F0E2804FEA5454D4EB5555B8BF9A
:100290006D420CDD2C4480EA020281EA030382EA0B
:1002A000000083EA010180EA020281EA0303362D9D
:1002B00088BF30BD11F0004F4FEA01314FF4801C70
:1002C0004CEA113102D0404261EB410113F0004F82
:1002D0004FEA03334CEA133302D0524263EB430339
:1002E00094EA050F00F0A780A4F10104D5F1200ED7
:1002F0000DDB02FA0EFC22FA05F2801841F1000132
:1003000003FA0EF2801843FA05F359410EE0A5F105
:1003100020050EF1200E012A03FA0EFC28BF4CF036
:10032000020C43FA05F3C01851EBE37101F00045EC
:1003300007D54FF0000EDCF1000C7EEB00006EEBF9
:100340000101B1F5801F1BD3B1F5001F0CD3490883
:100350005FEA30004FEA3C0C04F101044FEA4452DA
:1003600012F5800F80F09A80BCF1004F08BF5FEA61
:10037000500C50F1000041EB045141EA050130BD41
:100380005FEA4C0C404141EB0101013C28BFB1F553
:10039000801FE9D291F0000F04BF01460020B1FA9E
:1003A00081F308BF2033A3F10B03B3F120020CDA71
:1003B0000C3208DD02F1140CC2F10C0201FA0CF04F
:1003C00021FA02F10CE002F11402D8BFC2F1200CB4
:1003D00001FA02F120FA0CFCDCBF41EA0C0190406A
:1003E000E41AA2BF01EB0451294330BD6FEA0404B3
:1003F0001F3C1CDA0C340EDC04F11404C4F120029E
:1004000020FA04F001FA02F340EA030021FA04F3AF
:1004100045EA030130BDC4F10C04C4F1200220FA06
:1004200002F001FA04F340EA0300294630BD21FA44
:1004300004F0294630BD94F0000F83F4801306BF0A
:1004400081F480110134013D4EE77FEA645C18BFFE
:100450007FEA655C29D094EA050F08BF90EA020F95
:1004600005D054EA000C04BF1946104630BD91EA8D
:10047000030F1EBF0021002030BD5FEA545C05D190
:100480004000494128BF41F0004130BD14F58004CF
:100490003CBF01F5801130BD01F0004545F0FE4143
:1004A00041F470014FF0000030BD7FEA645C1ABF78
:1004B000194610467FEA655C1CBF0B46024650EAAF
:1004C000013406BF52EA033591EA030F41F40021DB
:1004D00030BD00BF90F0000F04BF0021704730B561
:1004E0004FF4806404F132044FF000054FF0000136
:1004F00050E700BF90F0000F04BF0021704730B5F7
:100500004FF4806404F1320410F0004548BF4042CB
:100510004FF000013EE700BF42004FEAE2014FEA20
:1005200031014FEA02701FBF12F07F4393F07F4FFB
:1005300081F06051704732F07F4208BF704793F0FE
:100540007F4F04BF41F40021704730B54FF4607411
:1005500001F0004521F000411CE700BF50EA010214
:1005600008BF704730B54FF000050AE050EA0102BD
:1005700008BF704730B511F0004502D5404261EB2D
:1005800041014FF4806404F132045FEA915C3FF46E
:10059000D8AE4FF003025FEADC0C18BF03325FEA0B
:1005A000DC0C18BF033202EBDC02C2F1200300FABC
:1005B00003FC20FA02F001FA03FE40EA0E0021FAE1
:1005C00002F11444BDE600BF70B54FF0FF0C4CF4CF
:1005D000E06C1CEA11541DBF1CEA135594EA0C0F81
:1005E00095EA0C0F00F0DEF82C4481EA030621EABC
:1005F0004C5123EA4C5350EA013518BF52EA0335F7
:1006000041F4801143F4801338D0A0FB02CE4FF0A8
:100610000005E1FB02E506F00042E0FB03E54FF0D8
:100620000006E1FB03569CF0000F18BF4EF0010ED0
:10063000A4F1FF04B6F5007F64F5407404D25FEACC
:100640004E0E6D4146EB060642EAC62141EA55517F
:100650004FEAC52040EA5E504FEACE2EB4F1FD0CC1
:1006600088BFBCF5E06F1ED8BEF1004F08BF5FEA3F
:10067000500E50F1000041EB045170BD06F00046F1
:1006800046EA010140EA020081EA0301B4EB5C049E
:10069000C2BFD4EB0C0541EA045170BD41F4801196
:1006A0004FF0000E013C00F3AB8014F1360FDEBFBB
:1006B000002001F0004170BDC4F10004203C35DA97
:1006C0000C341BDC04F11404C4F1200500FA05F31A
:1006D00020FA04F001FA05F240EA020001F00042BB
:1006E00021F0004110EBD37021FA04F642EB060131
:1006F0005EEA430E08BF20EAD37070BDC4F10C045B
:10070000C4F1200500FA04F320FA05F001FA04F21E
:1007100040EA020001F0004110EBD37041F100010A
:100720005EEA430E08BF20EAD37070BDC4F1200515
:1007300000FA05F24EEA020E20FA04F301FA05F27D
:1007400043EA020321FA04F001F0004121FA04F225
:1007500020EA020000EBD3705EEA430E08BF20EAF5
:10076000D37070BD94F0000F0FD101F0004640002F
:1007700041EB010111F4801F08BF013CF7D041EAB1
:10078000060195F0000F18BF704703F000465200B5
:1007900043EB030313F4801F08BF013DF7D043EA86
:1007A0000603704794EA0C0F0CEA135518BF95EA3C
:1007B0000C0F0CD050EA410618BF52EA4306D1D1C3
:1007C00081EA030101F000414FF0000070BD50EAE2
:1007D000410606BF1046194652EA430619D094EA6C
:1007E0000C0F02D150EA013613D195EA0C0F05D156
:1007F00052EA03361CBF104619460AD181EA0301AA
:1008000001F0004141F0FE4141F470014FF0000061
:1008100070BD41F0FE4141F4780170BD70B54FF0FC
:10082000FF0C4CF4E06C1CEA11541DBF1CEA13557C
:1008300094EA0C0F95EA0C0F00F0A7F8A4EB05045E
:1008400081EA030E52EA03354FEA013100F0888055
:100850004FEA03334FF0805545EA131343EA12631E
:100860004FEA022245EA111545EA10654FEA0026D3
:100870000EF000419D4208BF964244F1FD0404F58C
:10088000407402D25B084FEA3202B61A65EB0305E8
:100890005B084FEA32024FF480104FF4002CB6EBA5
:1008A000020E75EB030E22BFB61A754640EA0C0025
:1008B0005B084FEA3202B6EB020E75EB030E22BF65
:1008C000B61A754640EA5C005B084FEA3202B6EBA6
:1008D000020E75EB030E22BFB61A754640EA9C0065
:1008E0005B084FEA3202B6EB020E75EB030E22BF35
:1008F000B61A754640EADC0055EA060E18D04FEAF3
:10090000051545EA16754FEA06164FEAC30343EA92
:1009100052734FEAC2025FEA1C1CC0D111F4801F5F
:100920000BD141EA00014FF000004FF0004CB6E758
:1009300011F4801F04BF01430020B4F1FD0C88BFF7
:10094000BCF5E06F3FF6AFAEB5EB030C04BFB6EB02
:10095000020C5FEA500C50F1000041EB045170BDF5
:100960000EF0004E4EEA113114EB5C04C2BFD4EB22
:100970000C0541EA045170BD41F480114FF0000EA6
:10098000013C90E645EA060E8DE60CEA135594EA22
:100990000C0F08BF95EA0C0F3FF43BAF94EA0C0F25
:1009A0000AD150EA01347FF434AF95EA0C0F7FF49A
:1009B00025AF104619462CE795EA0C0F06D152EAEE
:1009C00003353FF4FDAE1046194622E750EA4106D2
:1009D00018BF52EA43067FF4C5AE50EA41047FF4E3
:1009E0000DAF52EA43057FF4EBAE12E74FF0FF3C48
:1009F00006E000BF4FF0010C02E000BF4FF0010C19
:100A00004DF804CD4FEA410C7FEA6C5C4FEA430C91
:100A100018BF7FEA6C5C1BD001B050EA410C0CBFE0
:100A200052EA430C91EA030F02BF90EA020F002042
:100A3000704710F1000F91EA030F58BF994208BFA9
:100A400090422CBFD8176FEAE37040F00100704766
:100A50004FEA410C7FEA6C5C02D150EA013C07D1BD
:100A60004FEA430C7FEA6C5CD6D152EA033CD3D008
:100A70005DF8040B704700BF8446104662468C4602
:100A80001946634600E000BF01B5FFF7B7FF002835
:100A900048BF10F1000F01BD4DF808EDFFF7F4FF5E
:100AA0000CBF012000205DF808FB00BF4DF808EDE9
:100AB000FFF7EAFF34BF012000205DF808FB00BF0C
:100AC0004DF808EDFFF7E0FF94BF012000205DF82E
:100AD00008FB00BF4DF808EDFFF7CEFF94BF0120E3
:100AE00000205DF808FB00BF4DF808EDFFF7C4FFDC
:100AF00034BF012000205DF808FB00BF4FEA410C25
:100B00007FEA6C5C02D150EA013C0AD14FEA430C07
:100B10007FEA6C5C02D152EA033C02D14FF0000044
:100B200070474FF0010070474FEA410212F5001282
:100B300015D211D56FF47873B3EB625212D94FEA24
:100B4000C12343F0004343EA505311F0004F23FA0E
:100B500002F018BF404270474FF00000704750EA63
:100B6000013005D111F0004008BF6FF00040704720
:100B70004FF00000704700BF53B94AB9002908BFC1
:100B800000281CBF4FF0FF314FF0FF3000F06AB972
:100B9000ADF1080C6DE904CE00F006F8DDF804E0D4
:100BA000DDE9022304B070472DE9F047089D0C46AB
:100BB000002B4ED194468C458646B2FA82F262D919
:100BC0004AB1C2F12003914020FA03F30CFA02FC6F
:100BD000194300FA02FE4FEA1C471FFA8CF6B1FBDC
:100BE000F7F44FEA1E4307FB141143EA014304FBE9
:100BF00006F199420AD91CEB030304F1FF3080F09F
:100C00001281994240F20F81023C6344591A1FFA43
:100C10008EF3B1FBF7F007FB101143EA014300FB31
:100C200006F69E420AD91CEB030300F1FF3180F067
:100C3000FC809E4240F2F980634402389B1B40EAEC
:100C4000044000211DB1D3400022C5E90032BDE8B7
:100C5000F0878B4205D90DB1C5E900010021084696
:100C6000F5E7B3FA83F1002946D1A34202D39042BB
:100C7000C0F0F080861A64EB03030120002DE6D05B
:100C8000C5E90063E3E7002A40F09080A1EB0C0483
:100C90004FEA1C481FFA8CF70121B4FBF8F64FEA23
:100CA0001E4308FB164443EA044307FB06F0984240
:100CB00008D91CEB030306F1FF3402D2984200F27C
:100CC000CD8026461C1A1FFA8EF3B4FBF8F008FB01
:100CD000104443EA044300FB07F79F4208D91CEB8A
:100CE000030300F1FF3402D29F4200F2B08020469D
:100CF000DB1B40EA0640A5E7C1F120068B4022FA43
:100D000006F71F4320FA06FC04FA01F343EA0C033A
:100D1000F44000FA01F8380C4FEA1349B4FBF0FE36
:100D20001FFA87FC00FB1E4449EA04440EFB0CF941
:100D3000A14502FA01F20AD93C190EF1FF3A80F0FE
:100D40008480A14540F28180AEF1020E3C44A4EBC8
:100D500009041FFA83F9B4FBF0F300FB134449EADA
:100D6000044403FB0CFCA44507D93C1903F1FF30F4
:100D700067D2A44565D9023B3C4443EA0E40A0FB40
:100D80000293A4EB0C049C42CE469C4651D34ED019
:100D900055B1B8EB0E0364EB0C0404FA06F6CB4035
:100DA0001E43CC40C5E90064002150E7C2F1200396
:100DB00020FA03F10CFA02FC24FA03F394400C43EA
:100DC0004FEA1C4800FA02FE1FFA8CF7B3FBF8F05A
:100DD00008FB1031230C43EA014300FB07F1994261
:100DE00008D91CEB030300F1FF362CD299422AD913
:100DF000023863445B1AA4B2B3FBF8F108FB113369
:100E000044EA034401FB07F3A34208D91CEB0404A2
:100E100001F1FF3613D2A34211D902396444E41A16
:100E200041EA004139E70446F0E6084606E7C845CE
:100E3000AED2B9EB020E63EB070C0138A8E73146DE
:100E4000EDE7034699E73046D4E7D6467FE76344AB
:100E500002384DE70646234608460FE7023E634444
:100E600030E700BF704700BF80B483B000AF786048
:100E7000064BD3F8902005497B681343C1F89030A6
:100E800000BF0C37BD465DF8047B70470008005872
:100E900080B485B000AF78604FF0B043DA6C4FF0AB
:100EA000B0417B681343CB644FF0B043DA6C7B688E
:100EB0001340FB60FB6800BF1437BD465DF8047B40
:100EC000704780B485B000AF78604FF0B043D3F87E
:100ED0004C214FF0B0417B681343C1F84C314FF0C7
:100EE000B043D3F84C217B681340FB60FB6800BF24
:100EF0001437BD465DF8047B704780B500AF05F040
:100F000035FE05F039FE4FF48030FFF7ADFF12F0EB
:100F1000BDFD00F021F800F0C1F800BF80BD000069
:100F2000B0B588B000AF0B4B3C1D1D460FCD0FC4B4
:100F300095E8070003C422800234130C237012F0DA
:100F4000E1FC3B1D184611F05AFF00BF2037BD469B
:100F5000B0BD00BF5891020880B588B000AF3B1DFE
:100F600000221A605A609A60DA601A610023BB831B
:100F700000237B8300233B830023FB7736E0FB7F4A
:100F8000434ADB0013449B79002B2CD0FB7F404A63
:100F900052F833303F4A93421BD03E4A934221D805
:100FA000B3F1904F03D03C4A934209D01AE0FB7F43
:100FB000374ADB0013449A88BB8B1343BB8312E090
:100FC000FB7F334ADB0013449A887B8B13437B837C
:100FD00009E0FB7F2E4ADB0013449A883B8B1343C6
:100FE0003B8300E000BFFB7F0133FB77FB7F252BBA
:100FF000C5D90023FB600123BB6003233B61BB8B8E
:10100000002B14D0BB8B7B600120FFF741FF012038
:10101000FFF757FF3B1D19464FF0904006F078FC54
:10102000BB8B002219464FF0904006F0F9FD7B8BF8
:10103000002B12D07B8B7B600220FFF729FF022060
:10104000FFF73FFF3B1D1946134806F061FC7B8B01
:1010500000221946104806F0E3FD3B8B002B13D00D
:101060003B8B7B600420FFF713FF0420FFF729FF71
:101070003B1D1946074806F04BFC3B8B00221946E6
:10108000044806F0CDFD00BF00BF2037BD4680BD3F
:10109000C0DC0208000800480004004880B400AF2B
:1010A00000BFBD465DF8047B704780B500AF0020EF
:1010B00001F07FFC00BF80BD80B584B000AFF86058
:1010C0000B467A607B817A897B68F968002001F0A1
:1010D000A5FC00BF1037BD4680BD000080B483B0C2
:1010E00000AF7860064BD3F8902005497B68134326
:1010F000C1F8903000BF0C37BD465DF8047B7047E7
:101100000008005880B483B000AF7860074BD3F874
:10111000803023F0070205497B681343C1F8803013
:1011200000BF0C37BD465DF8047B704700040058D3
:1011300080B483B000AF78604FF0B0430A4AC3F880
:101140009C204FF0B043D3F89C3023F47C527B6852
:101150001B024FF0B0411343C1F89C3000BF0C3765
:10116000BD465DF8047B7047FECAFECA80B483B0FA
:1011700000AF78604FF0B0439B6823F400424FF01B
:10118000B0417B6813438B6000BF0C37BD465DF8F0
:10119000047B704780B400AF4FF0B043D3F8903079
:1011A0004FF0B04243F48033C2F8903000BFBD46E8
:1011B0005DF8047B704780B400AF4FF0B043D3F8C4
:1011C00090304FF0B04223F48033C2F8903000BF2B
:1011D000BD465DF8047B704780B400AF4FF0B0436C
:1011E000D3F8943003F08063B3F1806F01D1012311
:1011F00000E000231846BD465DF8047B704780B4CC
:1012000000AF4FF0B043D3F8943003F08053B3F104
:10121000805F01D1012300E000231846BD465DF840
:10122000047B704780B485B000AF78604FF0B04366
:101230001A6D4FF0B0417B6813430B654FF0B0431C
:101240001A6D7B681340FB60FB6800BF1437BD4616
:101250005DF8047B7047000080B400AF044B1B684E
:10126000C3F30B031846BD465DF8047B704700BF0F
:10127000002004E080B400AF044B1B681B0C9BB241
:101280001846BD465DF8047B704700BF002004E0AF
:1012900080B483B000AF786039607B685A683B687F
:1012A0001B041A437B685A6000BF0C37BD465DF8CB
:1012B000047B704780B483B000AF786039607B688E
:1012C0005A683B681A437B685A6000BF0C37BD46BA
:1012D0005DF8047B704780B483B000AF78603960FC
:1012E0007B685A693B681B041A437B685A6100BFDC
:1012F0000C37BD465DF8047B704780B483B000AF07
:10130000786039607B685A693B681A437B685A6128
:1013100000BF0C37BD465DF8047B704780B483B0D6
:1013200000AF786039607B683A689A6000BF0C371C
:10133000BD465DF8047B704780B483B000AF786031
:1013400039607B683A689A6100BF0C37BD465DF82A
:10135000047B704780B400AF054B1B69044A23F03F
:101360000403136100BFBD465DF8047B704700BFF6
:1013700000ED00E080B483B000AF78607B68FF22AE
:101380005A6200BF0C37BD465DF8047B704780B4DD
:1013900083B000AF78607B68CA225A627B685322B0
:1013A0005A6200BF0C37BD465DF8047B704780B4BD
:1013B00083B000AF786039607B689B6823F00702D8
:1013C0003B681A437B689A6000BF0C37BD465DF8E6
:1013D000047B704780B500AF044B4FF400421A61A4
:1013E00000F054F800F094F800BF80BD00400058B1
:1013F00080B582B000AF194BD3F880301B0303F4E3
:101400007F2303F100637B6000F096F800F0AEF8F4
:101410001349002001F062F8FFF76FFD0121012060
:1014200012F01CFC00F004FA00F00FFA7B68A3F540
:1014300000531A460B4B1A607B68A3F540531A46BB
:10144000094B1A607B68A3F580431A46074B1A6064
:1014500000F09AF800BF0837BD4680BD0040005834
:10146000E0430020B0450020B4450020B8450020EE
:1014700080B400AF00BFBD465DF8047B704780B507
:1014800000AF5020FFF72AFE00BF80BD80B500AF3F
:1014900000F004F800F01AF800BF80BD80B500AF7E
:1014A000FFF79AFE0346002B0DD0FFF7A8FE034678
:1014B000002B08D106F08EFC06F08CFCFFF76AFECC
:1014C000FFF779FE00BF00BF80BD000080B500AF10
:1014D0004FF48010FFF7A6FE3F210C48FFF71EFFD8
:1014E0003F210A48FFF728FF3F210848FFF7D0FEB9
:1014F0003F210648FFF7EFFE3F210448FFF7DAFEE1
:101500003F210248FFF7F9FE00BF80BD000C0058E4
:1015100080B582B000AF002012F036FB78607B68A7
:10152000002B05D07B689B791846FFF701FE00BFB2
:1015300000BF0837BD4680BD80B500AFFFF798FFFC
:10154000FFF79DFF00F002F800BF80BD80B500AF3F
:101550000548FFF71CFF00210348FFF728FF02485A
:10156000FFF708FF00BF80BD0028004080B500AF36
:101570004FF40040FFF7FAFD12F02EFB0420FFF7B6
:10158000C1FD00BF80BD000080B588B000AF12F083
:1015900003F8114A00214FF4806012F08BFC0F4BCE
:1015A0003B600F4B7B603B4619460E4811F0B6FE80
:1015B0000D4BBB600D4BFB600D4B3B6140F23C5350
:1015C0007B6107F10803184612F028F911F0DEFFDD
:1015D00000BF2037BD4680BD5533010834070320C6
:1015E000F51500080D1600084C09032040080320DB
:1015F000F801032080B483B000AF0346FB7100BF45
:101600000C37BD465DF8047B7047000080B588B09C
:1016100000AF78607B685B680B33FB61FB691B88FC
:101620009BB2A3F51243072B60D801A252F823F016
:101630005116000893160008A1160008ED160008C0
:10164000BD160008CD160008D5160008E5160008DE
:1016500007F10C03184611F017FC3B7B19467B7B06
:101660001A46BB7B244825F015F93B7C19462348D4
:1016700025F010F9BB7D1946FB7D1A463B7E2048BC
:1016800025F008F91F4825F005F9786800F070F892
:101690002DE01D4825F0FEF8786800F043F826E0BC
:1016A0001A4825F05FF9FB6902331968FB690233B8
:1016B0005B681A46164825F0EDF818E0FB6902331E
:1016C0001B681946134825F0E5F810E0124825F08C
:1016D000E1F80CE0FB6902331B6819460F4825F05E
:1016E000D9F804E00E4825F0D5F800E000BF00BFAF
:1016F0002037BD4680BD00BF749102089891020852
:10170000B4910208CC910208EC91020810920208F0
:101710006092020888920208C4920208E8920208C5
:101720002493020880B584B000AF78607B685B6862
:101730000B33FB60FB680233BB60BB681B78194648
:10174000084825F0A7F8BB681B78002B03D1064892
:1017500025F008F903E0054825F004F900BF10372B
:10176000BD4680BD4893020878930208B4930208EE
:1017700080B58AB000AF786007F1080300221A60D4
:101780005A609A60DA6000237B6200233B627B68C8
:101790005B680B33FB61FB690233BB61BB691B7880
:1017A000002B28D11D4825F0DDF8FFF7B9FB0F23EA
:1017B0003B727F23BB72FFF75DFD7862796A184840
:1017C00025F068F87B6A9BB2BB82FFF745FD386263
:1017D000396A144825F05EF83B6A9BB2FB8207F138
:1017E0000803184611F03BFB02F0D8F80021012055
:1017F00012F034FA0EE0BB691B78012B06D10A48BF
:1018000025F048F87B6800221A7003E0074825F0AD
:1018100041F800BF2837BD4680BD00BFEC930208E9
:10182000089402082C9402084C9402088094020840
:1018300080B500AF002004F099FF012004F096FF6E
:10184000022004F093FF00BF80BD80B500AF0121EE
:10185000002004F0F9FF0121012004F0F5FF01212F
:10186000022004F0F1FF00BF80BD80B584B000AF5E
:10187000786005F057F9B8607B68FB60FB68B3F1EE
:10188000FF3F0AD005F066F903461A46FB68134489
:10189000FB6002E0FFF75EFD30BF05F043F9024652
:1018A000BB68D31AFA689A42F4D800BF00BF103759
:1018B000BD4680BD80B500AF4FF0FF3012F0FEF99D
:1018C00000BF80BD80B400AF00BFBD465DF8047BA3
:1018D000704780B582B000AF786039604FF0FF305C
:1018E00012F0ECF900BF0837BD4680BD80B582B06C
:1018F00000AF786000214FF4806012F0FDFA00BF65
:101900000837BD4680BD80B582B000AF7860022048
:1019100012F05EFB00BF0837BD4680BD80B582B0C7
:1019200000AF7860022012F073FB00BF0837BD469D
:1019300080BD80B582B000AF0346FB80FB88102BD2
:1019400004D10021402012F0D7FA00E000BF00BF10
:101950000837BD4680BD000080B400AF074B1B694F
:1019600003F40023B3F5002F01D1012300E000238D
:101970001846BD465DF8047B704700BF0040005824
:1019800080B483B000AF786039607B683A682032F9
:1019900053F82230054A934201D0012300E000238E
:1019A00018460C37BD465DF8047B70470004008084
:1019B00080B485B000AFF860B9607A607B6843F4AA
:1019C0008061FB68BA6843F8221000BF1437BD4637
:1019D0005DF8047B704780B483B000AF78603960F5
:1019E0007B683A6853F82230002B01D0012300E0D5
:1019F000002318460C37BD465DF8047B7047000095
:101A000080B586B000AF786039600023FB7300BFFB
:101A100002211D48FFF7B4FF0346002BF8D105F063
:101A2000E3FD012011F002FA00237B610AE07A68ED
:101A30007B691344184600F071F80346FB737B6919
:101A400001337B617A693B689A4202D2FB7B002BAF
:101A5000EDD0FB7B002B05D03A687B69D31A0133AC
:101A60003B610BE0002011F0E1F905F0DFFD002201
:101A700002210548FFF79CFF00233B613B691846A4
:101A80001837BD4680BD00BF0014005880B588B02F
:101A900000AFF860B9607A600023FB7500BF0221D7
:101AA0001D48FFF76DFF0346002BF8D105F09CFDA4
:101AB0000023FB6111E0FB69DA00FB68D118FB69C8
:101AC000DB00BA681344D3E90023084600F042F86B
:101AD0000346FB75FB690133FB61FA697B689A4237
:101AE00002D2FB7D002BE6D0FB7D002B05D07A686F
:101AF000FB69D31A0133BB6108E005F097FD0022B2
:101B000002210548FFF754FF0023BB61BB6918465B
:101B10002037BD4680BD00BF0014005880B584B09A
:101B200000AF78600023BB6002E0BB680133BB609C
:101B3000BB68222BF9D94FF000024FF000037968FF
:101B4000002000F01BF80346FB73FB7B18461037A0
:101B5000BD4680BD80B586B000AFF860C7E9002300
:101B6000D7E90023F968012000F008F80346FB7567
:101B7000FB7D18461837BD4680BD000080B58EB08D
:101B800000AFB960C7E900230346FB73012387F860
:101B9000363002237B610123FB61BB68BB6100BF60
:101BA000FFF7DAFE0346002BFAD1EFF31083BB6296
:101BB000BB6A3B6372B600BF06213648FFF70BFFD6
:101BC000034687F82F3097F82F30002B21D10721BB
:101BD0003048FFF7D5FE034687F8373097F837309F
:101BE000002B16D1FB7B002B08D107F1200207F157
:101BF00014031146184605F0C7FD05E0D7E9002398
:101C0000B968012005F0ACFC002207212148FFF74C
:101C1000CFFE3B6B7B627B6A83F3108800BF97F833
:101C20002F30002B06D0002000F038F8034687F84C
:101C3000363009E097F83730002B05D0012000F04E
:101C40002DF8034687F8363097F83730002B03D14C
:101C500097F82F30002B03D097F83630002B9ED109
:101C600000BF0D4B1B6903F48023B3F5802FF8D020
:101C700097F83630002B03D0002387F8353002E088
:101C8000012387F8353097F8353018463837BD4688
:101C900080BD00BF001400580040005880B483B0DD
:101CA00000AF0346FB71002318460C37BD465DF8B4
:101CB000047B704780B483B000AF7860064BD3F8E4
:101CC000802005497B681343C1F8803000BF0C3782
:101CD000BD465DF8047B70470008005880B483B0AF
:101CE00000AF7860054B1A6804497B6813430B60AA
:101CF00000BF0C37BD465DF8047B704700080058F4
:101D000080B483B000AF0D4B9B6A9BB27B600B4BE2
:101D10009B6A9BB23B6005E03B687B60074B9B6A1C
:101D20009BB23B607A683B689A42F5D13B681846A3
:101D30000C37BD465DF8047B704700BF00280040AB
:101D400080B485B000AF03460A46FB711346BB71F1
:101D5000BA791D4913465B001344DB000B4415336D
:101D60001B78FB73FB7B062B09D0FA7B16491346C5
:101D70005B001344DB000B441433FA791A70FA79D0
:101D8000114913465B001344DB000B441533FA7B07
:101D90001A70FA790C4913465B001344DB000B44BC
:101DA0001433BA791A70BA79074913465B001344A1
:101DB000DB000B441533FA791A7000BF1437BD46A7
:101DC0005DF8047B704700BFFC40002080B485B004
:101DD00000AF03460A46FB711346BB71294B1B78C3
:101DE000DBB2BA799A4232D0BA79274913465B00FE
:101DF0001344DB000B4414331B78FB73FA7B22493A
:101E000013465B001344DB000B441533FA791A7058
:101E1000FA791D4913465B001344DB000B4415336C
:101E2000BA791A70FA79184913465B001344DB003B
:101E30000B441433FA7B1A70BA79134913465B00CA
:101E40001344DB000B441433FA791A7014E0FA7966
:101E50000D4913465B001344DB000B441533BA797C
:101E60001A70BA79084913465B001344DB000B442F
:101E70001433FA791A7000BF1437BD465DF8047B3D
:101E8000704700BF8C410020FC40002080B584B02A
:101E900000AF0346FB714E4B1B78DBB2062B18D10B
:101EA0004B4B1B78DAB24B4B1A70494AFB791370D3
:101EB000FA79494913465B001344DB000B441533A0
:101EC00006221A70454B4FF0FF321A600023FB8147
:101ED00078E000F009F90346FB81FA793E491346A0
:101EE0005B001344DB000B4408331968FB89FA7963
:101EF0001944394813465B001344DB00034408339C
:101F00001960FA79344913465B001344DB000B4433
:101F100008331B68BB602E4B1B78DBB219462E4A78
:101F20000B465B000B44DB00134408331B68BA68A4
:101F30009A4237D3264B1B787B737A7B264913460C
:101F40005B001344DB000B4415331B783B7313E039
:101F50007A7B214913465B001344DB000B441533A5
:101F60001B787B737A7B1C4913465B001344DB00B0
:101F70000B4415331B783B733B7B062B0BD03A7B12
:101F8000154913465B001344DB000B4408331B6800
:101F9000BA689A42DCD27A7BFB7911461846FFF781
:101FA000CFFE0FE00A4B1B78DAB2FB7911461846D8
:101FB000FFF70CFF064B1B78DAB2064B1A70044A87
:101FC000FB791370FB8918461037BD4680BD00BFF2
:101FD0008C4100208D410020FC40002090410020D9
:101FE00080B485B000AF03460A46FB711346BB714F
:101FF000394B1B78DBB2FA799A4211D1364B1B78F8
:10200000DAB2364B1A70FA79354913465B0013443D
:10201000DB000B4415331B78DAB22F4B1A703EE00D
:10202000FA792F4913465B001344DB000B44143349
:102030001B78FB73FA792A4913465B001344DB00D3
:102040000B4415331B78BB73F979FA7B24480B4694
:102050005B000B44DB00034415331B78D8B22049E6
:1020600013465B001344DB000B44153302461A7021
:10207000BB7B062B13D0F979BA7B19480B465B0062
:102080000B44DB00034414331B78D8B214491346C5
:102090005B001344DB000B44143302461A70FA79D8
:1020A0000F4913465B001344DB000B440C33012241
:1020B0001A70094B1B78DBB2062B07D1BB79002BBA
:1020C00004D1084B4FF0FF321A6000BF00BF143735
:1020D000BD465DF8047B70478C4100208D41002097
:1020E000FC4000209041002080B582B000AF1A4B28
:1020F0001B68B3F1FF3F26D0FFF702FE7860164B56
:102100001B687A689A4205D8134B1A687B68D31A01
:102110007B600AE0114B1B881A467B68D31A3B6030
:102120000D4B1B683A6813447B600D4B1B781A46B5
:102130007B6802FB03F37B600A4B1B781A467B68C3
:10214000D3407B6001E000237B607B689BB2184634
:102150000837BD4680BD00BF904100209841002057
:10216000964100209541002080B582B000AF034623
:10217000FB80FB88002B08D1FFF7C2FD0346214AF4
:102180001360032004F07BFE39E0FB88012B03D8A9
:102190001D4B1B78012B02D0FB88013BFB8000BF4D
:1021A0001A4B1B68DB6803F00403002BF8D0174BB5
:1021B0001B68DB68DAB2154B1B6862F49062DA6068
:1021C000134B4FF40022DA60032004F066FE114B3B
:1021D0005B691B0C1B04FA880E4913434B61FFF724
:1021E0008FFD0346074A1360084B1B689A68074B2C
:1021F0001B6842F480629A60AFF3008000BF08372A
:10220000BD4680BD9041002095410020E043002064
:10221000000800580028004080B584B000AF454B4E
:102220009B6803F48063B3F5806F07D100BF424B16
:102230001B68DB6803F00403002BF8D13E4B1B68DE
:102240009A683D4B1B6822F480629A603B4B1B7876
:10225000FB73FA7B3A4913465B001344DB000B44E3
:1022600008331B68BB60FFF73FFF0346FB80FB881A
:10227000BA689A4205D20023BB81324B01221A7000
:102280004DE0FB88304A128892B213441A46BB686C
:10229000934206D92C4B1B88BB812A4B00221A7013
:1022A0003DE0BB689AB2FB88D31ABB81254B012263
:1022B0001A7034E0FA7B224913465B001344DB00BA
:1022C0000B4408331A68FB889A420AD2FA7B1C49ED
:1022D00013465B001344DB000B44083300221A60F2
:1022E00013E0FA7B164913465B001344DB000B44F2
:1022F00008331968FB88FA7BC91A114813465B003A
:102300001344DB00034408331960FA7B0C4913467D
:102310005B001344DB000B4415331B78FB73FB7B22
:10232000062BC7D1BB891846FFF71EFF00BF103729
:10233000BD4680BD00280040E04300208C410020C5
:10234000FC400020944100209A41002080B58AB0D2
:1023500000AFEFF310837B617B697B6272B600BFD5
:10236000594B1B68CA225A62574B1B6853225A6248
:10237000554B1B689A68544B1B6822F480629A6024
:10238000524B1B7887F8233097F823205049134687
:102390005B001344DB000B440C331B78DBB2022BD5
:1023A0006ED197F823204A4913465B001344DB00A3
:1023B0000B441B68FB6197F82320454913465B00DB
:1023C0001344DB000B4410331B68BB61414B1B788B
:1023D000DBB2002B4CD097F823203D4913465B001D
:1023E0001344DB000B440D331B78DBB2012B24D1EB
:1023F00097F8233001211846FFF7F2FD7B6A3B6115
:102400003B6983F3108800BF97F8232030491346B7
:102410005B001344DB000B4404331A6897F8233045
:102420001146184600F032FA274B1B68CA225A623E
:10243000254B1B6853225A6212E07B6AFB60FB68E3
:1024400083F3108800BF97F82330184600F09AF9FC
:102450001D4B1B68CA225A621B4B1B6853225A62CF
:1024600097F82330FA691946B86900F095FA22E026
:10247000FFF7D2FE7B6ABB60BB6883F310881AE06B
:1024800000BF114B1B68DB6803F00403002BF8D07E
:102490000D4B1B68DB68DAB20B4B1B6862F4906271
:1024A000DA600D4B4FF40022DA607B6A7B607B6858
:1024B00083F3108800BF044B1B68FF225A6200BFE1
:1024C0002837BD4680BD00BFE04300208C4100207E
:1024D000FC400020944100200008005880B588B0DE
:1024E00000AF03463960FB715E4B1B68CA225A621B
:1024F0005C4B1B6853225A625B4B9B685A4A43F001
:1025000020039360584B9B68DBB203F00703DBB2F8
:10251000C3F10403DAB2554B1A70534B1B6903F431
:10252000FE034FF4FE023A613A6992FAA2F2FA60AF
:10253000FA687A617A69002A01D1202203E07A6977
:10254000B2FA82F2D2B2D340DBB20133DAB2484BF4
:102550001A70454B1B699BB2C3F30E039BB2013348
:102560009AB2444B1A80434B1B88013B404A127875
:1025700002FB03F3A3F5A0733C4A1278D340BB617E
:10258000BB694FF6FE72934204D93B4B4FF6FF7284
:102590001A8003E0BB699AB2374B1A804FF40020CF
:1025A000FFF79CFB4FF40020FFF784FBFB79002B27
:1025B0003DD1324B01221A70314B4FF0FF321A607D
:1025C0000023FB770CE0FA7F2E4913465B0013448F
:1025D000DB000B440C3300221A70FB7F0133FB77C6
:1025E000FB7F052BEFD9284B06221A701D4B1B6869
:1025F0009A681C4B1B6822F480629A60194B1B6816
:10260000DB68DAB2174B1B6862F49062DA601F4B2A
:102610004FF40022DA60032004F03FFC114B1B68EA
:102620009A68104B1B6842F480429A6009E00D4B97
:102630001B68DB6803F48063002B02D0032004F0E6
:102640001EFC084B1B68FF225A6200220321032054
:1026500004F0D3FB032004F0EAFB00BF2037BD46A3
:1026600080BD00BFE04300200028004095410020CD
:1026700096410020984100209A410020944100207A
:1026800090410020FC4000208C41002000080058B0
:1026900080B48BB000AFF860B9603B601346FB714B
:1026A000002387F82630EFF31083FB61FB693B6260
:1026B00072B600BF04E097F82630013387F8263061
:1026C00097F82630052B0CD897F826202C4913466E
:1026D0005B001344DB000B440C331B78DBB2002B94
:1026E000E9D197F82630062B38D097F826202449D0
:1026F00013465B001344DB000B440C3301221A70B9
:102700003B6ABB61BB6983F3108800BF97F8262042
:102710001B4913465B001344DB000B441033FA687B
:102720001A6097F82620164913465B001344DB0015
:102730000B440D33FA791A7097F826201049134686
:102740005B001344DB000B443A681A60BB6897F8DF
:1027500026201A70002387F8273008E03B6A7B6147
:102760007B6983F3108800BF012387F8273097F82F
:10277000273018462C37BD465DF8047B704700BFF4
:10278000FC40002080B586B000AF0346FB71EFF33C
:102790001083FB60FB687B6172B600BF032004F00E
:1027A00054FB344B1B68CA225A62324B1B685322BB
:1027B0005A62FA79304913465B001344DB000B443C
:1027C0000C331B78DBB2022B42D1FB790021184677
:1027D000FFF706FC294B1B78FB74FB7C062B2FD1E3
:1027E000274B9B6803F48063B3F5806F07D100BF6C
:1027F000204B1B68DB6803F00403002BF8D11D4B52
:102800001B689A681B4B1B6822F480629A6000BFA9
:10281000184B1B68DB6803F00403002BF8D0154B42
:102820001B68DB68DAB2134B1B6862F49062DA60F3
:10283000144B4FF40022DA60032004F02EFB07E073
:10284000114B1B78DBB2FA7C9A4201D0FFF7E4FC13
:10285000084B1B68FF225A62032004F0E8FA7B69E8
:10286000BB60BB6883F3108800BF00BF1837BD464C
:1028700080BD00BFE0430020FC4000208C410020D0
:1028800000280040000800588D41002080B586B027
:1028900000AF03463960FB71FA793B4913465B0090
:1028A0001344DB000B440C331B78DBB2022B03D147
:1028B000FB791846FFF766FFEFF31083FB60FB68B8
:1028C0007B6172B600BF032004F0BFFA2F4B1B6878
:1028D000CA225A622D4B1B6853225A62FA792A493E
:1028E00013465B001344DB000B440C3302221A70C6
:1028F000FA79254913465B001344DB000B44083387
:102900003A681A60FA79204913465B001344DB00E9
:102910000B4404333A681A60FB791846FFF7B6FA9D
:1029200003467B821A4B1B787B741A4B1B78DBB2F5
:102930007A7C9A4202D0FFF76FFC13E0FA791249D1
:1029400013465B001344DB000B44083319687B8A91
:10295000FA79C91A0C4813465B001344DB000344A0
:1029600008331960094B1B68FF225A62032004F0E8
:102970005EFA7B69BB60BB6883F3108800BF00BF51
:102980001837BD4680BD00BFFC400020E04300205A
:102990008C4100208D41002080B584B000AFF860EC
:1029A0000B467A60FB727B68984700BF1037BD46C4
:1029B00080BD80B582B000AF0346FB71FB79002B70
:1029C00002D100F027FA00E000BF00BF0837BD4683
:1029D00080BD000080B584B000AFB9607B60034665
:1029E000FB731346BB81FB7B002B0CD1084A7B6831
:1029F0001360084B084A1A60BB891A46B968054833
:102A000008F096F900E000BF00BF1037BD4680BD5A
:102A10009C410020784200200038014080B586B0FB
:102A200000AFB9607B600346FB731346BB81002394
:102A3000FB750023BB75FB7B002B0ED1174A7B680F
:102A40001360174B174A1A60BB891A46B9681448B5
:102A500008F0BAF90346FB7500E000BFFB7D032BCD
:102A600016D801A252F823F0792A00087F2A00081C
:102A7000852A00088B2A00080023BB7509E0012382
:102A8000BB7506E00223BB7503E00323BB7500E0C2
:102A900000BFBB7D18461837BD4680BDA041002051
:102AA000784200200038014080B582B000AF7860E5
:102AB00000F096FE0346134A13607B681B68124AB7
:102AC00093420AD0114A934212D1114B1B68002B3A
:102AD00010D00F4B1B6898470CE00A4B1B681B6813
:102AE0007A689A4208D1074B1B6801225A6003E0BA
:102AF00000BF02E000BF00E000BF00BF0837BD46D6
:102B000080BD00BFA441002000800040003801408B
:102B10009C41002080B582B000AF78607B681B6864
:102B20001A46094B9A4207D1084B1B68002B05D067
:102B3000064B1B68984701E000BF00E000BF00BFE4
:102B40000837BD4680BD00BF00380140A0410020CD
:102B500080B483B000AF78604FF0B043D3F89030CA
:102B600023F018024FF0B0417B681343C1F8903056
:102B700000BF0C37BD465DF8047B704780B485B05C
:102B800000AF78604FF0B0439A6C4FF0B0417B6873
:102B900013438B644FF0B0439A6C7B681340FB6027
:102BA000FB6800BF1437BD465DF8047B704780B4F6
:102BB00085B000AF78604FF0B043DA6C4FF0B041B1
:102BC0007B681343CB644FF0B043DA6C7B681340EF
:102BD000FB60FB6800BF1437BD465DF8047B70479F
:102BE00080B500AF03F030FFFEF7F4FB00F034F8DF
:102BF00000F090F800F0AEF800F0CAF900F0AAF981
:102C000000F056F900F072F900F05AF900F0B6F849
:102C10004FF48050FFF7B2FF00F0E6F9FEF7E8FB53
:102C20000A4800F0B7FD0346002B01D000F052FA2D
:102C30000021074800F0DEFD0346064A136000212C
:102C4000034807F03DF9FEF735FEFCE7E4410020BC
:102C5000044400205044002080B59AB000AF07F132
:102C6000200348220021184623F0B2FF3B1D00221A
:102C70001A605A609A60DA601A615A619A6105F0C6
:102C8000A9F80020FFF764FF214B1B6823F4C06301
:102C90001F4A43F4007313601D4B1B6803F4C063A9
:102CA0003B603B6847233B624FF480337B620123E8
:102CB000BB624FF48073FB620123BB6440233B6320
:102CC0000023FB6407F12003184605F017FC0346B8
:102CD000002B01D000F0FEF96F237B600223BB6064
:102CE0000023FB6000233B6100237B610023BB6169
:102CF0000023FB613B1D0121184605F073FF0346CD
:102D0000002B01D000F0E6F900BF6837BD4680BD5A
:102D10000004005880B594B000AF3B46502200211B
:102D2000184623F055FF4FF440533B604FF4804367
:102D30007B640223BB641023FB643B46184606F009
:102D40008EFB0346002B01D000F0C4F900BF5037C2
:102D5000BD4680BD80B500AF064B074A1A600548E6
:102D600004F0B2FF0346002B01D000F0B3F900BF1E
:102D700080BD00BFA8410020000C005880B500AF06
:102D8000224B234A1A60214B4FF416525A601F4BB4
:102D900000229A601D4B0022DA601C4B00221A614F
:102DA0001A4B0C225A61194B00229A61174B0022D0
:102DB0001A62164B00225A62144B00229A62134B7D
:102DC00000225A66114807F063FF0346002B01D02A
:102DD00000F080F900210D4809F0F0FF0346002BB8
:102DE00001D000F077F9002108480AF025F80346E1
:102DF000002B01D000F06EF9044809F0A6FF03464D
:102E0000002B01D000F066F900BF80BDE441002036
:102E10000080004080B500AF234B244A1A60224B4B
:102E20004FF4E1325A60204B00229A601E4B002280
:102E3000DA601D4B00221A611B4B0C225A611A4B9F
:102E400000229A61184B4FF40042DA61164B0022BF
:102E50001A62154B00225A62134B00229A621248E2
:102E600007F016FF0346002B01D000F033F90021D4
:102E70000D4809F0A3FF0346002B01D000F02AF90A
:102E80004FF02061084809F0D7FF0346002B01D01E
:102E900000F020F9044809F01DFF0346002B01D083
:102EA00000F018F900BF80BD7842002000380140D2
:102EB00080B400AF00BFBD465DF8047B70470000E2
:102EC00080B500AF074B084A1A60064B00225A60D3
:102ED000044806F04BFD0346002B01D000F0FAF841
:102EE00000BF80BDCC4300200010005880B500AF6B
:102EF000164B174A1A60154B00225A60134B0F22CB
:102F00009A60124B47F6FF72DA60104B00221A618A
:102F10000E4B00229A610D4B0022DA610B4B00220E
:102F20005A610A4806F058FD0346002B01D000F014
:102F3000D1F800220021054806F04EFE0346002B82
:102F400001D000F0C7F800BF80BD00BFE043002003
:102F50000028004080B500AF0420FFF70FFE0120DD
:102F6000FFF70CFE0220FFF709FE00220F210E20C2
:102F700003F043FF0E2003F05AFF00220F213A20F6
:102F800003F03BFF3A2003F052FF00BF80BD00007A
:102F900080B586B000AF0420FFF709FE0120FFF7DF
:102FA00006FE0220FFF703FE002201210D4804F077
:102FB00037FE3B1D00221A605A609A60DA601A617F
:102FC00001237B600123BB600223FB6000233B6184
:102FD0003B1D1946034804F09BFC00BF1837BD4653
:102FE00080BD00BF0008004880B58EB000AF07F17B
:102FF000280300221A605A609A60DA6007F11C0305
:1030000000221A605A609A603B4600221A605A6099
:103010009A60DA601A615A619A612D4B4FF08042D2
:103020001A602B4B1F225A60294B00229A60284BB2
:10303000C722DA60264B00221A61254B00229A61D2
:10304000234806F085FE0346002B01D000F042F82D
:103050004FF48053BB6207F1280319461C4807F060
:103060001DF90346002B01D000F034F8184806F093
:10307000C6FE0346002B01D000F02CF80023FB61B4
:1030800000237B6207F11C031946114807F080FDFD
:103090000346002B01D000F01DF860233B600023A5
:1030A0007B600023BB6000233B613B460022194646
:1030B000074806F0DFFF0346002B01D000F00AF8B6
:1030C000034800F0ACF800BF3837BD4680BD00BFF4
:1030D0000444002080B400AF00BFBD465DF8047B0F
:1030E000704780B400AF4FF0B043D3F890304FF04A
:1030F000B04243F40043C2F8903000BFBD465DF8D3
:10310000047B704780B485B000AF78604FF0B04367
:10311000DA6C4FF0B0417B681343CB644FF0B0439F
:10312000DA6C7B681340FB60FB6800BF1437BD4658
:103130005DF8047B704780B485B000AF78604FF0D5
:10314000B0431A6D4FF0B0417B6813430B654FF0ED
:10315000B0431A6D7B681340FB60FB6800BF1437F7
:10316000BD465DF8047B704780B485B000AF7860E1
:103170004FF0B0439A6D4FF0B0417B6813438B65BD
:103180004FF0B0439A6D7B681340FB60FB6800BF53
:103190001437BD465DF8047B704780B485B000AF3E
:1031A00078604FF0B043DA6D4FF0B0417B68134365
:1031B000CB654FF0B043DA6D7B681340FB60FB6872
:1031C00000BF1437BD465DF8047B704780B485B0FE
:1031D00000AF78604FF0B0431A6E4FF0B0417B689B
:1031E00013430B664FF0B0431A6E7B681340FB60CD
:1031F000FB6800BF1437BD465DF8047B704780B59F
:1032000082B000AF78607B681B68B3F1804F02D159
:103210000120FFF7A9FF00BF0837BD4680BD80B57C
:1032200088B000AF786007F10C0300221A605A6082
:103230009A60DA601A617B681B68B3F1804F13D122
:103240000120FFF75FFF0123FB6002233B610023A6
:103250007B610023BB610123FB6107F10C0319466D
:103260004FF0904004F054FB00BF2037BD4680BDB6
:1032700080B500AF4FF40020FFF75DFF0022002172
:103280002E2003F0BAFD2E2003F0D1FD00BF80BD3B
:1032900080B582B000AF78607B681B680D4A9342AE
:1032A00013D14FF48010FFF746FF002200212C209D
:1032B00003F0A3FD2C2003F0BAFD002200212D20F5
:1032C00003F09BFD2D2003F0B2FD00BF0837BD4683
:1032D00080BD00BF000C005880B5A0B000AF786082
:1032E00007F16C0300221A605A609A60DA601A6172
:1032F00007F10C0350220021184623F069FC7B687B
:103300001B68514A934240D10223FB600023BB62F9
:1033100007F10C03184606F0A2F80346002B01D073
:10332000FFF7D8FE0120FFF738FF0420FFF7EAFE81
:103330000120FFF7E7FE0223FB6602233B67002321
:103340007B670023BB670823FB6707F16C03194603
:103350003E4804F0DDFA0823FB6602233B670023A6
:103360007B670023BB670823FB6707F16C031946E3
:103370004FF0904004F0CCFA00220021252003F009
:103380003CFD252003F053FD5AE07B681B68304A62
:10339000934255D10123FB6000237B6207F10C03AC
:1033A000184606F05CF80346002B01D0FFF792FEAA
:1033B0004FF48040FFF70AFF0220FFF7A3FEC0236F
:1033C000FB6602233B6700237B670323BB6707235E
:1033D000FB6707F16C0319461E4804F099FA1E4B6F
:1033E0001E4A1A601C4B0F225A601B4B10229A6017
:1033F000194B0022DA60184B80221A61164B00220A
:103400005A61154B00229A61134B0022DA61124B6C
:1034100000221A62104803F04FFD0346002B01D032
:10342000FFF758FE7B680C4ADA670B4A7B689362A9
:1034300000220021242003F0E0FC242003F0F7FC0C
:1034400000BF8037BD4680BD0080004000080048B6
:1034500000380140000400486C430020440402404E
:1034600080B596B000AF786007F1080350220021C4
:10347000184623F0ADFB7B681B680D4A934213D1BD
:103480004FF40073BB604FF080533B6407F10803B7
:10349000184605F0E4FF0346002B01D0FFF71AFEA3
:1034A0004FF48020FFF747FE00BF5837BD4680BD70
:1034B0000010005880B596B000AF786007F108039F
:1034C00050220021184623F083FB7B681B68124AB8
:1034D00093421DD14FF40063BB604FF48073BB6413
:1034E00007F10803184605F0BAFF0346002B01D088
:1034F000FFF7F0FDFFF7F5FD4FF48060FFF734FEB6
:1035000000220021032003F078FC032003F08FFC4D
:1035100000BF5837BD4680BD0028004080B400AFD2
:1035200000BFBD465DF8047B7047000080B500AF6A
:10353000022003F055F9024823F014FA00BFFDE71A
:10354000B494020880B400AF00BFFDE780B400AFC0
:1035500000BFFDE780B400AF00BFFDE780B400AF5F
:1035600000BFBD465DF8047B704780B400AF00BF6C
:10357000BD465DF8047B704780B400AF00BFBD4618
:103580005DF8047B704780B500AF03F0B7FA00BF69
:1035900080BD80B500AFFEF7D9FE00BF80BD000042
:1035A00080B500AF024803F068FE00BF80BD00BFD9
:1035B0000C43002080B500AF024807F085FC00BF37
:1035C00080BD00BF7842002080B500AF024807F000
:1035D0007BFC00BF80BD00BFE441002080B500AF90
:1035E00002F036FF00BF80BD80B500AF02F066FF7D
:1035F00000BF80BD80B500AF04F042FB00BF80BDBE
:1036000080B500AF024803F038FE00BF80BD00BFA8
:103610006C43002080B500AF102004F019FB00BF00
:1036200080BD80B500AF012004F012FB00BF80BD5B
:1036300080B500AF022004F00BFB00BF80BD80B45A
:1036400000AF01231846BD465DF8047B704780B586
:1036500082B000AF7860396023F03EFB034616224B
:103660001A604FF0FF3318460837BD4680BD80B55D
:1036700082B000AF78604FF0FF317868FFF7E7FF66
:1036800000BFFDE780B586B000AFF860B9607A6032
:1036900000237B610AE0AFF300800146BB685A1C3F
:1036A000BA60CAB21A707B6901337B617A697B6840
:1036B0009A42F0DB7B6818461837BD4680BD80B45F
:1036C00083B000AF78604FF0FF3318460C37BD462B
:1036D0005DF8047B704780B483B000AF78603960D8
:1036E0003B684FF400525A60002318460C37BD4621
:1036F0005DF8047B704780B483B000AF786001232D
:1037000018460C37BD465DF8047B704780B485B021
:1037100000AFF860B9607A60002318461437BD46E0
:103720005DF8047B7047000080B586B000AF78601C
:10373000144A154BD31A7B617B693B61134B1B68A1
:10374000002B02D1114B124A1A60104B1A687B6889
:1037500013443A699A4207D223F0BEFA03460C2278
:103760001A604FF0FF3309E0084B1B68FB60074B02
:103770001A687B681344054A1360FB6818461837BB
:10378000BD4680BD0000032000100000544400200E
:103790000882002080B586B000AF78607B68002B7F
:1037A00007D10C4B9B6A19460B4823F019FA822368
:1037B0000CE00A4A7B681360084B00225A60074BF2
:1037C00000221A72054B00225A720023184618373D
:1037D000BD4680BD7400002058440020584500209C
:1037E00080B400AF024B1846BD465DF8047B7047BD
:1037F0005845002080B584B000AF786039607B68A0
:10380000002B07D0082022F063FA0346FB60FB6818
:10381000002B01D1002306E0FB687A681A60FB6880
:103820003A685A60FB6818461037BD4680BD0000F4
:1038300080B483B000AF0346FB80B7F9062013467F
:103840001B049B1A084A82FB03125211DB17D31A7E
:103850009BB2A3F500439BB21BB218460C37BD4682
:103860005DF8047B704700BF1F85EB5180B485B0C5
:1038700000AF78600B467B800023FB730023BB8185
:10388000B7F9023003F50043642202FB03F30D4A4B
:1038900082FB03121A44D213DB17D31AFB73FB7B90
:1038A0007A681268D268013202FB03F3064AA2FB6F
:1038B00003235B09BB81BB8918461437BD465DF8FD
:1038C000047B7047018000801F85EB5180B483B07A
:1038D00000AF78600B467B807B685B68002B05D16E
:1038E0007B681B681B687A885A632CE07B685B687E
:1038F000042B05D17B681B681A687B88936322E0E0
:103900007B685B68082B05D17B681B681A687B881D
:10391000D36318E07B685B680C2B05D17B681B6860
:103920001A687B8813640EE07B685B68102B05D1F6
:103930007B681B681A687B88936504E07B681B685A
:103940001A687B88D36500BF0C37BD465DF8047BE1
:103950007047000080B400AF034B1B681846BD469B
:103960005DF8047B704700BF8075FF1F80B400AF17
:10397000034B1B68DBB21846BD465DF8047B7047FD
:103980008475FF1F80B400AF034B1B681B0A1846E9
:10399000BD465DF8047B70478475FF1FB0B596B0D7
:1039A00004AF3A4B3C1D1D460FCD0FC40FCD0FC4C5
:1039B0000FCD0FC495E8070003C4228000F080F803
:1039C0000121022010F04AF90121022010F016F91D
:1039D0002F4A00214FF4007010F06CFA3B1D18467E
:1039E0000FF0F6F9034687F8473097F84730002B79
:1039F00008D097F847301946264822F04BFFFFF7CA
:103A000069FB02E0244822F045FF922387F8463004
:103A100000F06CF838643A6C062100200EF0A8FD26
:103A2000034687F8463097F84630002B06D097F8C3
:103A300046301946194822F02DFF21E0184822F09F
:103A400091FF3B6C05331B7818463B6C04331B78A5
:103A50001C463B6C03331B781D463B6C02331B78C2
:103A60001A463B6C01331B7819463B6C1B7802935A
:103A7000019100922B46224601460A4822F00AFF95
:103A80000DF084FA00BF4837BD46B0BD3897020834
:103A90001D300108F49502082C960208549602087D
:103AA000B0960208FC96020880B582B000AF78603C
:103AB000786818F0F7FE012318460837BD4680BD28
:103AC00080B582B000AF064B3B60064B7B603B4647
:103AD000194605480FF086FA00BF0837BD4680BD7D
:103AE00028000320F33B0008BB3B000880B586B0EC
:103AF00000AFFFF72FFF38613B69B3F1FF3F23D0E1
:103B0000FFF740FFB860FFF731FF78603B69DAB23A
:103B1000164B1A703B691B0ADAB2144B5A707B6859
:103B2000DAB2124B9A70BB68DAB2104BDA70BB682B
:103B30001B0ADAB20D4B1A71BB681B0CDAB20B4BC5
:103B40005A710A4B7B610BE0002010F01DF8F86001
:103B5000FB68002B02D0FB687B6101E0044B7B61BA
:103B60007B6918461837BD4680BD00BF64450020FC
:103B7000F0DD020880B582B000AF786000214FF41C
:103B8000007010F0B9F900BF0837BD4680BD80B5A0
:103B900082B000AF7860012010F01AFA00BF083739
:103BA000BD4680BD80B582B000AF7860012010F0C6
:103BB0002FFA00BF0837BD4680BD80B584B000AF86
:103BC00078607B68FB60FB685B68083318460DF023
:103BD00015FA0346FB72FB7A002B03D0FB68012227
:103BE0001A7003E0FB6800221A7000BF1037BD4650
:103BF00080BD80B584B000AF0346FB71FB79002B1C
:103C000002D0012B07D00DE040F2FF33FB60F868D3
:103C100010F09EF906E040F2FF33FB60F86810F008
:103C2000B7F900BF00BF1037BD4680BD80B584B076
:103C300000AF78607B681B8819467B685B881A46F2
:103C4000164822F027FE7B685B7B1946144822F059
:103C500021FE7B685B7B002B1CD1124822F01AFEF0
:103C60000023FB730EE07B689B681B7819460E48A7
:103C700022F010FE7B689B685A1C7B689A60FB7B75
:103C80000133FB737B681B7BFA7B9A42EBD30748BB
:103C900022F068FE00BF1037BD4680BD7497020851
:103CA000B4970208C8970208D4970208DC97020864
:103CB00080B582B000AF78607B681B8819467B684E
:103CC0005B881A46064822F0E5FD7B685B7B194657
:103CD000044822F0DFFD00BF0837BD4680BD00BFAD
:103CE000E0970208B497020880B584B000AF78600E
:103CF0007B681B881946174822F0CCFD7B689B7AAD
:103D00001946154822F0C6FD7B689B7A002B1DD111
:103D1000124822F027FE0023FB730EE07B685B68ED
:103D20001B8819460E4822F0B5FD7B685B689A1C1B
:103D30007B685A60FB7B0133FB73FB7B9AB27B6829
:103D40001B899A42EAD3074822F00CFE00BF1037C5
:103D5000BD4680BD24980208B49702084C9802081A
:103D6000D4970208DC97020880B584B000AF786071
:103D70007B681B8819467B685B881A46184822F0C6
:103D800089FD7B685B7B1946164822F083FD7B68C2
:103D90005B7B002B1FD1144822F07CFD0023FB73BA
:103DA0000EE07B689B681B781946104822F072FD74
:103DB0007B689B685A1C7B689A60FB7B0133FB73B2
:103DC0007B681B7BFA7B9A42EBD3094822F0CAFD41
:103DD000084822F0C7FD00BF1037BD4680BD00BFB8
:103DE00064980208B4970208A8980208D4970208B9
:103DF000DC970208BC98020880B584B000AF7860F8
:103E00007B681B881946174822F044FD7B685B7B62
:103E10001946154822F03EFD7B685B7B002B1CD1C8
:103E2000124822F037FD0023FB730EE07B685B68CD
:103E30001B7819460E4822F02DFD7B685B685A1CE2
:103E40007B685A60FB7B0133FB737B681B7BFA7BCF
:103E50009A42EBD3074822F085FD00BF1037BD46DC
:103E600080BD00BFF4980208B497020824990208A4
:103E7000D4970208DC97020880B582B000AF786062
:103E80007B681B881946064822F004FD7B685B7B33
:103E90001946044822F0FEFC00BF0837BD4680BD2D
:103EA00030990208B497020880B584B000AF7860FA
:103EB0007B689B791946124822F0ECFC114822F0ED
:103EC00051FD0023FB730EE07B681B681B881946BD
:103ED0000D4822F0DFFC7B681B689A1C7B681A6027
:103EE000FB7B0133FB73FB7B9AB27B689B889A4216
:103EF000EAD3064822F036FD00BF1037BD4680BD2C
:103F0000B497020860990208D4970208DC97020867
:103F100080B584B000AF78607B681B88194618486C
:103F200022F0B8FC7B685B7B1946164822F0B2FC95
:103F30007B685B7B002B1FD1134822F0ABFC002376
:103F4000FB730EE07B685B681B7819460F4822F014
:103F5000A1FC7B685B685A1C7B685A60FB7B013361
:103F6000FB737B681B7BFA7B9A42EBD3084822F0F9
:103F7000F9FC084822F0F6FC00BF1037BD4680BDB2
:103F800078990208B4970208A8990208D497020801
:103F9000DC970208BC99020880B584B002AF786053
:103FA0007B681B7819467B685A687B685B88184673
:103FB0007B681B7A00930346034822F06BFC00BF2A
:103FC0000837BD4680BD00BFF499020880B584B0B3
:103FD00002AF78607B681B7819467B685A687B68FB
:103FE0005B8818467B681B7A00930346034822F0DF
:103FF00051FC00BF0837BD4680BD00BF5C9A020877
:1040000080B582B000AF78607B689B7A1946104813
:1040100022F040FC7B68DB7A002B0AD07B681B789F
:1040200019467B685A687B681B890A4822F032FC73
:1040300009E07B681B7819467B685A687B681B8996
:10404000054822F027FC00BF0837BD4680BD00BFF1
:10405000B4970208C89A0208249B020880B582B06F
:1040600000AF78607B689B7A1946174822F012FCF3
:104070007B68DB7A002B0AD07B681B7819467B684B
:104080005A687B681B89114822F004FC17E07B68A2
:104090001B7B002B09D07B681B7819467B685B680B
:1040A0001A460B4822F0F6FB09E07B681B7819469C
:1040B0007B685A687B681B89064822F0EBFB00BFCF
:1040C0000837BD4680BD00BFB4970208789B020840
:1040D000DC9B0208249C020880B582B000AF7860A7
:1040E0007B689B7A1946104822F0D4FB7B68DB7A08
:1040F000002B0AD07B681B7819467B685A687B685E
:104100001B890A4822F0C6FB09E07B681B78194628
:104110007B685A687B681B89054822F0BBFB00BF9F
:104120000837BD4680BD00BFB49702087C9C0208DA
:10413000DC9C020880B582B000AF78607B6859686B
:104140007B681B781A46074822F0A4FB7B685B68F3
:10415000B3F5885F02D178680CF018FE00BF08370D
:10416000BD4680BD349D0208F0B589B006AF7860C9
:104170007B685B7C1946144822F08CFB7B681B7BB8
:104180001E467B681B789C467B685A687B685B8907
:1041900019467B689B7B18467B68DB7B1C467B68EB
:1041A0001B7C1D467B685B7B049303950294019006
:1041B0000091134662463146044822F06BFB00BF73
:1041C0000C37BD46F0BD00BFB4970208789D0208C9
:1041D00080B582B000AF7860084611461A460346A3
:1041E000FB700B463B801346BB70BB78002B6DD138
:1041F000BA787B681878434913469B0013440B44F4
:1042000002461A70BA787B68B3F8013098B23D491B
:1042100013469B0013440B440246A3F80120FB788D
:10422000032B02D0FB78022B33D1BA787B68B3F82A
:10423000033098B2334913469B0013440B440246A3
:10424000A3F80320BA782F4913469B0013440B446C
:10425000B3F8013099B2BA782A4813469B00134448
:104260000344B3F803309BB299422FD1BA78254961
:1042700013469B0013440B44B3F801309BB2002B50
:1042800003D0002002F0ACFA20E0002002F0C2FAD5
:104290001CE0BA781B4913469B0013440B441B785F
:1042A000012B0BD1FB78012B08D1012201211648EB
:1042B00003F0B6FC002002F093FA07E0002201218F
:1042C000114803F0ADFC002002F0A4FA00210F48D1
:1042D00008F0C6FEBB7819460D4822F0DBFA002133
:1042E0000A4808F0BDFEBB7819460A4822F0D2FA07
:1042F000BB781946012009F09FF8002318460837BB
:10430000BD4680BD6C45002000080048F8DD02086D
:104310007C9E0208C09E020880B582B000AF786023
:10432000084611461A460346FB700B463B8013466F
:10433000BB70BA787B68B3F9003018B239491346BC
:104340005B0013449B000B4402461A80BA7835493F
:1043500013465B0013449B000B44B3F90030002B61
:1043600008DCBA782F4913465B0013449B000B44CA
:1043700000221A80BA782B4913465B0013449B0035
:104380000B44B3F900309AB2274B1A80264B1A8897
:10439000264B1B889A4205D9234B1B8847F6F542CA
:1043A000934203D9204B1B88002B03D1204B0022C2
:1043B0001A7002E01E4B01221A701B4B1A881B4B0D
:1043C0001A80BA78174913465B0013449B000B44CC
:1043D000B3F90030002B08DABA78124913465B00B3
:1043E00013449B000B4400221A800021114808F05E
:1043F00037FEBB781946104822F04CFA00210D48D0
:1044000008F02EFEBB7819460C4822F043FABB7820
:104410001946022009F010F8002318460837BD4657
:1044200080BD00BF744500209645002086450020D1
:104430009845002010DE0208E09E0208249F020832
:1044400090B585B000AF7860084611461A4603461D
:10445000FB700B463B801346BB700023FB8100239F
:10446000BB8100237B8100233B817B68B3F9003053
:104470001BB2BC781846FFF7DBF9034619467F4AA2
:1044800023465B0023449B00134402330A461A80F0
:1044900000217B4808F0E4FDBA78784913465B00B8
:1044A00013449B000B440233B3F90030194675489E
:1044B00022F0F0F9B6E0BA78704913465B00134475
:1044C0009B000B440233B3F9003099B2BA786B48C1
:1044D00013465B0013449B000344B3F900309BB2C6
:1044E000CB1A9BB27B81B7F90A30002BB8BF5B4275
:1044F0009BB2B3F57A7F28BF4FF47A739BB23B81AE
:10450000B7F90A30002B17DDBA785C4913465B0017
:1045100013449B000B44B3F900309AB23B89134417
:104520009BB2BA7818B2554913465B0013449B00FE
:104530000B4402461A8016E0BA78504913465B00D5
:1045400013449B000B44B3F900309AB23B89D31A51
:104550009BB2BA7818B2494913465B0013449B00DA
:104560000B4402461A80B7F90A30002B14DDBA78E2
:10457000424913465B0013449B000B44B3F90010FF
:10458000BA783E4813465B0013449B000344023351
:10459000B3F90030994218DCB7F90A30002B27DA5A
:1045A000BA78364913465B0013449B000B44B3F9B9
:1045B0000010BA78314813465B0013449B00034453
:1045C0000233B3F90030994212DAB978BA782B483D
:1045D0000B465B000B449B0003440233B3F900001D
:1045E000264913465B0013449B000B4402461A8085
:1045F000254B1868BA78214913465B0013449B0089
:104600000B44B3F900301946FFF730F90346FB813C
:104610001D4B1B68FA8911461846FFF757F93220DF
:10462000FDF723F9BA78154913465B0013449B0044
:104630000B44B3F90010BA78104813465B001344DA
:104640009B0003440233B3F9003099427FF433AF47
:1046500000210B4808F004FDBB7819460B4822F0F6
:1046600019F90021064808F0FBFC094822F07AF904
:10467000002318461437BD4690BD00BF7445002086
:1046800028DE0208449F020850440020709F020860
:10469000AC9F020880B582B000AF78600846114632
:1046A0001A460346FB700B463B801346BB70BA7834
:1046B0007B6899682E4813465B0013449B000344B3
:1046C00008331960BA787B685879294913465B002A
:1046D00013449B000B44053302461A70BA787B687A
:1046E000B3F9063018B2224913465B0013449B000D
:1046F0000B44063302461A80BA787B68B3F900305F
:1047000018B21B4913465B0013449B000B4402463E
:104710001A80BA787B681879154913465B001344F0
:104720009B000B44043302461A70BA787B68B3F9D5
:10473000023018B20E4913465B0013449B000B4431
:10474000023302461A8000210A4808F089FCBB782F
:104750001946094822F09EF80021064808F080FC1E
:10476000064822F0FFF8002318460837BD4680BDF2
:104770007445002040DE0208B49F0208F09F020842
:1047800080B582B000AF7860084611461A460346ED
:10479000FB700B463B801346BB707B681A78BB7876
:1047A00011B2124A22F813100021114808F058FCE7
:1047B000BB7819460F4822F06DF800210C4808F02C
:1047C0004FFCBB7819460C4822F064F8BB78074AC6
:1047D00032F91330012B02D1084B01221A7000F07C
:1047E000BFFE002318460837BD4680BD8045002027
:1047F00058DE0208FC9F02081CA00208AC460020FC
:1048000080B483B000AF78600B467B8013467B702A
:104810007A78074913469B0013440B441A787B6847
:104820001A70002318460C37BD465DF8047B7047AC
:104830006C45002080B483B000AF78600B467B806D
:1048400013467B707A781E4913469B0013440B4431
:10485000B3F801309BB2DAB27B681A707A781849E3
:1048600013469B0013440B44B3F801309BB21B0A60
:104870009AB27B680133D2B21A707A781049134623
:104880009B0013440B44B3F803309AB27B680233A5
:10489000D2B21A707A780A4913469B0013440B442B
:1048A000B3F803309BB21B0A9AB27B680333D2B2CF
:1048B0001A70002318460C37BD465DF8047B70471C
:1048C0006C45002080B483B000AF78600B467B80DD
:1048D00013467B707A781F4913465B0013449B0094
:1048E0000B44B3F90030DAB27B681A707A78194950
:1048F00013465B0013449B000B44B3F900301B12BA
:104900001AB27B680133D2B21A707A781149134611
:104910005B0013449B000B440233B3F900207B6817
:104920000233D2B21A707A780A4913465B001344F4
:104930009B000B440233B3F900301B121AB27B68A0
:104940000333D2B21A70002318460C37BD465DF807
:10495000047B70477445002080B483B000AF78605A
:104960000B467B8013467B707B78064A32F9133006
:10497000DAB27B681A70002318460C37BD465DF822
:10498000047B70478045002080B483B000AF78601E
:104990000B467B8013467B707B78054AD25C7B6834
:1049A0001A70002318460C37BD465DF8047B70472B
:1049B0008445002080B586B000AFF860B96011462C
:1049C0001A460B46FB8013467B710021264808F0EF
:1049D00047FB7B791946254821F05CFF00212248DE
:1049E00008F03EFB224821F0BDFF0023FB7531E0BB
:1049F000FB7D002B0CD100211B4808F031FBFB7D17
:104A0000FA6813441B7819461A4821F043FF1EE048
:104A1000FB7D012B0CD10021134808F021FBFB7D0D
:104A2000FA6813441B781946134821F033FF0EE04F
:104A3000FB7D022B0BD100210B4808F011FBFB7D05
:104A4000FA6813441B7819460C4821F023FFFB7DBC
:104A50000133FB75FB7DBA689A42C9D8002318461A
:104A60001837BD4680BD00BF78DE020864A002088A
:104A7000A0A00208A8A00208C4A00208E0A00208A2
:104A800080B584B000AFF860B96011461A460B4695
:104A9000FB8013467B710021094808F0E1FA7B791D
:104AA0001946084821F0F6FE0021054808F0D8FA1A
:104AB000054821F057FF002318461037BD4680BD3A
:104AC00094DE0208FCA0020848A1020880B586B066
:104AD00000AFF860B96011461A460B46FB801346DA
:104AE0007B710021164808F0BBFA7B7919461548FE
:104AF00021F0D0FE0021124808F0B2FA124821F04D
:104B000031FF0023FB7511E0FB7D002B0BD1002151
:104B10000B4808F0A5FAFB7DFA6813441B78194688
:104B20000A4821F0B7FEFB7D0133FB75FB7DBA68B7
:104B30009A42E9D8002318461837BD4680BD00BF09
:104B4000C0DE020850A1020890A1020898A1020844
:104B500090B484B000AF0446384680E80E00234687
:104B6000FB7300BF1037BD4690BC704780B400AFE8
:104B7000BFF34F8F00BF064BDB6803F4E0620449CC
:104B8000044B1343CB60BFF34F8F00BF00BFFDE763
:104B900000ED00E00400FA0580B400AF074B1B698C
:104BA00003F40023B3F5002F01D1012300E000231B
:104BB0001846BD465DF8047B704700BF00400058B2
:104BC00080B500AF01F09EF800BF80BD80B500AF9A
:104BD0000A4B2B221A70094B00225A70074B4F22A6
:104BE0001A70064B00225A70044BAD229A70034B88
:104BF0000022DA7000F0EEFB00BF80BDA44500206B
:104C000080B584B000AF78600023FB600123BB60F7
:104C100001F088FFF86000BF002001F085FE034628
:104C2000002BF9D001F07EFFB860BA68FB68D31A98
:104C3000B3F57A7F02D9FFF7C9FF06E0BA68FB68CF
:104C4000D31A142B01D9FFF7BBFF00BF1037BD46A5
:104C500080BD000080B500AF1EF098FD01F04AF85D
:104C60000F4B1B78002B15D0FFF796FF0346002B48
:104C700010D10B4B00221A7000F057FC094B1B6837
:104C80000421184601F05CFA074821F06BFE074842
:104C900021F068FE002102200FF02EF900BF80BD38
:104CA0009B450020B8450020CCA10208D8A10208ED
:104CB00080B500AF00F095FB002120200FF01CF91B
:104CC00000BF80BD80B500AF064B1B78002B03D022
:104CD000002001F085FD02E0002001F09BFD00BFF7
:104CE00080BD00BF9445002080B500AF0A4B012273
:104CF0001A70FFF7E7FF4FF4FA70FCF7B6FD064BAA
:104D000000221A70FFF7DEFF4FF4FA70FCF7ADFDDA
:104D10000023184680BD00BF9445002080B400AF3A
:104D200000231846BD465DF8047B704780B582B00D
:104D300000AF182101200DF025FD0346FB71FB7922
:104D4000002B01D0022300E0002318460837BD469F
:104D500080BD000080B586B000AF7860164A07F1CC
:104D60000C0392E8030018600433198002330A0C24
:104D70001A7007F1130300221A809A704B23BB7438
:104D80005323FB74A1233B7554237B757B681A4620
:104D900007F10C0303CB106051601B8813817B6803
:104DA0000A3306220549184621F0C3FF002318469E
:104DB0001837BD4680BD00BF04A20208A8450020E8
:104DC00080B485B000AF78603023FB810223BB81C3
:104DD0004FF485737B81FA897B681A807B68023384
:104DE000BA891A807B6804337A891A8000231846AE
:104DF0001437BD465DF8047B7047000080B500AFF6
:104E0000054B01221A70054B01221A70012001F096
:104E1000E7FC00BF80BD00BF9A45002099450020F7
:104E200080B500AF054B00221A70054B00221A70A6
:104E3000012001F0EFFC00BF80BD00BF9A450020BB
:104E40009945002080B582B000AF0346FB71FB7925
:104E50001946034821F01EFD00BF0837BD4680BD3E
:104E600010A2020880B500AF15F09AFA03461A4660
:104E70000B4B1B789A4206D20A4821F073FD15F0BD
:104E80008FFA03460AE0064B1B78002B04D1064834
:104E900021F068FD012301E0014B1B78184680BD1D
:104EA000A000002040A2020890A2020880B400AF37
:104EB00000231846BD465DF8047B704780B483B07C
:104EC00000AF78600B46FB7000BF0C37BD465DF845
:104ED000047B704780B483B000AF0346FB710023AE
:104EE00018460C37BD465DF8047B704780B400AFB0
:104EF000034B1B781846BD465DF8047B704700BF26
:104F00009C45002080B582B000AF002001F00CFD70
:104F10000346002B4BD1002001F062FC01F002FEA1
:104F2000386000237B6008E0002001F0FDFC0346B0
:104F3000002B02D001237B6008E001F0F3FD024664
:104F40003B68D31A40F6B7329342EDD97B68002B09
:104F50002AD117F06CFC0A20FCF787FC1F4B1B685A
:104F60000421184601F0ECF81D4821F0FBFC19F073
:104F700093F900F0DAFA1B4821F0F4FC01F0D2FDBD
:104F8000386001E01EF002FC01F0CCFD02463B68F7
:104F9000D31A632BF6D901E0FFF7A6FE002001F03B
:104FA000C3FC0346002BF7D0002001F033FC0E4A6F
:104FB000002102200EF07EFF002102200EF09CFF57
:104FC0000A4A002120200EF075FF002120200EF05B
:104FD00093FF00BF0837BD4680BD00BFB845002025
:104FE000CCA10208D8A10208554C0008B14C000819
:104FF00080B500AF0D4B1B78002B14D117F017FCB8
:105000000A20FCF732FC0A4B1B680421184601F009
:1050100097F8084821F0A6FC074821F0A3FC1EF0F1
:10502000B5FBFFF7A3FD00BF80BD00BF9945002081
:10503000B8450020CCA10208D8A1020880B584B0F0
:1050400000AFEF23FB730023BB730023FB711C4AEB
:105050001C4900200DF011FB0346FB71FB79002B6E
:1050600004D0FB791946184821F014FC00F02EF802
:10507000134B0322DA710023BB600BE0FB7B5B0068
:10508000DAB20F49BB680B441B781344FB73BB684F
:105090000133BB60BB68052BF0DD094B9B79FA7BC4
:1050A0009A4201D10123BB73054B5B7963F03F0347
:1050B000DAB2034B5A71BB7B18461037BD4680BD30
:1050C000A8450020AF450020C4A2020880B483B0E8
:1050D00000AFEF23BB710023FB710AE0BB795B00DB
:1050E000DAB2FB790949CB5C1344BB71FB7901331C
:1050F000FB71FB79052BF1D9044ABB79937100BF91
:105100000C37BD465DF8047B704700BFA845002002
:1051100080B582B000AF0346FB71124B00221A70BB
:105120001EF034FB6420FCF7A0FB642015F074F93A
:1051300017F07DFB6420FCF798FB0B4821F012FC74
:105140000A4B1B680421184600F0FAFF084821F0BA
:1051500009FC084821F006FC6420FCF786FBFFF7F9
:1051600005FD00BF9A450020D8A10208B8450020DF
:10517000CCA10208E8A2020880B500AF054B0022CE
:105180001A70054821F086FB022001F029FB00BFC0
:1051900080BD00BF9A4500202CA3020880B500AF57
:1051A000034B01221A70034821F0DCFB00BF80BDD5
:1051B0009A45002074A3020880B400AF00BFBD462A
:1051C0005DF8047B7047000080B582B000AF3A60A4
:1051D0001A460346FB800B467B7113463B71FB88E6
:1051E0001946104821F056FB7B7919460E4821F0EC
:1051F00051FB3B68642202FB03F319460B4821F084
:1052000049FB3B7919460A4821F044FB3B8A002BB5
:1052100004D03B8A1946074821F03CFB00BF083701
:10522000BD4680BD9CA30208D8A3020800A40208C2
:1052300028A4020850A4020880B582B000AF03463B
:105240000A46FB711346BB80BB881946104821F003
:1052500021FBFB79032B0ED0032B10DC012B02D09A
:10526000022B04D00BE00B4821F07CFB0BE00A483A
:1052700021F078FB07E0094821F074FB03E00848BF
:1052800021F070FB00BF00BF0837BD4680BD00BFE6
:1052900084A40208BCA4020800A5020830A50208E4
:1052A00050A5020880B487B000AFF8607A601A4653
:1052B0000B46FB7213463B810023FB7502E0FB7D2E
:1052C0000133FB75FB7D052BF9D90023BB7513E07A
:1052D000BB7D7A6813441B78002B09D000237B75B3
:1052E00002E07B7D01337B757B7D0F2BF9D907E0D5
:1052F00000BFBB7D0133BB75BB7D0F2BE8D900BF61
:1053000000BF1C37BD465DF8047B704780B487B092
:1053100000AFF8607A601A460B46FB7213463B8179
:105320000023FB7502E0FB7D0133FB75FB7D052B44
:10533000F9D90023BB7513E0BB7D7A6813441B7851
:10534000002B09D000237B7502E07B7D01337B7548
:105350007B7D0F2BF9D907E000BFBB7D0133BB7507
:10536000BB7D0F2BE8D900BF00BF1C37BD465DF8E1
:10537000047B704780B586B000AF78603960002349
:10538000FB750523BB75124A07F1080392E8030079
:105390001860043319707B683B61BB7D0133DAB25E
:1053A0003B691A703B690133FA7D1A703B6902331D
:1053B000BA7D07F10801184621F0BBFCBB7D023322
:1053C000DAB23B681A7000BF1837BD4680BD00BF17
:1053D000F4A5020880B400AF00BFBD465DF8047BB1
:1053E000704780B400AF00BFBD465DF8047B7047D6
:1053F00080B500AF002015F00FF800BF80BD80B56C
:1054000000AF002104200EF077FD00BF80BD00003A
:1054100080B500AF0B4B1B78002B0CD1002001F0A6
:1054200083FA0346002B0CBF01230023DBB218468E
:10543000FFF7E6FB05E0FFF7C3FB024B00221A7003
:1054400000BF80BD6047002080B582B000AF7860AB
:105450000D4A002104200EF02DFD0C4B00220C49BA
:105460000020FDF715F90A4B1B780A491846FDF78D
:105470000DFA0AF0BBFB084A002140200EF01AFD8D
:1054800000BF0837BD4680BDF1530008FF53000838
:10549000A045002058C212001154000880B485B005
:1054A00000AF0346FB800B46BB8013467B80B7F9F9
:1054B0000230002B15DDFB88A3F54872B988B7F9D7
:1054C0000230CB1A92FBF3F3FB81FB891A46920060
:1054D00013441A4691001A460B4613449B00FB8165
:1054E0000AE0FB88642203FB02F2B988B7F90230B4
:1054F000CB1A92FBF3F3FB81FB891A46920013440B
:105500009B01BB81BB89B3F5FA4F02D347F6FF433A
:10551000BB81BB89002B01D10123BB81BB8918460C
:105520001437BD465DF8047B704780B483B000AF8C
:105530000223FB71FB7918460C37BD465DF8047BEE
:10554000704780B483B000AF786039603B68002258
:105550001A80002318460C37BD465DF8047B70475F
:1055600080B400AF00BFBD465DF8047B704700000B
:1055700090B589B000AF786039600023FB777B6815
:105580001B78BB740023FB74784ABB7C137000212A
:10559000774807F065FD7B681B781946754821F050
:1055A00079F9BB7C013B032B00F2D78001A252F8B2
:1055B00023F000BFC5550008D355000893560008D6
:1055C00061570008694B04225A706B4B02221A8003
:1055D000C7E015F007F9B8613EE0FB7CBA691278C4
:1055E00020333B4403F8182CFB7C20333B4413F856
:1055F000183C2E2B1DD0FB7C20333B4413F8183C69
:10560000FC7C184600F0B4FC03461A4604F1200363
:105610003B4403F8182C0021554807F021FDFB7C82
:1056200020333B4413F8183C1946544821F032F912
:105630000CE000214E4807F013FDFB7C20333B4477
:1056400013F8183C19464E4821F024F9BB69013380
:10565000BB61FB7C0133FB74BB691B78002BBCD1A5
:105660003A7A424B5A707A7A404B9A70FA7A3F4BA8
:10567000DA703A7B3D4B1A71BA7B3C4B5A71FA7B1C
:105680003A4B9A713A7C394BDA713B4B08221A80BB
:1056900067E015F0ABF8786145E0FB7C7A69127839
:1056A00020333B4403F8182CFB7C20333B4413F895
:1056B000183C2E2B24D0FB7C20333B4413F8183CA1
:1056C000522B1DD0FB7C20333B4413F8183CFC7C50
:1056D000184600F04DFC03461A4604F120033B44F3
:1056E00003F8182C0021224807F0BAFCFB7C203379
:1056F0003B4413F8183C1946224821F0CBF80CE043
:1057000000211B4807F0ACFCFB7C20333B4413F822
:10571000183C19461C4821F0BDF87B6901337B61B8
:10572000FB7C0133FB747B691B78002BB5D13A7A83
:105730000E4B5A707A7A0D4B9A70FA7A0B4BDA70DC
:105740007A7B0A4B1A71FA7B084B5A717A7C074BA9
:105750009A71094B07221A8003E00123FB7700E0CE
:1057600000BFFB7F18462437BD4690BDBC450020D6
:1057700044DF0208FCA50208F84500200CA6020838
:1057800020A6020834A602084CA6020880B584B000
:1057900000AF786039600023FB737B681B787B73F4
:1057A0002B4A7B7B137000212A4807F059FC7B6849
:1057B0001B781946284821F06DF87B7B023B042BAF
:1057C0003CD801A252F823F0DD57000843580008E6
:1057D00043580008435800080F5800083B683C2B0A
:1057E00008D93C233B6000211A4807F039FC1B48CC
:1057F00021F0B8F87B68591C3B68013B1A461848F1
:1058000021F097FA3B689AB2164B1A801AE00023EF
:10581000BB730EE0B97BBB7B7A6813441B781A46D6
:10582000114821F037F8114821F034F8BB7B0133DF
:10583000BB73BB7B3A689A42ECD803E00123FB734D
:1058400000E000BFFB7B18461037BD4680BD00BF9F
:10585000BC4500205CDF020864A6020874A60208AA
:10586000BD450020F8450020ACA60208BCA60208F1
:1058700080B586B000AFF860B96011461A460B4695
:10588000FB711346BB800023FB75FB681B78FB7420
:105890000023BB8200218A4807F0E2FBFB681B78EB
:1058A0001946884820F0F6FFFB7C013B052B00F2EF
:1058B000E38001A252F823F083590008C959000877
:1058C00005590008795A0008D15800080B5A0008F9
:1058D00000217B4807F0C4FBFB7919467A4820F089
:1058E000D9FFFB6801331A78784B1A70774B1B7815
:1058F000012B03D1002000F073FFC0E0002000F076
:1059000089FFBCE000216E4807F0AAFBFB7919462D
:105910006F4820F0BFFF6D4B1B78012B17D16D4BEB
:10592000002242F001021A7000225A70694B1A6874
:10593000114658680246986803460420FFF708F9A4
:10594000624B00221A70002000F064FF97E0614B68
:10595000002262F009021A70002242F07C025A70A2
:105960005C4B1A6811465868024698680346042042
:10597000FFF7EEF8554B01221A70002000F030FFBF
:105980007DE000214E4807F06BFBFB791946524839
:1059900020F080FF4F4B002262F009021A700022B3
:1059A00042F07C025A704B4B1A6811465868024606
:1059B000986803460420FFF7CBF8002000F010FFA2
:1059C000424B01221A705AE000213D4807F048FB83
:1059D000FB791946414820F05DFF3E4B002242F022
:1059E00001021A7000225A703A4B1A681146586820
:1059F0000246986803460420FFF7AAF8334B0022BA
:105A00001A70002000F006FF39E000212C4807F052
:105A100027FBFB791946324820F03CFFFB68023334
:105A20001B781B02BB82FB6801331B781A46BB8ABA
:105A30001343BB82BB8A002247F6FF711846FFF76B
:105A40002DFD03463B82234B3A8A1A80214B1A686C
:105A5000114658680246986803460420FFF778F814
:105A60003B8AB3F57A5F03D9002000F0B9FE06E067
:105A7000002000F0CFFE02E00123FB7500BF194AB1
:105A8000FB7C1370FB7C062B0DD1BB8A1B0A9BB2DF
:105A9000DAB2144B5A70BB8ADAB2124B9A70124BBC
:105AA00003221A8006E0094B1A780E4B5A700E4BEF
:105AB00002221A80FB7D18461837BD4680BD00BF04
:105AC00070DF0208C0A60208D0A602089445002094
:105AD0000CA702088845002048A7020880A70208F2
