:020000040800F2
:1000000000000320DD790008C1330008D133000867
:10001000E9330008F1330008F9330008000000005C
:100020000000000000000000000000000134000893
:100030000F340008000000001D3400082B340008B5
:10004000317A0008317A0008317A00083734000824
:10005000317A0008317A0008C7340008D534000826
:10006000317A0008317A0008B9340008317A000882
:10007000317A0008317A000845340008317A0008E6
:10008000317A0008317A0008317A0008317A0008A4
:10009000317A0008317A0008317A0008317A000894
:1000A000317A0008317A0008317A0008317A000884
:1000B000317A0008317A0008317A0008317A000874
:1000C000317A0008317A0008317A0008317A000864
:1000D000593400086D340008317A0008317A00087C
:1000E000317A0008317A0008317A0008317A000844
:1000F000813400088D34000899340008317A0008F2
:10010000317A0008317A0008317A0008317A000823
:10011000317A0008317A0008317A0008317A000813
:10012000317A0008317A0008A5340008317A0008D5
:0C013000317A0008317A0008317A0008AA
:1001400010B5054C237833B9044B13B10448AFF311
:1001500000800123237010BDF80200200000000081
:1001600000C7020808B5034B1BB103490348AFF3AE
:10017000008008BD00000000FC02002000C702084B
:1001800010F8012B11F8013B012A28BF9A42F7D041
:10019000D01A7047000000000000000000000000BE
:1001A00001F0FF01102A2BDB10F0070F08D010F828
:1001B000013B013A8B422DD010F0070F42B3F6D12C
:1001C000F0B441EA012141EA014122F007047FF045
:1001D00000070023F0E80256083C85EA010586EA9C
:1001E000010685FA47F5A3FA87F586FA47F6A5FAD8
:1001F00087F68EB9EED1F0BC01F0FF0102F00702E4
:1002000032B110F8013B013A83EA010313B1F8D18E
:100210000020704701387047002D06BF354603386F
:10022000073815F0010F07D1013015F4807F02BFA8
:10023000013015F4C03F0130F0BC0138704700BFF9
:10024000034613F8012B002AFBD1181A0138704716
:1002500081F0004102E000BF83F0004330B54FEA77
:1002600041044FEA430594EA050F08BF90EA020FE4
:100270001FBF54EA000C55EA020C7FEA645C7FEA77
:10028000655C00F0E2804FEA5454D4EB5555B8BF9A
:100290006D420CDD2C4480EA020281EA030382EA0B
:1002A000000083EA010180EA020281EA0303362D9D
:1002B00088BF30BD11F0004F4FEA01314FF4801C70
:1002C0004CEA113102D0404261EB410113F0004F82
:1002D0004FEA03334CEA133302D0524263EB430339
:1002E00094EA050F00F0A780A4F10104D5F1200ED7
:1002F0000DDB02FA0EFC22FA05F2801841F1000132
:1003000003FA0EF2801843FA05F359410EE0A5F105
:1003100020050EF1200E012A03FA0EFC28BF4CF036
:10032000020C43FA05F3C01851EBE37101F00045EC
:1003300007D54FF0000EDCF1000C7EEB00006EEBF9
:100340000101B1F5801F1BD3B1F5001F0CD3490883
:100350005FEA30004FEA3C0C04F101044FEA4452DA
:1003600012F5800F80F09A80BCF1004F08BF5FEA61
:10037000500C50F1000041EB045141EA050130BD41
:100380005FEA4C0C404141EB0101013C28BFB1F553
:10039000801FE9D291F0000F04BF01460020B1FA9E
:1003A00081F308BF2033A3F10B03B3F120020CDA71
:1003B0000C3208DD02F1140CC2F10C0201FA0CF04F
:1003C00021FA02F10CE002F11402D8BFC2F1200CB4
:1003D00001FA02F120FA0CFCDCBF41EA0C0190406A
:1003E000E41AA2BF01EB0451294330BD6FEA0404B3
:1003F0001F3C1CDA0C340EDC04F11404C4F120029E
:1004000020FA04F001FA02F340EA030021FA04F3AF
:1004100045EA030130BDC4F10C04C4F1200220FA06
:1004200002F001FA04F340EA0300294630BD21FA44
:1004300004F0294630BD94F0000F83F4801306BF0A
:1004400081F480110134013D4EE77FEA645C18BFFE
:100450007FEA655C29D094EA050F08BF90EA020F95
:1004600005D054EA000C04BF1946104630BD91EA8D
:10047000030F1EBF0021002030BD5FEA545C05D190
:100480004000494128BF41F0004130BD14F58004CF
:100490003CBF01F5801130BD01F0004545F0FE4143
:1004A00041F470014FF0000030BD7FEA645C1ABF78
:1004B000194610467FEA655C1CBF0B46024650EAAF
:1004C000013406BF52EA033591EA030F41F40021DB
:1004D00030BD00BF90F0000F04BF0021704730B561
:1004E0004FF4806404F132044FF000054FF0000136
:1004F00050E700BF90F0000F04BF0021704730B5F7
:100500004FF4806404F1320410F0004548BF4042CB
:100510004FF000013EE700BF42004FEAE2014FEA20
:1005200031014FEA02701FBF12F07F4393F07F4FFB
:1005300081F06051704732F07F4208BF704793F0FE
:100540007F4F04BF41F40021704730B54FF4607411
:1005500001F0004521F000411CE700BF50EA010214
:1005600008BF704730B54FF000050AE050EA0102BD
:1005700008BF704730B511F0004502D5404261EB2D
:1005800041014FF4806404F132045FEA915C3FF46E
:10059000D8AE4FF003025FEADC0C18BF03325FEA0B
:1005A000DC0C18BF033202EBDC02C2F1200300FABC
:1005B00003FC20FA02F001FA03FE40EA0E0021FAE1
:1005C00002F11444BDE600BF70B54FF0FF0C4CF4CF
:1005D000E06C1CEA11541DBF1CEA135594EA0C0F81
:1005E00095EA0C0F00F0DEF82C4481EA030621EABC
:1005F0004C5123EA4C5350EA013518BF52EA0335F7
:1006000041F4801143F4801338D0A0FB02CE4FF0A8
:100610000005E1FB02E506F00042E0FB03E54FF0D8
:100620000006E1FB03569CF0000F18BF4EF0010ED0
:10063000A4F1FF04B6F5007F64F5407404D25FEACC
:100640004E0E6D4146EB060642EAC62141EA55517F
:100650004FEAC52040EA5E504FEACE2EB4F1FD0CC1
:1006600088BFBCF5E06F1ED8BEF1004F08BF5FEA3F
:10067000500E50F1000041EB045170BD06F00046F1
:1006800046EA010140EA020081EA0301B4EB5C049E
:10069000C2BFD4EB0C0541EA045170BD41F4801196
:1006A0004FF0000E013C00F3AB8014F1360FDEBFBB
:1006B000002001F0004170BDC4F10004203C35DA97
:1006C0000C341BDC04F11404C4F1200500FA05F31A
:1006D00020FA04F001FA05F240EA020001F00042BB
:1006E00021F0004110EBD37021FA04F642EB060131
:1006F0005EEA430E08BF20EAD37070BDC4F10C045B
:10070000C4F1200500FA04F320FA05F001FA04F21E
:1007100040EA020001F0004110EBD37041F100010A
:100720005EEA430E08BF20EAD37070BDC4F1200515
:1007300000FA05F24EEA020E20FA04F301FA05F27D
:1007400043EA020321FA04F001F0004121FA04F225
:1007500020EA020000EBD3705EEA430E08BF20EAF5
:10076000D37070BD94F0000F0FD101F0004640002F
:1007700041EB010111F4801F08BF013CF7D041EAB1
:10078000060195F0000F18BF704703F000465200B5
:1007900043EB030313F4801F08BF013DF7D043EA86
:1007A0000603704794EA0C0F0CEA135518BF95EA3C
:1007B0000C0F0CD050EA410618BF52EA4306D1D1C3
:1007C00081EA030101F000414FF0000070BD50EAE2
:1007D000410606BF1046194652EA430619D094EA6C
:1007E0000C0F02D150EA013613D195EA0C0F05D156
:1007F00052EA03361CBF104619460AD181EA0301AA
:1008000001F0004141F0FE4141F470014FF0000061
:1008100070BD41F0FE4141F4780170BD70B54FF0FC
:10082000FF0C4CF4E06C1CEA11541DBF1CEA13557C
:1008300094EA0C0F95EA0C0F00F0A7F8A4EB05045E
:1008400081EA030E52EA03354FEA013100F0888055
:100850004FEA03334FF0805545EA131343EA12631E
:100860004FEA022245EA111545EA10654FEA0026D3
:100870000EF000419D4208BF964244F1FD0404F58C
:10088000407402D25B084FEA3202B61A65EB0305E8
:100890005B084FEA32024FF480104FF4002CB6EBA5
:1008A000020E75EB030E22BFB61A754640EA0C0025
:1008B0005B084FEA3202B6EB020E75EB030E22BF65
:1008C000B61A754640EA5C005B084FEA3202B6EBA6
:1008D000020E75EB030E22BFB61A754640EA9C0065
:1008E0005B084FEA3202B6EB020E75EB030E22BF35
:1008F000B61A754640EADC0055EA060E18D04FEAF3
:10090000051545EA16754FEA06164FEAC30343EA92
:1009100052734FEAC2025FEA1C1CC0D111F4801F5F
:100920000BD141EA00014FF000004FF0004CB6E758
:1009300011F4801F04BF01430020B4F1FD0C88BFF7
:10094000BCF5E06F3FF6AFAEB5EB030C04BFB6EB02
:10095000020C5FEA500C50F1000041EB045170BDF5
:100960000EF0004E4EEA113114EB5C04C2BFD4EB22
:100970000C0541EA045170BD41F480114FF0000EA6
:10098000013C90E645EA060E8DE60CEA135594EA22
:100990000C0F08BF95EA0C0F3FF43BAF94EA0C0F25
:1009A0000AD150EA01347FF434AF95EA0C0F7FF49A
:1009B00025AF104619462CE795EA0C0F06D152EAEE
:1009C00003353FF4FDAE1046194622E750EA4106D2
:1009D00018BF52EA43067FF4C5AE50EA41047FF4E3
:1009E0000DAF52EA43057FF4EBAE12E74FF0FF3C48
:1009F00006E000BF4FF0010C02E000BF4FF0010C19
:100A00004DF804CD4FEA410C7FEA6C5C4FEA430C91
:100A100018BF7FEA6C5C1BD001B050EA410C0CBFE0
:100A200052EA430C91EA030F02BF90EA020F002042
:100A3000704710F1000F91EA030F58BF994208BFA9
:100A400090422CBFD8176FEAE37040F00100704766
:100A50004FEA410C7FEA6C5C02D150EA013C07D1BD
:100A60004FEA430C7FEA6C5CD6D152EA033CD3D008
:100A70005DF8040B704700BF8446104662468C4602
:100A80001946634600E000BF01B5FFF7B7FF002835
:100A900048BF10F1000F01BD4DF808EDFFF7F4FF5E
:100AA0000CBF012000205DF808FB00BF4DF808EDE9
:100AB000FFF7EAFF34BF012000205DF808FB00BF0C
:100AC0004DF808EDFFF7E0FF94BF012000205DF82E
:100AD00008FB00BF4DF808EDFFF7CEFF94BF0120E3
:100AE00000205DF808FB00BF4DF808EDFFF7C4FFDC
:100AF00034BF012000205DF808FB00BF4FEA410C25
:100B00007FEA6C5C02D150EA013C0AD14FEA430C07
:100B10007FEA6C5C02D152EA033C02D14FF0000044
:100B200070474FF0010070474FEA410212F5001282
:100B300015D211D56FF47873B3EB625212D94FEA24
:100B4000C12343F0004343EA505311F0004F23FA0E
:100B500002F018BF404270474FF00000704750EA63
:100B6000013005D111F0004008BF6FF00040704720
:100B70004FF00000704700BF4FEA4102B2F1E0437E
:100B800024BFB3F5001CDCF1FE5C0DD901F0004C74
:100B90004FEAC0024CEA5070B2F1004F40EB8300C4
:100BA00008BF20F00100704711F0804F21D113F1F0
:100BB0003872BCBF01F00040704741F480114FEA29
:100BC0005252C2F11802C2F1200C10FA0CF320FAB2
:100BD00002F018BF40F001004FEAC1234FEAD323CF
:100BE00003FA0CFC40EA0C0023FA02F34FEA430339
:100BF000CCE77FEA625307D150EA01331EBF4FF0C2
:100C0000FE4040F44000704701F0004040F0FE40DC
:100C100040F40000704700BF53B94AB9002908BF2B
:100C200000281CBF4FF0FF314FF0FF3000F06AB9D1
:100C3000ADF1080C6DE904CE00F006F8DDF804E033
:100C4000DDE9022304B070472DE9F047089D0C460A
:100C5000002B4ED194468C458646B2FA82F262D978
:100C60004AB1C2F12003914020FA03F30CFA02FCCE
:100C7000194300FA02FE4FEA1C471FFA8CF6B1FB3B
:100C8000F7F44FEA1E4307FB141143EA014304FB48
:100C900006F199420AD91CEB030304F1FF3080F0FE
:100CA0001281994240F20F81023C6344591A1FFAA3
:100CB0008EF3B1FBF7F007FB101143EA014300FB91
:100CC00006F69E420AD91CEB030300F1FF3180F0C7
:100CD000FC809E4240F2F980634402389B1B40EA4C
:100CE000044000211DB1D3400022C5E90032BDE817
:100CF000F0878B4205D90DB1C5E9000100210846F6
:100D0000F5E7B3FA83F1002946D1A34202D390421A
:100D1000C0F0F080861A64EB03030120002DE6D0BA
:100D2000C5E90063E3E7002A40F09080A1EB0C04E2
:100D30004FEA1C481FFA8CF70121B4FBF8F64FEA82
:100D40001E4308FB164443EA044307FB06F098429F
:100D500008D91CEB030306F1FF3402D2984200F2DB
:100D6000CD8026461C1A1FFA8EF3B4FBF8F008FB60
:100D7000104443EA044300FB07F79F4208D91CEBE9
:100D8000030300F1FF3402D29F4200F2B0802046FC
:100D9000DB1B40EA0640A5E7C1F120068B4022FAA2
:100DA00006F71F4320FA06FC04FA01F343EA0C039A
:100DB000F44000FA01F8380C4FEA1349B4FBF0FE96
:100DC0001FFA87FC00FB1E4449EA04440EFB0CF9A1
:100DD000A14502FA01F20AD93C190EF1FF3A80F05E
:100DE0008480A14540F28180AEF1020E3C44A4EB28
:100DF00009041FFA83F9B4FBF0F300FB134449EA3A
:100E0000044403FB0CFCA44507D93C1903F1FF3053
:100E100067D2A44565D9023B3C4443EA0E40A0FB9F
:100E20000293A4EB0C049C42CE469C4651D34ED078
:100E300055B1B8EB0E0364EB0C0404FA06F6CB4094
:100E40001E43CC40C5E90064002150E7C2F12003F5
:100E500020FA03F10CFA02FC24FA03F394400C4349
:100E60004FEA1C4800FA02FE1FFA8CF7B3FBF8F0B9
:100E700008FB1031230C43EA014300FB07F19942C0
:100E800008D91CEB030300F1FF362CD299422AD972
:100E9000023863445B1AA4B2B3FBF8F108FB1133C8
:100EA00044EA034401FB07F3A34208D91CEB040402
:100EB00001F1FF3613D2A34211D902396444E41A76
:100EC00041EA004139E70446F0E6084606E7C8452E
:100ED000AED2B9EB020E63EB070C0138A8E731463E
:100EE000EDE7034699E73046D4E7D6467FE763440B
:100EF00002384DE70646234608460FE7023E6344A4
:100F000030E700BF704700BF80B483B000AF7860A7
:100F1000064BD3F8902005497B681343C1F8903005
:100F200000BF0C37BD465DF8047B704700080058D1
:100F300080B485B000AF78604FF0B043DA6C4FF00A
:100F4000B0417B681343CB644FF0B043DA6C7B68ED
:100F50001340FB60FB6800BF1437BD465DF8047B9F
:100F6000704780B485B000AF78604FF0B043D3F8DD
:100F70004C214FF0B0417B681343C1F84C314FF026
:100F8000B043D3F84C217B681340FB60FB6800BF83
:100F90001437BD465DF8047B704780B500AF06F09E
:100FA00061FF06F065FF4FF48030FFF7ADFF15F0ED
:100FB00011F900F021F800F0C1F800BF80BD000079
:100FC000B0B588B000AF0B4B3C1D1D460FCD0FC414
:100FD00095E8070003C422800234130C237015F037
:100FE00035F83B1D184614F0AEFA00BF2037BD4659
:100FF000B0BD00BF98C7020880B588B000AF3B1DE8
:1010000000221A605A609A60DA601A610023BB837A
:1010100000237B8300233B830023FB7736E0FB7FA9
:10102000434ADB0013449B79002B2CD0FB7F404AC2
:1010300052F833303F4A93421BD03E4A934221D864
:10104000B3F1904F03D03C4A934209D01AE0FB7FA2
:10105000374ADB0013449A88BB8B1343BB8312E0EF
:10106000FB7F334ADB0013449A887B8B13437B83DB
:1010700009E0FB7F2E4ADB0013449A883B8B134325
:101080003B8300E000BFFB7F0133FB77FB7F252B19
:10109000C5D90023FB600123BB6003233B61BB8BED
:1010A000002B14D0BB8B7B600120FFF741FF012098
:1010B000FFF757FF3B1D19464FF0904007F0E4FD46
:1010C000BB8B002219464FF0904007F065FF7B8BE9
:1010D000002B12D07B8B7B600220FFF729FF0220C0
:1010E000FFF73FFF3B1D1946134807F0CDFD7B8BF3
:1010F00000221946104807F04FFF3B8B002B13D0FE
:101100003B8B7B600420FFF713FF0420FFF729FFD0
:101110003B1D1946074807F0B7FD3B8B00221946D7
:10112000044807F039FF00BF00BF2037BD4680BD2F
:1011300074030308000800480004004880B400AFAE
:1011400000BFBD465DF8047B704780B500AF00204E
:1011500001F07FFC00BF80BD80B584B000AFF860B7
:101160000B467A607B817A897B68F968002001F000
:10117000A5FC00BF1037BD4680BD000080B483B021
:1011800000AF7860064BD3F8902005497B68134385
:10119000C1F8903000BF0C37BD465DF8047B704746
:1011A0000008005880B483B000AF7860074BD3F8D4
:1011B000803023F0070205497B681343C1F8803073
:1011C00000BF0C37BD465DF8047B70470004005833
:1011D00080B483B000AF78604FF0B0430A4AC3F8E0
:1011E0009C204FF0B043D3F89C3023F47C527B68B2
:1011F0001B024FF0B0411343C1F89C3000BF0C37C5
:10120000BD465DF8047B7047FECAFECA80B483B059
:1012100000AF78604FF0B0439B6823F400424FF07A
:10122000B0417B6813438B6000BF0C37BD465DF84F
:10123000047B704780B400AF4FF0B043D3F89030D8
:101240004FF0B04243F48033C2F8903000BFBD4647
:101250005DF8047B704780B400AF4FF0B043D3F823
:1012600090304FF0B04223F48033C2F8903000BF8A
:10127000BD465DF8047B704780B400AF4FF0B043CB
:10128000D3F8943003F08063B3F1806F01D1012370
:1012900000E000231846BD465DF8047B704780B42B
:1012A00000AF4FF0B043D3F8943003F08053B3F164
:1012B000805F01D1012300E000231846BD465DF8A0
:1012C000047B704780B485B000AF78604FF0B043C6
:1012D0001A6D4FF0B0417B6813430B654FF0B0437C
:1012E0001A6D7B681340FB60FB6800BF1437BD4676
:1012F0005DF8047B7047000080B400AF044B1B68AE
:10130000C3F30B031846BD465DF8047B704700BF6E
:10131000002004E080B400AF044B1B681B0C9BB2A0
:101320001846BD465DF8047B704700BF002004E00E
:1013300080B483B000AF786039607B685A683B68DE
:101340001B041A437B685A6000BF0C37BD465DF82A
:10135000047B704780B483B000AF786039607B68ED
:101360005A683B681A437B685A6000BF0C37BD4619
:101370005DF8047B704780B483B000AF786039605B
:101380007B685A693B681B041A437B685A6100BF3B
:101390000C37BD465DF8047B704780B483B000AF66
:1013A000786039607B685A693B681A437B685A6188
:1013B00000BF0C37BD465DF8047B704780B483B036
:1013C00000AF786039607B683A689A6000BF0C377C
:1013D000BD465DF8047B704780B483B000AF786091
:1013E00039607B683A689A6100BF0C37BD465DF88A
:1013F000047B704780B400AF054B1B69044A23F09F
:101400000403136100BFBD465DF8047B704700BF55
:1014100000ED00E080B483B000AF78607B68FF220D
:101420005A6200BF0C37BD465DF8047B704780B43C
:1014300083B000AF78607B68CA225A627B6853220F
:101440005A6200BF0C37BD465DF8047B704780B41C
:1014500083B000AF786039607B689B6823F0070237
:101460003B681A437B689A6000BF0C37BD465DF845
:10147000047B704780B500AF044B4FF400421A6103
:1014800000F054F800F094F800BF80BD0040005810
:1014900080B582B000AF194BD3F880301B0303F442
:1014A0007F2303F100637B6000F096F800F0AEF854
:1014B0001349002001F062F8FFF76FFD01210120C0
:1014C00014F070FF00F004FA00F00FFA7B68A3F547
:1014D00000531A460B4B1A607B68A3F540531A461B
:1014E000094B1A607B68A3F580431A46074B1A60C4
:1014F00000F09AF800BF0837BD4680BD0040005894
:10150000CC43002044440020484400204C440020A8
:1015100080B400AF00BFBD465DF8047B704780B566
:1015200000AF5020FFF72AFE00BF80BD80B500AF9E
:1015300000F004F800F01AF800BF80BD80B500AFDD
:10154000FFF79AFE0346002B0DD0FFF7A8FE0346D7
:10155000002B08D107F0FAFD07F0F8FDFFF76AFE4F
:10156000FFF779FE00BF00BF80BD000080B500AF6F
:101570004FF48010FFF7A6FE3F210C48FFF71EFF37
:101580003F210A48FFF728FF3F210848FFF7D0FE18
:101590003F210648FFF7EFFE3F210448FFF7DAFE40
:1015A0003F210248FFF7F9FE00BF80BD000C005844
:1015B00080B582B000AF002014F08AFE78607B68AE
:1015C000002B05D07B689B791846FFF701FE00BF12
:1015D00000BF0837BD4680BD80B500AFFFF798FF5C
:1015E000FFF79DFF00F002F800BF80BD80B500AF9F
:1015F0000548FFF71CFF00210348FFF728FF0248BA
:10160000FFF708FF00BF80BD0028004080B500AF95
:101610004FF40040FFF7FAFD14F082FE0420FFF7BC
:10162000C1FD00BF80BD000080B588B000AF14F0E0
:1016300057FB114A00214FF4806014F0DFFF0F4B7D
:101640003B600F4B7B603B4619460E4814F00AFA8C
:101650000D4BBB600D4BFB600D4B3B6140F23C53AF
:101660007B6107F10803184614F07CFC14F032FB90
:1016700000BF2037BD4680BD9D5A010834070320B6
:1016800095160008AD1600084C09032040080320F9
:10169000F801032080B483B000AF0346FB7100BFA4
:1016A0000C37BD465DF8047B7047000080B588B0FC
:1016B00000AF78607B685B680B33FB61FB691B885C
:1016C0009BB2A3F51243072B60D801A252F823F076
:1016D000F116000833170008411700088D1700089D
:1016E0005D1700086D1700087517000885170008BA
:1016F00007F10C03184613F06BFF3B7B19467B7B0D
:101700001A46BB7B244827F0B3FB3B7C1946234891
:1017100027F0AEFBBB7D1946FB7D1A463B7E204879
:1017200027F0A6FB1F4827F0A3FB786800F070F8AD
:101730002DE01D4827F09CFB786800F043F826E078
:101740001A4827F0FDFBFB6902331968FB69023375
:101750005B681A46164827F08BFB18E0FB690233DA
:101760001B681946134827F083FB10E0124827F046
:101770007FFB0CE0FB6902331B6819460F4827F01A
:1017800077FB04E00E4827F073FB00E000BF00BFCA
:101790002037BD4680BD00BFB4C70208D8C70208C5
:1017A000F4C702080CC802082CC8020850C8020876
:1017B000A0C80208C8C8020804C9020828C902084B
:1017C00064C9020880B584B000AF78607B685B684C
:1017D0000B33FB60FB680233BB60BB681B781946A8
:1017E000084827F045FBBB681B78002B03D106484F
:1017F00027F0A6FB03E0054827F0A2FB00BF103747
:10180000BD4680BD88C90208B8C90208F4C90208EB
:1018100080B58AB000AF786007F1080300221A6033
:101820005A609A60DA6000237B6200233B627B6827
:101830005B680B33FB61FB690233BB61BB691B78DF
:10184000002B28D11D4827F07BFBFFF7B9FB0F23A6
:101850003B727F23BB72FFF75DFD7862796A18489F
:1018600027F006FB7B6A9BB2BB82FFF745FD38621F
:10187000396A144827F0FCFA3B6A9BB2FB8207F1F5
:101880000803184613F08FFE01F0FAFE0021012034
:1018900014F088FD0EE0BB691B78012B06D10A48C5
:1018A00027F0E6FA7B6800221A7003E0074827F069
:1018B000DFFA00BF2837BD4680BD00BF2CCA020832
:1018C00048CA02086CCA02088CCA0208C0CA0208C8
:1018D00080B500AF002006F0C5F8012006F0C2F880
:1018E000022006F0BFF800BF80BD80B500AF012127
:1018F000002006F025F90121012006F021F901213F
:10190000022006F01DF900BF80BD80B584B000AF95
:10191000786006F083FAB8607B68FB60FB68B3F11F
:10192000FF3F0AD006F092FA03461A46FB681344BA
:10193000FB6002E0FFF75EFD30BF06F06FFA024683
:10194000BB68D31AFA689A42F4D800BF00BF1037B8
:10195000BD4680BD80B500AF4FF0FF3014F052FDA2
:1019600000BF80BD80B400AF00BFBD465DF8047B02
:10197000704780B582B000AF786039604FF0FF30BB
:1019800014F040FD00BF0837BD4680BD80B582B071
:1019900000AF786000214FF4806014F051FE00BF6A
:1019A0000837BD4680BD80B582B000AF78600220A8
:1019B00014F0B2FE00BF0837BD4680BD80B582B0CE
:1019C00000AF7860022014F0C7FE00BF0837BD46A4
:1019D00080BD80B582B000AF0346FB80FB88102B32
:1019E00004D10021402014F02BFE00E000BF00BF16
:1019F0000837BD4680BD000080B400AF074B1B69AF
:101A000003F40023B3F5002F01D1012300E00023EC
:101A10001846BD465DF8047B704700BF0040005883
:101A200080B483B000AF786039607B683A68203258
:101A300053F82230054A934201D0012300E00023ED
:101A400018460C37BD465DF8047B704700040080E3
:101A500080B485B000AFF860B9607A607B6843F409
:101A60008061FB68BA6843F8221000BF1437BD4696
:101A70005DF8047B704780B483B000AF7860396054
:101A80007B683A6853F82230002B01D0012300E034
:101A9000002318460C37BD465DF8047B70470000F4
:101AA00080B586B000AF786039600023FB7300BF5B
:101AB00002211D48FFF7B4FF0346002BF8D106F0C2
:101AC0004FFF012013F056FD00237B610AE07A6886
:101AD0007B691344184600F071F80346FB737B6979
:101AE00001337B617A693B689A4202D2FB7B002B0F
:101AF000EDD0FB7B002B05D03A687B69D31A01330C
:101B00003B610BE0002013F035FD06F04BFF002297
:101B100002210548FFF79CFF00233B613B69184603
:101B20001837BD4680BD00BF0014005880B588B08E
:101B300000AFF860B9607A600023FB7500BF022136
:101B40001D48FFF76DFF0346002BF8D106F008FF94
:101B50000023FB6111E0FB69DA00FB68D118FB6927
:101B6000DB00BA681344D3E90023084600F042F8CA
:101B70000346FB75FB690133FB61FA697B689A4296
:101B800002D2FB7D002BE6D0FB7D002B05D07A68CE
:101B9000FB69D31A0133BB6108E006F003FF0022A2
:101BA00002210548FFF754FF0023BB61BB691846BB
:101BB0002037BD4680BD00BF0014005880B584B0FA
:101BC00000AF78600023BB6002E0BB680133BB60FC
:101BD000BB68222BF9D94FF000024FF0000379685F
:101BE000002000F01BF80346FB73FB7B1846103700
:101BF000BD4680BD80B586B000AFF860C7E9002360
:101C0000D7E90023F968012000F008F80346FB75C6
:101C1000FB7D18461837BD4680BD000080B58EB0EC
:101C200000AFB960C7E900230346FB73012387F8BF
:101C3000363002237B610123FB61BB68BB6100BFBF
:101C4000FFF7DAFE0346002BFAD1EFF31083BB62F5
:101C5000BB6A3B6372B600BF06213648FFF70BFF35
:101C6000034687F82F3097F82F30002B21D107211A
:101C70003048FFF7D5FE034687F8373097F83730FE
:101C8000002B16D1FB7B002B08D107F1200207F1B6
:101C900014031146184606F033FF05E0D7E9002388
:101CA000B968012006F018FE002207212148FFF73D
:101CB000CFFE3B6B7B627B6A83F3108800BF97F893
:101CC0002F30002B06D0002000F038F8034687F8AC
:101CD000363009E097F83730002B05D0012000F0AE
:101CE0002DF8034687F8363097F83730002B03D1AC
:101CF00097F82F30002B03D097F83630002B9ED169
:101D000000BF0D4B1B6903F48023B3F5802FF8D07F
:101D100097F83630002B03D0002387F8353002E0E7
:101D2000012387F8353097F8353018463837BD46E7
:101D300080BD00BF001400580040005880B483B03C
:101D400000AF0346FB71002318460C37BD465DF813
:101D5000047B704780B483B000AF7860064BD3F843
:101D6000802005497B681343C1F8803000BF0C37E1
:101D7000BD465DF8047B70470008005880B483B00E
:101D800000AF7860054B1A6804497B6813430B6009
:101D900000BF0C37BD465DF8047B70470008005853
:101DA00080B483B000AF0D4B9B6A9BB27B600B4B42
:101DB0009B6A9BB23B6005E03B687B60074B9B6A7C
:101DC0009BB23B607A683B689A42F5D13B68184603
:101DD0000C37BD465DF8047B704700BF002800400B
:101DE00080B485B000AF03460A46FB711346BB7151
:101DF000BA791D4913465B001344DB000B441533CD
:101E00001B78FB73FB7B062B09D0FA7B1649134624
:101E10005B001344DB000B441433FA791A70FA792F
:101E2000114913465B001344DB000B441533FA7B66
:101E30001A70FA790C4913465B001344DB000B441B
:101E40001433BA791A70BA79074913465B00134400
:101E5000DB000B441533FA791A7000BF1437BD4606
:101E60005DF8047B704700BFEC40002080B485B073
:101E700000AF03460A46FB711346BB71294B1B7822
:101E8000DBB2BA799A4232D0BA79274913465B005D
:101E90001344DB000B4414331B78FB73FA7B224999
:101EA00013465B001344DB000B441533FA791A70B8
:101EB000FA791D4913465B001344DB000B441533CC
:101EC000BA791A70FA79184913465B001344DB009B
:101ED0000B441433FA7B1A70BA79134913465B002A
:101EE0001344DB000B441433FA791A7014E0FA79C6
:101EF0000D4913465B001344DB000B441533BA79DC
:101F00001A70BA79084913465B001344DB000B448E
:101F10001433FA791A7000BF1437BD465DF8047B9C
:101F2000704700BF7C410020EC40002080B584B0A9
:101F300000AF0346FB714E4B1B78DBB2062B18D16A
:101F40004B4B1B78DAB24B4B1A70494AFB79137032
:101F5000FA79494913465B001344DB000B441533FF
:101F600006221A70454B4FF0FF321A600023FB81A6
:101F700078E000F009F90346FB81FA793E491346FF
:101F80005B001344DB000B4408331968FB89FA79C2
:101F90001944394813465B001344DB0003440833FB
:101FA0001960FA79344913465B001344DB000B4493
:101FB00008331B68BB602E4B1B78DBB219462E4AD8
:101FC0000B465B000B44DB00134408331B68BA6804
:101FD0009A4237D3264B1B787B737A7B264913466C
:101FE0005B001344DB000B4415331B783B7313E099
:101FF0007A7B214913465B001344DB000B44153305
:102000001B787B737A7B1C4913465B001344DB000F
:102010000B4415331B783B733B7B062B0BD03A7B71
:10202000154913465B001344DB000B4408331B685F
:10203000BA689A42DCD27A7BFB7911461846FFF7E0
:10204000CFFE0FE00A4B1B78DAB2FB791146184637
:10205000FFF70CFF064B1B78DAB2064B1A70044AE6
:10206000FB791370FB8918461037BD4680BD00BF51
:102070007C4100207D410020EC4000208041002078
:1020800080B485B000AF03460A46FB711346BB71AE
:10209000394B1B78DBB2FA799A4211D1364B1B7857
:1020A000DAB2364B1A70FA79354913465B0013449D
:1020B000DB000B4415331B78DAB22F4B1A703EE06D
:1020C000FA792F4913465B001344DB000B441433A9
:1020D0001B78FB73FA792A4913465B001344DB0033
:1020E0000B4415331B78BB73F979FA7B24480B46F4
:1020F0005B000B44DB00034415331B78D8B2204946
:1021000013465B001344DB000B44153302461A7080
:10211000BB7B062B13D0F979BA7B19480B465B00C1
:102120000B44DB00034414331B78D8B21449134624
:102130005B001344DB000B44143302461A70FA7937
:102140000F4913465B001344DB000B440C330122A0
:102150001A70094B1B78DBB2062B07D1BB79002B19
:1021600004D1084B4FF0FF321A6000BF00BF143794
:10217000BD465DF8047B70477C4100207D41002016
:10218000EC4000208041002080B582B000AF1A4BA7
:102190001B68B3F1FF3F26D0FFF702FE7860164BB5
:1021A0001B687A689A4205D8134B1A687B68D31A61
:1021B0007B600AE0114B1B881A467B68D31A3B6090
:1021C0000D4B1B683A6813447B600D4B1B781A4615
:1021D0007B6802FB03F37B600A4B1B781A467B6823
:1021E000D3407B6001E000237B607B689BB2184694
:1021F0000837BD4680BD00BF8041002088410020D7
:10220000864100208541002080B582B000AF0346A2
:10221000FB80FB88002B08D1FFF7C2FD0346214A53
:102220001360032005F0A7FF39E0FB88012B03D8DA
:102230001D4B1B78012B02D0FB88013BFB8000BFAC
:102240001A4B1B68DB6803F00403002BF8D0174B14
:102250001B68DB68DAB2154B1B6862F49062DA60C7
:10226000134B4FF40022DA60032005F092FF114B6C
:102270005B691B0C1B04FA880E4913434B61FFF783
:102280008FFD0346074A1360084B1B689A68074B8B
:102290001B6842F480629A60AFF3008000BF083789
:1022A000BD4680BD8041002085410020CC430020F8
:1022B000000800580028004080B584B000AF454BAE
:1022C0009B6803F48063B3F5806F07D100BF424B76
:1022D0001B68DB6803F00403002BF8D13E4B1B683E
:1022E0009A683D4B1B6822F480629A603B4B1B78D6
:1022F000FB73FA7B3A4913465B001344DB000B4443
:1023000008331B68BB60FFF73FFF0346FB80FB8879
:10231000BA689A4205D20023BB81324B01221A705F
:102320004DE0FB88304A128892B213441A46BB68CB
:10233000934206D92C4B1B88BB812A4B00221A7072
:102340003DE0BB689AB2FB88D31ABB81254B0122C2
:102350001A7034E0FA7B224913465B001344DB0019
:102360000B4408331A68FB889A420AD2FA7B1C494C
:1023700013465B001344DB000B44083300221A6051
:1023800013E0FA7B164913465B001344DB000B4451
:1023900008331968FB88FA7BC91A114813465B0099
:1023A0001344DB00034408331960FA7B0C491346DD
:1023B0005B001344DB000B4415331B78FB73FB7B82
:1023C000062BC7D1BB891846FFF71EFF00BF103789
:1023D000BD4680BD00280040CC4300207C41002049
:1023E000EC400020844100208A41002080B58AB062
:1023F00000AFEFF310837B617B697B6272B600BF35
:10240000594B1B68CA225A62574B1B6853225A62A7
:10241000554B1B689A68544B1B6822F480629A6083
:10242000524B1B7887F8233097F8232050491346E6
:102430005B001344DB000B440C331B78DBB2022B34
:102440006ED197F823204A4913465B001344DB0002
:102450000B441B68FB6197F82320454913465B003A
:102460001344DB000B4410331B68BB61414B1B78EA
:10247000DBB2002B4CD097F823203D4913465B007C
:102480001344DB000B440D331B78DBB2012B24D14A
:1024900097F8233001211846FFF7F2FD7B6A3B6174
:1024A0003B6983F3108800BF97F823203049134617
:1024B0005B001344DB000B4404331A6897F82330A5
:1024C0001146184600F032FA274B1B68CA225A629E
:1024D000254B1B6853225A6212E07B6AFB60FB6843
:1024E00083F3108800BF97F82330184600F09AF95C
:1024F0001D4B1B68CA225A621B4B1B6853225A622F
:1025000097F82330FA691946B86900F095FA22E085
:10251000FFF7D2FE7B6ABB60BB6883F310881AE0CA
:1025200000BF114B1B68DB6803F00403002BF8D0DD
:102530000D4B1B68DB68DAB20B4B1B6862F49062D0
:10254000DA600D4B4FF40022DA607B6A7B607B68B7
:1025500083F3108800BF044B1B68FF225A6200BF40
:102560002837BD4680BD00BFCC4300207C41002001
:10257000EC400020844100200008005880B588B05D
:1025800000AF03463960FB715E4B1B68CA225A627A
:102590005C4B1B6853225A625B4B9B685A4A43F060
:1025A00020039360584B9B68DBB203F00703DBB258
:1025B000C3F10403DAB2554B1A70534B1B6903F491
:1025C000FE034FF4FE023A613A6992FAA2F2FA600F
:1025D000FA687A617A69002A01D1202203E07A69D7
:1025E000B2FA82F2D2B2D340DBB20133DAB2484B54
:1025F0001A70454B1B699BB2C3F30E039BB20133A8
:102600009AB2444B1A80434B1B88013B404A1278D4
:1026100002FB03F3A3F5A0733C4A1278D340BB61DD
:10262000BB694FF6FE72934204D93B4B4FF6FF72E3
:102630001A8003E0BB699AB2374B1A804FF400202E
:10264000FFF79CFB4FF40020FFF784FBFB79002B86
:102650003DD1324B01221A70314B4FF0FF321A60DC
:102660000023FB770CE0FA7F2E4913465B001344EE
:10267000DB000B440C3300221A70FB7F0133FB7725
:10268000FB7F052BEFD9284B06221A701D4B1B68C8
:102690009A681C4B1B6822F480629A60194B1B6875
:1026A000DB68DAB2174B1B6862F49062DA601F4B8A
:1026B0004FF40022DA60032005F06BFD114B1B681C
:1026C0009A68104B1B6842F480429A6009E00D4BF7
:1026D0001B68DB6803F48063002B02D0032005F045
:1026E0004AFD084B1B68FF225A6200220321032087
:1026F00005F0FFFC032005F016FD00BF2037BD46A6
:1027000080BD00BFCC430020002800408541002050
:1027100086410020884100208A4100208441002019
:1027200080410020EC4000207C410020000800583F
:1027300080B48BB000AFF860B9603B601346FB71AA
:10274000002387F82630EFF31083FB61FB693B62BF
:1027500072B600BF04E097F82630013387F82630C0
:1027600097F82630052B0CD897F826202C491346CD
:102770005B001344DB000B440C331B78DBB2002BF3
:10278000E9D197F82630062B38D097F8262024492F
:1027900013465B001344DB000B440C3301221A7018
:1027A0003B6ABB61BB6983F3108800BF97F82620A2
:1027B0001B4913465B001344DB000B441033FA68DB
:1027C0001A6097F82620164913465B001344DB0075
:1027D0000B440D33FA791A7097F8262010491346E6
:1027E0005B001344DB000B443A681A60BB6897F83F
:1027F00026201A70002387F8273008E03B6A7B61A7
:102800007B6983F3108800BF012387F8273097F88E
:10281000273018462C37BD465DF8047B704700BF53
:10282000EC40002080B586B000AF0346FB71EFF3AB
:102830001083FB60FB687B6172B600BF032005F06C
:1028400080FC344B1B68CA225A62324B1B685322ED
:102850005A62FA79304913465B001344DB000B449B
:102860000C331B78DBB2022B42D1FB7900211846D6
:10287000FFF706FC294B1B78FB74FB7C062B2FD142
:10288000274B9B6803F48063B3F5806F07D100BFCB
:10289000204B1B68DB6803F00403002BF8D11D4BB1
:1028A0001B689A681B4B1B6822F480629A6000BF09
:1028B000184B1B68DB6803F00403002BF8D0154BA2
:1028C0001B68DB68DAB2134B1B6862F49062DA6053
:1028D000144B4FF40022DA60032005F05AFC07E0A5
:1028E000114B1B78DBB2FA7C9A4201D0FFF7E4FC73
:1028F000084B1B68FF225A62032005F014FC7B6919
:10290000BB60BB6883F3108800BF00BF1837BD46AB
:1029100080BD00BFCC430020EC4000207C41002063
:1029200000280040000800587D41002080B586B096
:1029300000AF03463960FB71FA793B4913465B00EF
:102940001344DB000B440C331B78DBB2022B03D1A6
:10295000FB791846FFF766FFEFF31083FB60FB6817
:102960007B6172B600BF032005F0EBFB2F4B1B68A9
:10297000CA225A622D4B1B6853225A62FA792A499D
:1029800013465B001344DB000B440C3302221A7025
:10299000FA79254913465B001344DB000B440833E6
:1029A0003A681A60FA79204913465B001344DB0049
:1029B0000B4404333A681A60FB791846FFF7B6FAFD
:1029C00003467B821A4B1B787B741A4B1B78DBB255
:1029D0007A7C9A4202D0FFF76FFC13E0FA79124931
:1029E00013465B001344DB000B44083319687B8AF1
:1029F000FA79C91A0C4813465B001344DB00034400
:102A000008331960094B1B68FF225A62032005F046
:102A10008AFB7B69BB60BB6883F3108800BF00BF83
:102A20001837BD4680BD00BFEC400020CC430020DD
:102A30007C4100207D41002080B584B000AFF8606B
:102A40000B467A60FB727B68984700BF1037BD4623
:102A500080BD80B582B000AF0346FB71FB79002BCF
:102A600002D100F0A7F900E000BF00BF0837BD4663
:102A700080BD000080B584B000AFB9607B600346C4
:102A8000FB731346BB81FB7B002B0CD1084A7B6890
:102A90001360084B084A1A60BB891A46B968054892
:102AA00008F082FB00E000BF00BF1037BD4680BDCC
:102AB0008C410020644200200038014080B586B07F
:102AC00000AFB9607B600346FB731346BB810023F4
:102AD000FB750023BB75FB7B002B0ED1174A7B686F
:102AE0001360174B174A1A60BB891A46B968144815
:102AF00008F0A6FB0346FB7500E000BFFB7D032B3F
:102B000016D801A252F823F0192B00081F2B000839
:102B1000252B00082B2B00080023BB7509E001239F
:102B2000BB7506E00223BB7503E00323BB7500E021
:102B300000BFBB7D18461837BD4680BD90410020C0
:102B4000644200200038014080B582B000AF786058
:102B50007B681B681A46094B9A4207D1084B1B68D1
:102B6000002B05D0064B1B68984701E000BF00E032
:102B700000BF00BF0837BD4680BD00BF0038014020
:102B80008C41002080B582B000AF78607B681B6804
:102B90001A46094B9A4207D1084B1B68002B05D0F7
:102BA000064B1B68984701E000BF00E000BF00BF74
:102BB0000837BD4680BD00BF00380140904100206D
:102BC00080B483B000AF78604FF0B043D3F890305A
:102BD00023F018024FF0B0417B681343C1F89030E6
:102BE00000BF0C37BD465DF8047B704780B485B0EC
:102BF00000AF78604FF0B0439A6C4FF0B0417B6803
:102C000013438B644FF0B0439A6C7B681340FB60B6
:102C1000FB6800BF1437BD465DF8047B704780B485
:102C200085B000AF78604FF0B043DA6C4FF0B04140
:102C30007B681343CB644FF0B043DA6C7B6813407E
:102C4000FB60FB6800BF1437BD465DF8047B70472E
:102C500080B500AF05F074F8FEF70CFC00F018F832
:102C600000F074F800F092F800F062F900F042F918
:102C700000F0EEF800F00AF900F0F2F84FF480509E
:102C8000FFF7B4FFFEF704FCFEF764FEFCE700006C
:102C900080B59AB000AF07F1200348220021184602
:102CA00026F084FA3B1D00221A605A609A60DA60AE
:102CB0001A615A619A6106F049FA0020FFF780FF15
:102CC000214B1B6823F4C0631F4A43F40073136055
:102CD0001D4B1B6803F4C0633B603B6847233B62AA
:102CE0004FF480337B620123BB624FF48073FB623D
:102CF0000123BB6440233B630023FB6407F12003F3
:102D0000184606F0B7FD0346002B01D000F03CF951
:102D10006F237B600223BB600023FB6000233B61C9
:102D200000237B610023BB610023FB613B1D01216C
:102D3000184607F013F90346002B01D000F024F9E0
:102D400000BF6837BD4680BD0004005880B594B010
:102D500000AF3B4650220021184626F027FA4FF4D8
:102D600040533B604FF480437B640223BB641023D9
:102D7000FB643B46184607F02EFD0346002B01D0AE
:102D800000F002F900BF5037BD4680BD80B500AFEE
:102D9000064B074A1A60054806F052F90346002B15
:102DA00001D000F0F1F800BF80BD00BF94410020C9
:102DB000000C005880B500AF234B244A1A60224B08
:102DC0004FF4E1325A60204B00229A601E4B0022E1
:102DD000DA601D4B00221A611B4B0C225A611A4B00
:102DE00000229A61184B4FF40042DA61164B002220
:102DF0001A62154B00225A62134B00229A62124843
:102E000008F082F90346002B01D000F0BDF8002144
:102E10000D480AF0D6F90346002B01D000F0B4F8B3
:102E20004FF0206108480AF00AFA0346002B01D04F
:102E300000F0AAF804480AF089F90346002B01D0F3
:102E400000F0A2F800BF80BD6442002000380140BD
:102E500080B400AF00BFBD465DF8047B7047000042
:102E600080B500AF074B084A1A60064B00225A6033
:102E7000044807F037FF0346002B01D000F084F828
:102E800000BF80BDB84300200010005880B500AFDF
:102E9000164B174A1A60154B00225A60134B0F222B
:102EA0009A60124B47F6FF72DA60104B00221A61EB
:102EB0000E4B00229A610D4B0022DA610B4B00226F
:102EC0005A610A4807F044FF0346002B01D000F086
:102ED0005BF800220021054808F03AF80346002B71
:102EE00001D000F051F800BF80BD00BFCC430020EE
:102EF0000028004080B500AF0420FFF777FE0120D6
:102F0000FFF774FE0220FFF771FE00220F210E2052
:102F100005F0EFF80E2005F006F900220F213A2007
:102F200005F0E7F83A2005F0FEF800BF80BD00008C
:102F300080B586B000AF0420FFF771FE0120FFF7D7
:102F40006EFE0220FFF76BFE002201210D4806F005
:102F500023F83B1D00221A605A609A60DA601A61F9
:102F600001237B600123BB600223FB6000233B61E4
:102F70003B1D1946034805F087FE00BF1837BD46C4
:102F800080BD00BF0008004880B400AF00BFBD4650
:102F90005DF8047B704780B400AF4FF0B043D3F8C6
:102FA00090304FF0B04243F40043C2F8903000BF7D
:102FB000BD465DF8047B704780B485B000AF786093
:102FC0004FF0B043DA6C4FF0B0417B681343CB64F1
:102FD0004FF0B043DA6C7B681340FB60FB6800BFC6
:102FE0001437BD465DF8047B704780B485B000AFF0
:102FF00078604FF0B0431A6D4FF0B0417B681343D7
:103000000B654FF0B0431A6D7B681340FB60FB68A3
:1030100000BF1437BD465DF8047B704780B485B0AF
:1030200000AF78604FF0B0439A6D4FF0B0417B68CD
:1030300013438B654FF0B0439A6D7B681340FB6080
:10304000FB6800BF1437BD465DF8047B704780B451
:1030500085B000AF78604FF0B043DA6D4FF0B0410B
:103060007B681343CB654FF0B043DA6D7B68134048
:10307000FB60FB6800BF1437BD465DF8047B7047FA
:1030800080B485B000AF78604FF0B0431A6E4FF057
:10309000B0417B6813430B664FF0B0431A6E7B68F8
:1030A0001340FB60FB6800BF1437BD465DF8047B2E
:1030B000704780B500AF4FF40020FFF796FF002265
:1030C00000212E2005F015F82E2005F02CF800BF69
:1030D00080BD000080B582B000AF78607B681B685F
:1030E0000D4A934213D14FF48010FFF77EFF002268
:1030F00000212C2004F0FDFF2C2005F014F8002204
:1031000000212D2004F0F5FF2D2005F00CF800BF64
:103110000837BD4680BD00BF000C005880B5A0B088
:1031200000AF786007F16C0300221A605A609A6061
:10313000DA601A6107F10C0350220021184626F0CC
:1031400035F87B681B68684A93426ED10223FB60A6
:103150000023BB6207F10C03184607F03CFB034653
:10316000002B01D0FFF710FF0120FFF770FF0120B7
:10317000FFF722FF0C23FB6602233B6700237B67DC
:103180000323BB670823FB6707F16C0319464FF065
:10319000904005F079FD554B554A1A60534B11226A
:1031A0005A60524B10229A60504B0022DA604F4B0B
:1031B00080221A614D4B00225A614C4B00229A61C9
:1031C0004A4B0022DA61494B00221A62474804F058
:1031D000EFFF0346002B01D0FFF7D6FE4FF08853D8
:1031E000FB6500233B66002387F86430002387F8E3
:1031F00065300123BB6607F15C0319463B4805F0C7
:1032000009FB0346002B01D0FFF7BEFE7B68374A5F
:10321000DA67364A7B68936200220021252004F099
:1032200068FF252004F07FFF5AE07B681B68314A65
:10323000934255D10123FB6000237B6207F10C030D
:10324000184607F0C8FA0346002B01D0FFF79CFE92
:103250004FF48040FFF714FF0220FFF7ADFEC023BC
:10326000FB6602233B6700237B670323BB670723BF
:10327000FB6707F16C0319461F4805F005FD1F4B5E
:103280001F4A1A601D4B0F225A601C4B10229A6075
:103290001A4B0022DA60194B80221A61174B002268
:1032A0005A61164B00229A61144B0022DA61134BCB
:1032B00000221A62114804F07BFF0346002B01D064
:1032C000FFF762FE7B680D4ADA670C4A7B689362FF
:1032D00000220021242004F00CFF242004F023FF0E
:1032E00000BF8037BD4680BD00800040F84200200E
:1032F00044000240003801400004004858430020C8
:103300004404024080B596B000AF786007F108032E
:1033100050220021184625F049FF7B681B680D4AA2
:10332000934213D14FF40073BB604FF080533B6462
:1033300007F10803184607F04EFA0346002B01D0A8
:10334000FFF722FE4FF48020FFF74FFE00BF5837F3
:10335000BD4680BD0010005880B596B000AF7860C3
:1033600007F1080350220021184625F01FFF7B6853
:103370001B68124A93421DD14FF40063BB604FF4A7
:103380008073BB6407F10803184607F024FA03466C
:10339000002B01D0FFF7F8FDFFF7FDFD4FF4806033
:1033A000FFF73CFE00220021032004F0A2FE0320D0
:1033B00004F0B9FE00BF5837BD4680BD002800406C
:1033C00080B400AF00BFBD465DF8047B70470000CD
:1033D00080B500AF022004F07FFB024825F0B0FD6D
:1033E00000BFFDE7F4CA020880B400AF00BFFDE7EC
:1033F00080B400AF00BFFDE780B400AF00BFFDE7C1
:1034000080B400AF00BFBD465DF8047B704780B458
:1034100000AF00BFBD465DF8047B704780B400AFCD
:1034200000BFBD465DF8047B704780B500AF04F077
:10343000E1FC00BF80BD80B500AFFEF7D7FF00BF45
:1034400080BD000080B500AF024805F092F800BFD3
:1034500080BD00BFF842002080B500AF024807F0F1
:103460006FFF00BF80BD00BF6442002080B500AF89
:10347000024807F065FF00BF80BD00BFD0410020BB
:1034800080B500AF04F060F900BF80BD80B500AF2B
:1034900004F090F900BF80BD80B500AF05F0ACFD31
:1034A00000BF80BD80B500AF024805F062F800BFE4
:1034B00080BD00BF5843002080B500AF102005F04C
:1034C00083FD00BF80BD80B500AF012005F07CFD0D
:1034D00000BF80BD80B500AF022005F075FD00BFC4
:1034E00080BD80B400AF01231846BD465DF8047B63
:1034F000704780B582B000AF7860396025F0BAFEC1
:10350000034616221A604FF0FF3318460837BD46AF
:1035100080BD80B582B000AF78604FF0FF31786831
:10352000FFF7E7FF00BFFDE780B586B000AFF860AA
:10353000B9607A6000237B610AE0AFF30080014646
:10354000BB685A1CBA60CAB21A707B6901337B61CE
:103550007A697B689A42F0DB7B6818461837BD466B
:1035600080BD80B483B000AF78604FF0FF33184661
:103570000C37BD465DF8047B704780B483B000AF64
:10358000786039603B684FF400525A600023184657
:103590000C37BD465DF8047B704780B483B000AF44
:1035A0007860012318460C37BD465DF8047B7047F0
:1035B00080B485B000AFF860B9607A600023184627
:1035C0001437BD465DF8047B7047000080B586B0B7
:1035D00000AF7860144A154BD31A7B617B693B615D
:1035E000134B1B68002B02D1114B124A1A60104B6F
:1035F0001A687B6813443A699A4207D225F03AFE6A
:1036000003460C221A604FF0FF3309E0084B1B6899
:10361000FB60074B1A687B681344054A1360FB681C
:1036200018461837BD4680BD00000320001000007A
:10363000F0430020F880002080B400AF034B1B68EB
:103640001846BD465DF8047B704700BF8075FF1FBC
:1036500080B400AF034B1B68DBB21846BD465DF873
:10366000047B70478475FF1F80B400AF034B1B6859
:103670001B0A1846BD465DF8047B70478475FF1F22
:10368000B0B596B004AF3A4B3C1D1D460FCD0FC4EC
:103690000FCD0FC40FCD0FC495E8070003C42280DF
:1036A00000F080F80121022012F07CFE01210220AE
:1036B00012F048FE2F4A00214FF4007012F09EFFD6
:1036C0003B1D184611F028FF034687F8473097F84E
:1036D0004730002B08D097F847301946264825F088
:1036E000C7FBFFF751FC02E0244825F0C1FB922301
:1036F00087F8463000F06CF838643A6C06210020F8
:1037000011F0DAFA034687F8463097F84630002B76
:1037100006D097F846301946194825F0A9FB21E054
:10372000184825F00DFC3B6C05331B7818463B6CA4
:1037300004331B781C463B6C03331B781D463B6CE3
:1037400002331B781A463B6C01331B7819463B6CDD
:103750001B780293019100922B46224601460A48AB
:1037600025F086FB0FF0B6FF00BF4837BD46B0BD61
:1037700048CC02086557010804CB02083CCB02087C
:1037800064CB0208C0CB02080CCC020880B582B022
:1037900000AF786078681BF029FC012318460837D1
:1037A000BD4680BD80B582B000AF064B3B60064B86
:1037B0007B603B461946054811F0B8FF00BF08374B
:1037C000BD4680BD28000320D73800089F38000878
:1037D00080B586B000AFFFF72FFF38613B69B3F1CA
:1037E000FF3F23D0FFF740FFB860FFF731FF78605D
:1037F0003B69DAB2164B1A703B691B0ADAB2144BFA
:103800005A707B68DAB2124B9A70BB68DAB2104B0E
:10381000DA70BB681B0ADAB20D4B1A71BB681B0C5D
:10382000DAB20B4B5A710A4B7B610BE0002012F0AD
:103830004FFDF860FB68002B02D0FB687B6101E064
:10384000044B7B617B6918461837BD4680BD00BFBD
:10385000F4430020A404030880B582B000AF786070
:1038600000214FF4007012F0EBFE00BF0837BD4698
:1038700080BD80B582B000AF7860012012F04CFFAF
:1038800000BF0837BD4680BD80B582B000AF78600C
:10389000012012F061FF00BF0837BD4680BD80B532
:1038A00084B000AF78607B68FB60FB685B680833BE
:1038B00018460FF047FF0346FB72FB7A002B03D03C
:1038C000FB6801221A7003E0FB6800221A7000BF37
:1038D0001037BD4680BD80B584B000AF0346FB7194
:1038E000FB79002B02D0012B07D00DE040F2FF3313
:1038F000FB60F86812F0D0FE06E040F2FF33FB6098
:10390000F86812F0E9FE00BF00BF1037BD4680BD69
:1039100080B584B000AF78607B681B8819467B68EF
:103920005B881A46164825F0A3FA7B685B7B19462C
:10393000144825F09DFA7B685B7B002B1CD1124854
:1039400025F096FA0023FB730EE07B689B681B78DA
:1039500019460E4825F08CFA7B689B685A1C7B68D8
:103960009A60FB7B0133FB737B681B7BFA7B9A427B
:10397000EBD3074825F0E4FA00BF1037BD4680BD01
:1039800084CC0208C4CC0208D8CC0208E4CC0208DB
:10399000ECCC020880B582B000AF78607B681B88F1
:1039A00019467B685B881A46064825F061FA7B68F1
:1039B0005B7B1946044825F05BFA00BF0837BD461B
:1039C00080BD00BFF0CC0208C4CC020880B584B032
:1039D00000AF78607B681B881946174825F048FAC5
:1039E0007B689B7A1946154825F042FA7B689B7ADA
:1039F000002B1DD1124825F0A3FA0023FB730EE023
:103A00007B685B681B8819460E4825F031FA7B6895
:103A10005B689A1C7B685A60FB7B0133FB73FB7B02
:103A20009AB27B681B899A42EAD3074825F088FA44
:103A300000BF1037BD4680BD34CD0208C4CC02089B
:103A40005CCD0208E4CC0208ECCC020880B584B05E
:103A500000AF78607B681B8819467B685B881A46D4
:103A6000184825F005FA7B685B7B1946164825F057
:103A7000FFF97B685B7B002B1FD1144825F0F8F918
:103A80000023FB730EE07B689B681B781946104887
:103A900025F0EEF97B689B685A1C7B689A60FB7B7B
:103AA0000133FB737B681B7BFA7B9A42EBD309489B
:103AB00025F046FA084825F043FA00BF1037BD4606
:103AC00080BD00BF74CD0208C4CC0208B8CD020886
:103AD000E4CC0208ECCC0208CCCD020880B584B05E
:103AE00000AF78607B681B881946174825F0C0F93D
:103AF0007B685B7B1946154825F0BAF97B685B7BD0
:103B0000002B1CD1124825F0B3F90023FB730EE003
:103B10007B685B681B7819460E4825F0A9F97B681D
:103B20005B685A1C7B685A60FB7B0133FB737B68C4
:103B30001B7BFA7B9A42EBD3074825F001FA00BFC2
:103B40001037BD4680BD00BF04CE0208C4CC0208B9
:103B500034CE0208E4CC0208ECCC020880B582B076
:103B600000AF78607B681B881946064825F080F90D
:103B70007B685B7B1946044825F07AF900BF08375B
:103B8000BD4680BD40CE0208C4CC020880B584B0DA
:103B900000AF78607B689B791946124825F068F978
:103BA000114825F0CDF90023FB730EE07B681B68FC
:103BB0001B8819460D4825F05BF97B681B689A1C29
:103BC0007B681A60FB7B0133FB73FB7B9AB27B68DB
:103BD0009B889A42EAD3064825F0B2F900BF103715
:103BE000BD4680BDC4CC020870CE0208E4CC0208F9
:103BF000ECCC020880B584B000AF78607B681B888D
:103C00001946184825F034F97B685B7B194616483D
:103C100025F02EF97B685B7B002B1FD1134825F024
:103C200027F90023FB730EE07B685B681B7819465D
:103C30000F4825F01DF97B685B685A1C7B685A6049
:103C4000FB7B0133FB737B681B7BFA7B9A42EBD3D4
:103C5000084825F075F9084825F072F900BF1037BB
:103C6000BD4680BD88CE0208C4CC0208B8CE02088A
:103C7000E4CC0208ECCC0208CCCE020880B584B0BB
:103C800002AF78607B681B7819467B685A687B684E
:103C90005B8818467B681B7A00930346034825F02F
:103CA000E7F800BF0837BD4680BD00BF04CF02085B
:103CB00080B584B002AF78607B681B7819467B685A
:103CC0005A687B685B8818467B681B7A00930346BA
:103CD000034825F0CDF800BF0837BD4680BD00BFC2
:103CE0006CCF020880B582B000AF78607B689B7AA9
:103CF0001946104825F0BCF87B68DB7A002B0AD007
:103D00007B681B7819467B685A687B681B890A4860
:103D100025F0AEF809E07B681B7819467B685A6885
:103D20007B681B89054825F0A3F800BF0837BD460E
:103D300080BD00BFC4CC0208D8CF020834D002082E
:103D400080B582B000AF78607B689B7A19461748CF
:103D500025F08EF87B68DB7A002B0AD07B681B7815
:103D600019467B685A687B681B89114825F080F8E2
:103D700017E07B681B7B002B09D07B681B781946FA
:103D80007B685B681A460B4825F072F809E07B688F
:103D90001B7819467B685A687B681B89064825F0A2
:103DA00067F800BF0837BD4680BD00BFC4CC02081D
:103DB00088D00208ECD0020834D1020880B582B065
:103DC00000AF78607B689B7A1946104825F050F860
:103DD0007B68DB7A002B0AD07B681B7819467B68EE
:103DE0005A687B681B890A4825F042F809E07B681D
:103DF0001B7819467B685A687B681B89054825F043
:103E000037F800BF0837BD4680BD00BFC4CC0208EC
:103E10008CD10208ECD1020880B582B000AF786086
:103E20007B6859687B681B781A46074825F020F89C
:103E30007B685B68B3F5885F02D178680FF074FB2C
:103E400000BF0837BD4680BD44D20208F0B589B036
:103E500006AF78607B685B7C1946144825F008F84B
:103E60007B681B7B1E467B681B789C467B685A6878
:103E70007B685B8919467B689B7B18467B68DB7B8C
:103E80001C467B681B7C1D467B685B7B049303950B
:103E9000029401900091134662463146044824F092
:103EA000E7FF00BF0C37BD46F0BD00BFC4CC020821
:103EB00088D2020880B582B000AF7860084611460B
:103EC0001A460346FB700B463B801346BB70BB781B
:103ED000002B40F0A780BA787B6818785F491346BA
:103EE0009B0013440B4402461A70BA787B68B3F8FF
:103EF000013098B2594913469B0013440B440246C3
:103F0000A3F80120FB78032B02D0FB78022B48D1C9
:103F1000BA78524913469B0013440B44B3F801305E
:103F20009AB24F4B1A804E4B1A6811465868024697
:103F300098680346042000F019FFBA787B68B3F84C
:103F4000033098B2454913469B0013440B44024684
:103F5000A3F80320BA78414913469B0013440B444D
:103F6000B3F8013099B2BA783C4813469B00134429
:103F70000344B3F803309BB2994253D1BA7837491E
:103F800013469B0013440B44B3F801309BB2002B43
:103F900003D0002003F0A0FD44E0002003F0B6FDB4
:103FA00040E0BA782D4913469B0013440B441B781C
:103FB000012B1ED1FB78012B1BD1294B002262F073
:103FC00009021A70002242F07C025A70244B1A68CF
:103FD00011465868024698680346042000F0C6FE61
:103FE000012201211F4804F0D7FF002003F074FDD7
:103FF00018E01B4B002242F001021A7000225A7096
:10400000174B1A6811465868024698680346022002
:1040100000F0ACFE00220121124804F0BDFF002098
:1040200003F074FD0021104809F078FABB781946B6
:104030000E4824F01DFF00210B4809F06FFABB78F1
:1040400019460B4824F014FFBB781946012009F0EB
:104050009BFC002318460837BD4680BDFC4300206A
:104060001C44002000080048AC0403088CD302085C
:10407000D0D3020880B584B000AF786008461146FE
:104080001A460346FB700B463B801346BB70BA785A
:104090007B68B3F9003018B2484913465B001344FB
:1040A0009B000B4402461A80BA78444913465B00D1
:1040B00013449B000B44B3F90030002B08DCBA78A2
:1040C0003E4913465B0013449B000B4400221A80B8
:1040D000BA783A4913465B0013449B000B44B3F98A
:1040E00000309AB2364B1A80354B1A88354B1B88F4
:1040F0009A4205D9324B1B8847F6F542934203D9C1
:104100002F4B1B88002B03D12F4B00221A7002E08B
:104110002D4B01221A702A4B1A882A4B1A80BA7822
:10412000264913465B0013449B000B44B3F900304F
:10413000002B08DABA78214913465B0013449B0030
:104140000B4400221A80BA781C4913465B001344C2
:104150009B000B44B3F900309BB2002247F6FF717D
:10416000184602F013FB0346FB81184BFA891A80AC
:10417000164B1A6811465868024698680346042090
:1041800000F0F4FD0021124809F0C8F9BB78194687
:10419000104824F06DFE00210D4809F0BFF9BB78EE
:1041A00019460D4824F064FEBB781946022009F038
:1041B000EBFB002318461037BD4680BD04440020A9
:1041C0002C440020164400202E4400201C440020D3
:1041D000C4040308F0D3020834D4020880B582B0C6
:1041E00000AF7860084611461A460346FB700B463E
:1041F0003B801346BB70BA787B68B3F9003018B2C5
:10420000254913465B0013449B000B4402461A8069
:10421000BA78214913465B0013449B000B44B3F961
:104220000030312B16DD1D4B002262F009021A709E
:10423000002242F07C025A70184B1A6811465868E6
:10424000024698680346042000F090FD002003F029
:1042500043FC0CE0114B1A681146586802469868F6
:104260000346022000F082FD002003F04FFC0021F5
:104270000B4809F053F9BB7819460A4824F0F8FDB9
:104280000021074809F04AF9074824F059FE0023A5
:1042900018460837BD4680BD044400201C44002059
:1042A000DC04030854D4020890D4020880B582B01C
:1042B00000AF7860084611461A460346FB700B466D
:1042C0003B801346BB70BA787B6899682E481346CA
:1042D0005B0013449B00034408331960BA787B6881
:1042E0005879294913465B0013449B000B4405335E
:1042F00002461A70BA787B68B3F9063018B22249C0
:1043000013465B0013449B000B44063302461A809D
:10431000BA787B68B3F9003018B21B4913465B00CA
:1043200013449B000B4402461A80BA787B681879C4
:10433000154913465B0013449B000B4404330246AB
:104340001A70BA787B68B3F9023018B20E49134676
:104350005B0013449B000B44023302461A80002189
:104360000A4809F0DBF8BB781946094824F080FDBB
:104370000021064809F0D2F8064824F0E1FD0023A8
:1043800018460837BD4680BD04440020F4040308E5
:1043900098D40208D4D4020880B582B000AF786007
:1043A000084611461A460346FB700B463B801346EF
:1043B000BB707B681A78BB7811B2124A22F81310CE
:1043C0000021114809F0AAF8BB7819460F4824F0DB
:1043D0004FFD00210C4809F0A1F8BB7819460C48A4
:1043E00024F046FDBB78074A32F91330012B02D185
:1043F000084B01221A7002F02BFA002318460837E6
:10440000BD4680BD104400200C050308E0D402081E
:1044100000D502084045002080B483B000AF78602A
:104420000B467B8013467B707A78074913469B00C6
:1044300013440B441A787B681A70002318460C3713
:10444000BD465DF8047B7047FC43002080B483B018
:1044500000AF78600B467B8013467B707A781E49EC
:1044600013469B0013440B44B3F801309BB2DAB2FD
:104470007B681A707A78184913469B0013440B44E2
:10448000B3F801309BB21B0A9AB27B680133D2B2F7
:104490001A707A78104913469B0013440B44B3F802
:1044A00003309AB27B680233D2B21A707A780A4922
:1044B00013469B0013440B44B3F803309BB21B0A12
:1044C0009AB27B680333D2B21A70002318460C37B5
:1044D000BD465DF8047B7047FC43002080B483B088
:1044E00000AF78600B467B8013467B707A781F495B
:1044F00013465B0013449B000B44B3F90030DAB25F
:104500007B681A707A78194913465B0013449B0044
:104510000B44B3F900301B121AB27B680133D2B2DC
:104520001A707A78114913465B0013449B000B44C0
:104530000233B3F900207B680233D2B21A707A7862
:104540000A4913465B0013449B000B440233B3F942
:1045500000301B121AB27B680333D2B21A700023E8
:1045600018460C37BD465DF8047B704704440020B4
:1045700080B483B000AF78600B467B8013467B70BD
:104580007B78064A32F91330DAB27B681A7000235E
:1045900018460C37BD465DF8047B70471044002078
:1045A00080B483B000AF78600B467B8013467B708D
:1045B0007B78054AD25C7B681A70002318460C375A
:1045C000BD465DF8047B70471444002080B586B07A
:1045D00000AFF860B96011461A460B46FB801346DF
:1045E0007B710021264808F099FF7B791946254800
:1045F00024F03EFC0021224808F090FF224824F0DD
:104600009FFC0023FB7531E0FB7D002B0CD10021CA
:104610001B4808F083FFFB7DFA6813441B7819469A
:104620001A4824F025FC1EE0FB7D012B0CD1002153
:10463000134808F073FFFB7DFA6813441B78194692
:10464000134824F015FC0EE0FB7D022B0BD100215A
:104650000B4808F063FFFB7DFA6813441B7819468A
:104660000C4824F005FCFB7D0133FB75FB7DBA682B
:104670009A42C9D8002318461837BD4680BD00BFEE
:104680002C05030848D5020884D502088CD50208F9
:10469000A8D50208C4D5020880B584B000AFF86080
:1046A000B96011461A460B46FB8013467B71002108
:1046B000094808F033FF7B791946084824F0D8FBF5
:1046C0000021054808F02AFF054824F039FC0023A2
:1046D00018461037BD4680BD48050308E0D50208DE
:1046E0002CD6020880B586B000AFF860B9601146DC
:1046F0001A460B46FB8013467B710021164808F0D2
:104700000DFF7B791946154824F0B2FB00211248B1
:1047100008F004FF124824F013FC0023FB7511E09D
:10472000FB7D002B0BD100210B4808F0F7FEFB7D31
:10473000FA6813441B7819460A4824F099FBFB7D5C
:104740000133FB75FB7DBA689A42E9D8002318460D
:104750001837BD4680BD00BF7405030834D6020873
:1047600074D602087CD6020880B584B000AF7860A9
:10477000084611461A460346FB700B463B8013461B
:10478000BB700021414808F0C9FE414824F070FB8D
:1047900000213E4808F0C2FEB9787B681B889BB2B6
:1047A0001A467B68B3F807309BB23A4824F060FBA6
:1047B000BA787B681B8898B2374913469B0013442C
:1047C0005B0013440B4402461A80BA787B68B3F846
:1047D000073098B2304913469B0013445B001344E2
:1047E0000B44023302461A807B681B889BB2002B65
:1047F0000DD0BA787B681B8898B2274913469B0076
:1048000013445B0013440B44023302461A80234BCB
:104810001A88234B1B889A4205D9204B1B8847F6E0
:10482000F542934203D91D4B1B88002B03D11D4B2E
:1048300000221A7002E01B4B01221A70174B1A88D3
:10484000174B1A80BA78144913469B0013445B0037
:1048500013440B441B889BB200224FF6FF7118468D
:1048600001F094FF0346FB810F4AFB8913800E4B36
:104870000ECB042000F07AFABB781946032009F029
:1048800083F8002318461037BD4680BD9405030801
:10489000B0D60208BCD60208740000202C440020C8
:1048A000284400202E4400201C44002080B582B003
:1048B00000AF7860084611461A460346FB700B4667
:1048C0003B801346BB70BB787A68528891B20C4A21
:1048D00022F8131000210B4808F020FEBB7819467F
:1048E000094824F0C5FA0021064808F017FE0748D9
:1048F00024F0BEFA002318460837BD4680BD00BF2D
:1049000018440020B0050308ECD6020830D702088E
:1049100080B582B000AF7860084611461A4603465B
:10492000FB700B463B801346BB707B681B889BB2B9
:10493000002B03D0002003F0CFF802E0002003F0AA
:10494000E5F8BA787B681B8898B2124913469B0039
:1049500013445B0013440B44043302461A800021C5
:104960000D4808F0DBFD0D4824F0EAFA00210A4862
:1049700008F0D4FDBB781946094824F079FABB78D1
:104980001946032009F000F8002318460837BD46F1
:1049900080BD00BF74000020D40503083CD7020886
:1049A00048D7020880B582B000AF78600B46FB7034
:1049B000FA787B68B3F8073098B2144913469B0025
:1049C00013445B0013440B44023302461A80002157
:1049D0000F4808F0A3FD0F4824F04AFA00210C48C4
:1049E00008F09CFDFA78094913469B0013445B00CC
:1049F00013440B4402331B889BB21946064824F02B
:104A000037FA002318460837BD4680BD74000020E1
:104A1000F805030894D70208A0D7020880B582B031
:104A200000AF7860084611461A460346FB700B46F5
:104A30003B801346BB70BA787B6818781E491346D2
:104A40009B0013445B0013440B44063302461A7068
:104A5000BA787B68B3F8013098B2174913469B00C7
:104A600013445B0013440B440246A3F80720BA78B2
:104A70007B68B3F8033098B20F4913469B00134488
:104A80005B0013440B4408330246A3F801200021C5
:104A90000A4808F043FD0A4824F0EAF900210748D3
:104AA00008F03CFDBB781946064824F0E1F90023E4
:104AB00018460837BD4680BD74000020180603085C
:104AC000DCD70208E8D7020880B483B000AF786072
:104AD0000B467B8013467B707A78214913469B00F6
:104AE00013445B0013440B441B889BB2DAB27B680F
:104AF0001A707A781A4913469B0013445B001344DA
:104B00000B441B889BB21B0A9AB27B680133D2B25A
:104B10001A707A78124913469B0013445B001344C1
:104B20000B4402331B889AB27B680233D2B21A70EC
:104B30007A780B4913469B0013445B0013440B44E3
:104B400002331B889BB21B0A9AB27B680333D2B232
:104B50001A70002318460C37BD465DF8047B704779
:104B60007400002080B483B000AF78600B467B8077
:104B700013467B707B781B4A32F81330DAB27B68BD
:104B80001A707B78174A32F813301B0A9AB27B6886
:104B90000133D2B21A707A78134913469B0013443A
:104BA0005B0013440B4402331B889AB27B680233C8
:104BB000D2B21A707A780C4913469B0013445B00FA
:104BC00013440B4402331B889BB21B0A9AB27B68C6
:104BD0000333D2B21A70002318460C37BD465DF875
:104BE000047B7047184400207400002080B483B018
:104BF00000AF78600B467B8013467B707A78124951
:104C000013469B0013445B0013440B4404331B887E
:104C10009BB2DAB27B681A707A780B4913469B0014
:104C200013445B0013440B4404331B889BB21B0AE0
:104C30009AB27B680133D2B21A70002318460C373F
:104C4000BD465DF8047B70477400002080B483B0DB
:104C500000AF78600B467B8013467B707A781249F0
:104C600013469B0013445B0013440B4402331B8820
:104C70009BB2DAB27B681A707A780B4913469B00B4
:104C800013445B0013440B4402331B889BB21B0A82
:104C90009AB27B680133D2B21A70002318460C37DF
:104CA000BD465DF8047B70477400002080B483B07B
:104CB00000AF78600B467B8013467B707A782A4978
:104CC00013469B0013445B0013440B4406331A78CD
:104CD0007B681A707A78244913469B0013445B0062
:104CE00013440B44B3F807309AB27B680133D2B255
:104CF0001A707A781C4913469B0013445B001344D6
:104D00000B44B3F807309BB21B0A9AB27B6802339C
:104D1000D2B21A707A78144913469B0013445B0090
:104D200013440B440833B3F801309AB27B68033361
:104D3000D2B21A707A780C4913469B0013445B0078
:104D400013440B440833B3F801309BB21B0A9AB2E8
:104D50007B680433D2B21A70002318460C37BD4664
:104D60005DF8047B704700BF7400002090B484B0ED
:104D700000AF0446384680E80E002346FB7300BFB0
:104D80001037BD4690BC704780B586B000AFF86064
:104D9000B96011461A460B46FB8013467B7100230F
:104DA0007B8200213A4808F0B9FB7B7919463948E3
:104DB00024F05EF80021364808F0B0FB364824F0B5
:104DC000BFF800237B615AE07B69002B02D07B692E
:104DD000022B05D1FA687B6913441B787B824BE078
:104DE0007B69012B18D10021294808F097FB7A8AAA
:104DF000F9687B690B441B781B0242EA03007A8A3C
:104E0000F9687B690B441B781B0213431A46014661
:104E1000224824F02DF82FE07B69032B18D10021C4
:104E20001B4808F07BFB7A8AF9687B690B441B7886
:104E30001B0242EA03007A8AF9687B690B441B78FB
:104E40001B0213431A460146154824F011F813E0DB
:104E50007B69042B10D100210D4808F05FFBFA6834
:104E60007B6913441B781946FA687B6913441B78E5
:104E70001A460C4823F0FCFF7B6901337B617A6999
:104E8000BB689A42A0D3002318461837BD4680BDA0
:104E90003806030850D802088CD8020894D80208B3
:104EA000B4D80208D4D8020880B586B000AFF86044
:104EB000B96011461A460B46FB8013467B710023EE
:104EC0007B8200213A4808F029FB7B791946394852
:104ED00023F0CEFF0021364808F020FB364824F0AE
:104EE0002FF800237B615AE07B69002B02D07B699D
:104EF000022B05D1FA687B6913441B787B824BE057
:104F00007B69012B18D10021294808F007FB7A8A18
:104F1000F9687B690B441B781B0242EA03007A8A1A
:104F2000F9687B690B441B781B0213431A46014640
:104F3000224823F09DFF2FE07B69032B18D100212D
:104F40001B4808F0EBFA7A8AF9687B690B441B78F6
:104F50001B0242EA03007A8AF9687B690B441B78DA
:104F60001B0213431A460146154823F081FF13E044
:104F70007B69042B10D100210D4808F0CFFAFA68A4
:104F80007B6913441B781946FA687B6913441B78C4
:104F90001A460C4823F06CFF7B6901337B617A6908
:104FA000BB689A42A0D3002318461837BD4680BD7F
:104FB00058060308F0D8020834D9020894D8020829
:104FC000B4D80208D4D8020880B586B000AFF86023
:104FD000B96011461A460B46FB8013467B710021CF
:104FE000204808F09BFA7B7919461F4823F040FFC0
:104FF00000211C4808F092FA1C4823F0A1FF00236E
:105000007B6126E07B69002B05D1FA687B6913443C
:105010001B787B821AE07B69012B17D10021114894
:1050200008F07CFA7A8AF9687B690B441B781B02CA
:1050300042EA03007A8AF9687B690B441B781B02F9
:1050400013431A4601460A4823F012FF7B690133D5
:105050007B617A69BB689A42D4D30023184618371B
:10506000BD4680BD7C0603083CD902087CD90208F5
:1050700084D9020880B586B000AFF860B9601146E7
:105080001A460B46FB8013467B710021204808F02E
:1050900045FA7B7919461F4823F0EAFE00211C4897
:1050A00008F03CFA1C4823F04BFF00237B6126E00C
:1050B0007B69002B05D1FA687B6913441B787B82DE
:1050C0001AE07B69012B17D10021114808F026FA5C
:1050D0007A8AF9687B690B441B781B0242EA030059
:1050E0007A8AF9687B690B441B781B0213431A46C2
:1050F00001460A4823F0BCFE7B6901337B617A6973
:10510000BB689A42D4D3002318461837BD4680BDE9
:10511000A0060308A0D902087CD90208E4D9020835
:1051200080B586B000AFF860B96011461A460B46EC
:10513000FB8013467B7100213A4808F0EFF97B7938
:105140001946394823F094FE0021364808F0E6F964
:10515000364823F0F5FE00237B615AE07B69002B83
:1051600011D100212F4808F0D9F9FA687B6913445E
:105170001B781946FA687B6913441B781A462C4839
:1051800023F076FE42E07B69012B02D07B69032B82
:1051900005D1FA687B6913441B787B8236E07B6912
:1051A000022B18D100211F4808F0B8F97A8AF96853
:1051B0007B690B441B781B0242EA03007A8AF96878
:1051C0007B690B441B781B0213431A46014619489E
:1051D00023F04EFE1AE07B69042B17D10021114801
:1051E00008F09CF97A8AF9687B690B441B781B02EA
:1051F00042EA03007A8AF9687B690B441B781B0238
:1052000013431A4601460C4823F032FE7B690133F2
:105210007B617A69BB689A42A0D30023184618378D
:10522000BD4680BDC806030804DA020848DA020851
:1052300050DA02086CDA020884DA020880B586B017
:1052400000AFF860B96011461A460B46FB80134662
:105250007B7100237B8200215A4808F05FF97B793B
:105260001946594823F004FE0021564808F056F923
:10527000564823F065FE00237B6198E07B69002B94
:1052800008D07B69022B05D07B69042B02D07B6997
:10529000062B05D1FA687B6913441B787B8283E077
:1052A0007B69012B18D10021464808F037F97A8A2A
:1052B000F9687B690B441B781B0242EA03007A8A77
:1052C000F9687B690B441B781B0213431A4601469D
:1052D0003F4823F0CDFD67E07B69032B18D1002107
:1052E000384808F01BF97A8AF9687B690B441B7807
:1052F0001B0242EA03007A8AF9687B690B441B7837
:105300001B0213431A460146324823F0B1FD4BE01D
:105310007B69052B18D100212A4808F0FFF87A8A0A
:10532000F9687B690B441B781B0242EA03007A8A06
:10533000F9687B690B441B781B0213431A4601462C
:10534000254823F095FD2FE07B69072B18D100211C
:105350001C4808F0E3F87A8AF9687B690B441B78EB
:105360001B0242EA03007A8AF9687B690B441B78C6
:105370001B0213431A460146184823F079FD13E037
:105380007B69082B10D100210E4808F0C7F8FA6895
:105390007B6913441B781946FA687B6913441B78B0
:1053A0001A460F4823F064FD7B6901337B617A69FB
:1053B000BB689A42FFF462AF002318461837BD4617
:1053C00080BD00BFEC0603089CDA0208D4DA0208AC
:1053D000DCDA020800DB020828DB02084CDB0208EA
:1053E00070DB020880B586B000AFF860B960114686
:1053F0001A460B46FB8013467B7100237B820021FB
:105400005A4808F08BF87B791946594823F030FD4B
:105410000021564808F082F8564823F091FD0023F9
:105420007B6198E07B69002B08D07B69022B05D05B
:105430007B69042B02D07B69062B05D1FA687B6956
:1054400013441B787B8283E07B69012B18D10021F8
:10545000464808F063F87A8AF9687B690B441B7840
:105460001B0242EA03007A8AF9687B690B441B78C5
:105470001B0213431A4601463F4823F0F9FC67E03C
:105480007B69032B18D10021384808F047F87A8A45
:10549000F9687B690B441B781B0242EA03007A8A95
:1054A000F9687B690B441B781B0213431A460146BB
:1054B000324823F0DDFC4BE07B69052B18D100213D
:1054C0002A4808F02BF87A8AF9687B690B441B7824
:1054D0001B0242EA03007A8AF9687B690B441B7855
:1054E0001B0213431A460146254823F0C1FC2FE056
:1054F0007B69072B18D100211C4808F00FF87A8A25
:10550000F9687B690B441B781B0242EA03007A8A24
:10551000F9687B690B441B781B0213431A4601464A
:10552000184823F0A5FC13E07B69082B10D100215B
:105530000E4807F0F3FFFA687B6913441B7819469D
:10554000FA687B6913441B781A460F4823F090FCD5
:105550007B6901337B617A69BB689A42FFF462AF71
:10556000002318461837BD4680BD00BF0407030856
:105570008CDB0208CCDB020800DB0208D4DB02086B
:105580004CDB0208F8DB0208D4D8020880B586B0EC
:1055900000AFF860B96011461A460B46FB8013460F
:1055A0007B7100213A4807F0B9FF7B7919463948E9
:1055B00023F05EFC0021364807F0B0FF364823F0A8
:1055C000BFFC00237B615AE07B69002B11D10021D5
:1055D0002F4807F0A3FFFA687B6913441B7819462C
:1055E000FA687B6913441B781A462C4823F040FC68
:1055F00042E07B69012B02D07B69032B05D1FA685D
:105600007B6913441B787B8236E07B69022B18D1BF
:1056100000211F4807F082FF7A8AF9687B690B44F2
:105620001B781B0242EA03007A8AF9687B690B4403
:105630001B781B0213431A460146194823F018FC35
:105640001AE07B69042B17D10021114807F066FF8F
:105650007A8AF9687B690B441B781B0242EA0300D3
:105660007A8AF9687B690B441B781B0213431A463C
:1056700001460C4823F0FCFB7B6901337B617A69AE
:10568000BB689A42A0D3002318461837BD4680BD98
:10569000280703081CDC020864DC020850DA020850
:1056A0006CDA020884DA020880B586B000AFF860D0
:1056B000B96011461A460B46FB8013467B710023E6
:1056C0007B8200213F4807F029FF7B7919463E483D
:1056D00023F0CEFB00213B4807F020FF3B4823F09E
:1056E0002FFC00237B6164E07B69002B05D07B6984
:1056F000022B02D07B69042B05D1FA687B69134425
:105700001B787B8252E07B69012B18D100212D4848
:1057100007F004FF7A8AF9687B690B441B781B0247
:1057200042EA03007A8AF9687B690B441B781B0202
:1057300013431A460146264823F09AFB36E07B695C
:10574000032B18D100211F4807F0E8FE7A8AF96878
:105750007B690B441B781B0242EA03007A8AF968D2
:105760007B690B441B781B0213431A4601461948F8
:1057700023F07EFB1AE07B69052B17D1002111482D
:1057800007F0CCFE7A8AF9687B690B441B781B0210
:1057900042EA03007A8AF9687B690B441B781B0292
:1057A00013431A4601460C4823F062FB7B69013320
:1057B0007B617A69BB689A4296D3002318461837F2
:1057C000BD4680BD500703086CDC0208A8DC020857
:1057D000B0DC0208C8DC0208E4DC020880B586B050
:1057E00000AFF860B96011461A460B46FB801346BD
:1057F0007B7100237B8200214A4807F08FFE7B7972
:105800001946494823F034FB0021464807F086FE3C
:10581000464823F095FB00237B6179E07B69002BF0
:1058200005D07B69022B02D07B69042B05D1FA6875
:105830007B6913441B787B8267E07B69012B18D15D
:105840000021384807F06AFE7A8AF9687B690B44C0
:105850001B781B0242EA03007A8AF9687B690B44D1
:105860001B781B0213431A460146314823F000FB04
:105870004BE07B69032B18D100212A4807F04EFE2C
:105880007A8AF9687B690B441B781B0242EA0300A1
:105890007A8AF9687B690B441B781B0213431A460A
:1058A0000146244823F0E4FA2FE07B69052B18D148
:1058B00000211C4807F032FE7A8AF9687B690B44A4
:1058C0001B781B0242EA03007A8AF9687B690B4461
:1058D0001B781B0213431A460146174823F0C8FAE7
:1058E00013E07B69062B10D100210E4807F016FE4D
:1058F000FA687B6913441B781946FA687B6913447C
:105900001B781A460D4823F0B3FA7B6901337B619B
:105910007A69BB689A4281D3002318461837BD467E
:1059200080BD00BF70070308FCDC020834DD0208FC
:105930003CDD020858DD020870DD02088CDD02083B
:1059400080B586B000AFF860B96011461A460B46C4
:10595000FB8013467B7100237B8200213A4807F0CD
:10596000DDFD7B791946394823F082FA002136485B
:1059700007F0D4FD364823F0E3FA00237B615AE0B8
:105980007B69002B02D07B69022B05D1FA687B6909
:1059900013441B787B824BE07B69012B18D10021DB
:1059A000294807F0BBFD7A8AF9687B690B441B78AC
:1059B0001B0242EA03007A8AF9687B690B441B7870
:1059C0001B0213431A460146224823F051FA2FE0E6
:1059D0007B69032B18D100211B4807F09FFD7A8AB1
:1059E000F9687B690B441B781B0242EA03007A8A40
:1059F000F9687B690B441B781B0213431A46014666
:105A0000154823F035FA13E07B69042B10D10021EF
:105A10000D4807F083FDFA687B6913441B7819462B
:105A2000FA687B6913441B781A460C4823F020FA65
:105A30007B6901337B617A69BB689A42A0D30023FA
:105A400018461837BD4680BD88070308A8DD020840
:105A5000E0DD0208E8DD020804DE02088CDD020851
:105A600080B586B000AFF860B96011461A460B46A3
:105A7000FB8013467B7100237B8200213A4807F0AC
:105A80004DFD7B791946394823F0F2F9002136485B
:105A900007F044FD364823F053FA00237B615AE0B7
:105AA0007B69002B02D07B69022B05D1FA687B69E8
:105AB00013441B787B824BE07B69012B18D10021BA
:105AC000294807F02BFD7A8AF9687B690B441B781B
:105AD0001B0242EA03007A8AF9687B690B441B784F
